:020000040800F2
:10000000D061012065020008211C0008F5050008E8
:100010001D1C000831050008BD1D0008000000007F
:10002000000000000000000000000000291C000883
:100030008D05000800000000251C0008BD1C0008FC
:100040007F0200087F0200087F0200087F0200088C
:100050007F0200087F0200087F0200087F0200087C
:100060007F0200087F0200087F0200087F0200086C
:100070007F020008550500087F0200087F02000883
:100080007F0200087F0200087F0200087F0200084C
:100090007F0200087F0200087F0200087F0200083C
:1000A0007F0200088D1D00087F0200087F02000803
:1000B0007F0200087F0200087F0200087F0200081C
:1000C0007F0200087F0200087F0200087F0200080C
:1000D0007F0200087F0200087F0200087F020008FC
:1000E0007F0200087F0200087F0200087F020008EC
:1000F0007F0200087F0200087F0200087F020008DC
:100100007F0200087F0200087F0200087F020008CB
:100110007F0200087F0200087F0200087F020008BB
:100120007F0200087F0200087F0200087F020008AB
:100130007F0200087F0200087F0200087F0200089B
:1001400000000000000000000000000000000000AF
:100150007F0200087F0200087F0200087F0200087B
:100160007F0200087F0200087F0200087F0200086B
:100170007F0200087F0200087F0200087F0200085B
:100180007F02000800F002F800F05CF80AA090E896
:10019000000C82448344AAF10107DA4501D100F042
:1001A00051F8AFF2090EBAE80F0013F0010F18BFB3
:1001B000FB1A43F001031847147303003473030060
:1001C0000A444FF0000C10F8013B13F0070408BF7D
:1001D00010F8014B1D1108BF10F8015B641E05D01B
:1001E00010F8016B641E01F8016BF9D113F0080FD0
:1001F0001EBF10F8014BAD1C0C1B09D16D1E58BF62
:1002000001F801CBFAD505E014F8016B01F8016B98
:100210006D1EF9D59142D6D370470000002300240B
:1002200000250026103A28BF78C1FBD8520728BF06
:1002300030C148BF0B6070471FB51EF07BFC1FBD6F
:1002400010B510BD00F041F91146FFF7F5FF1CF0A5
:100250002DF900F05FF903B4FFF7F2FF03BC00F0E3
:100260002DF900000948804709480047FEE7FEE7EE
:10027000FEE7FEE7FEE7FEE7FEE7FEE7FEE7FEE756
:1002800004480549054A064B70470000C11C000898
:1002900085010008D05B0120D0610120D05D0120E4
:1002A000D05D012053EA020C00F069802DE9F04B8B
:1002B0004FF00006002B1FBFB3FA83F503FA05F4D5
:1002C00024FA05F65E4012BF1643B2FA82F502FA2E
:1002D00005F4C5F120051EBF22FA05FC44EA0C0412
:1002E000203556EA044C4FEA144418BF641C4FF002
:1002F00000084FF00009904271EB030C39D300293C
:1003000019BFB1FA81F701FA07F6B0FA80F700FADF
:1003100007F6C7F120071EBF20FA07FC46EA0C06C5
:100320002037B6FBF4FCA7EB0507103F07F01F0BC7
:10033000CBF120062CFA06F60CFA0BFB44BFB346B1
:100340000026202FA4BF5E464FF0000B5BEA060C90
:1003500008BF4FF0010B19EB0B0948EB0608ABFB8C
:10036000027C06FB02CC0BFB03CCC01B71EB0C0127
:10037000C1E70B46024641464846BDE8F08B13B53F
:10038000084318BF4FF0FF300146AFF30080BDE8CF
:100390001C40704702F0FF0343EA032242EA024294
:1003A00000F002B84FF000020429C0F0128010F0F3
:1003B000030C00F01B80CCF1040CBCF1020F18BF41
:1003C00000F8012BA8BF20F8022BA1EB0C0100F0D4
:1003D0000DB85FEAC17C24BF00F8012B00F8012BA7
:1003E00048BF00F8012B70474FF0000200B51346DC
:1003F00094469646203922BFA0E80C50A0E80C5045
:10040000B1F12001BFF4F7AF090728BFA0E80C50F5
:1004100048BF0CC05DF804EB890028BF40F8042BEE
:1004200008BF704748BF20F8022B11F0804F18BF5B
:1004300000F8012B7047000030B44FF0013C50F839
:10044000042B51F8043BCCFA52F4D51A20D1FCB954
:1004500050F8042B51F8043BCCFA52F4D51A17D1BA
:10046000B4B950F8042B51F8043BCCFA52F4D51A25
:100470000ED16CB950F8042B51F8043BCCFA52F46D
:10048000D51A05D1002CDAD030BC4FF000007047EF
:1004900029BAB1FA81F111F01801D1F1200084409C
:1004A000F2D1CA40CB4012F0FF0213F0FF0330BC80
:1004B000D01A7047704770477047000001491820F4
:1004C000ABBEFEE7260002007047754600F02CF830
:1004D000AE4605006946534620F00700854618B031
:1004E00020B5FFF7CDFEBDE820404FF000064FF0ED
:1004F00000074FF000084FF0000BAC46ACE8C00915
:10050000ACE8C009ACE8C009ACE8C00921F00701BB
:100510008D46704710B50446AFF300802046BDE815
:100520001040FFF798BE000000487047B00600205A
:10053000FEE700000129B8BF70470238023100BF52
:1005400010F8022F02394378022942700370F7DC59
:100550007047000080B54FF4007004F051FF002890
:1005600008BF80BD4FF4007004F03EFF40F600402D
:10057000C4F20100042107F09DF940F6F000C2F238
:1005800000000068BDE880400AF076B970470000BE
:10059000F0B581B00E4607464FF4A0100121154674
:1005A00004F020FE3024C4F20204204604F07CFF54
:1005B00040F60011C2F20001102008814FF4807053
:1005C000C860088220464D81C1E9006704F026FF1B
:1005D00020460221012204F05FFF0D2000210022AD
:1005E0001BF0DEFF2046012101B0BDE8F04004F021
:1005F000F5BE0000FEE700002DE9F04381B040F6B3
:100600000044C4F201048946074620460221984668
:10061000164607F04DF92046042107F049F904F584
:10062000105528462A211DF0E3FC00BF28468021F2
:100630001DF0EAFC0028F9D12046042107F03AF920
:100640002046022107F036F907F1140080B201F0CC
:10065000B3FA06F1140080B201F0AEFA204602218E
:1006600007F026F92046042107F022F928462B211D
:100670001DF0BEFC284680211DF0C6FC0028F9D1E3
:100680002046042107F016F92046022107F012F94E
:10069000484601F091FA404601F08EFA20460221C8
:1006A00007F006F92046042107F002F928462C211C
:1006B0001DF09EFC284680211DF0A6FC0028F9D1E3
:1006C0002046042107F0F6F82046022101B0BDE8DB
:1006D000F04307F0EFB8000070B582B00225C0F219
:1006E000180540F6004428460121C4F20104012601
:1006F00004F078FD681C012104F074FDA81C0121A0
:1007000004F070FD6D46284607F0D6F8009641F6D5
:100710000006C0F2101620462946019607F0D6F8CA
:10072000284607F0C9F80220CDE9000620462946F0
:1007300007F0CCF8284607F0BFF80420CDE9000602
:100740002046294607F0C2F8284607F0B5F84FF4CE
:100750008060CDE900062046294607F0B7F820461C
:10076000012107F0A7F82046022107F0A3F8204650
:10077000042107F09FF820464FF4806107F098F8B5
:100780002046012107F096F80A2004F0C3FD204618
:10079000012107F08DF80A2004F0BCFD204601215C
:1007A00007F088F8782004F0B5FD20464FF480610A
:1007B00007F080F82046022107F07AF8204604214D
:1007C00007F076F804F510552846FD211DF010FCC1
:1007D000284680211DF018FC0028F9D1204604216C
:1007E00007F068F82046022107F064F8204604214B
:1007F00007F05EF8284606211DF0FAFB2846802106
:100800001DF002FC0028F9D12046042107F052F81F
:100810002046042107F04CF8284608211DF0E8FB8B
:10082000284680211DF0F0FB0028F9D12046042144
:1008300007F040F82046022107F03AF8204604214C
:1008400007F036F8284661211DF0D2FB28468021AA
:100850001DF0DAFB0028F9D12046042107F02AF820
:100860002046022107F026F82046042107F020F850
:10087000284607211DF0BCFB284680211DF0C4FB43
:100880000028F9D12046042107F014F8204604215D
:1008900007F00EF8284604211DF0AAFB2846802107
:1008A0001DF0B2FB0028F9D12046042107F002F820
:1008B0002046022106F0FCFF2046042106F0F8FF46
:1008C000284662211DF094FB284680211DF09CFBE8
:1008D0000028F9D12046042106F0ECFF2046022131
:1008E00006F0E8FF2046042106F0E2FF284600213A
:1008F0001DF07EFB284680211DF086FB0028F9D1E3
:100900002046042106F0D6FF2046042106F0D0FF41
:10091000284644211DF06CFB284680211DF074FB05
:100920000028F9D12046042106F0C4FF2046042106
:1009300006F0BEFF284645211DF05AFB28468021BF
:100940001DF062FB0028F9D12046042106F0B2FF19
:100950002046022106F0ACFF2046042106F0A8FF45
:10096000284663211DF044FB284680211DF04CFBE6
:100970000028F9D12046042106F09CFF20460221E0
:1009800006F098FF2046042106F092FF28464121F8
:100990001DF02EFB284680211DF036FB0028F9D1E2
:1009A0002046042106F086FF2046042106F080FF41
:1009B000284607211DF01CFB284680211DF024FB42
:1009C0000028F9D12046042106F074FF20460421B6
:1009D00006F06EFF284612211DF00AFB28468021F2
:1009E0001DF012FB0028F9D12046042106F062FF19
:1009F0002046042106F05CFF284612211DF0F8FA7B
:100A0000284680211DF000FB0028F9D12046042152
:100A100006F050FF2046022106F04AFF204604213E
:100A200006F046FF284664211DF0E2FA28468021A0
:100A30001DF0EAFA0028F9D12046042106F03AFF19
:100A40002046022106F036FF2046042106F030FF42
:100A5000284637211DF0CCFA284680211DF0D4FA13
:100A60000028F9D12046042106F024FF2046022167
:100A700006F01EFF2046042106F01AFF28466521D5
:100A80001DF0B6FA284680211DF0BEFA0028F9D1E3
:100A90002046042106F00EFF2046022106F00AFF40
:100AA0002046042106F004FF284609211DF0A0FA83
:100AB000284680211DF0A8FA0028F9D120460421FB
:100AC00006F0F8FE2046042106F0F2FE284610212A
:100AD0001DF08EFA284680211DF096FA0028F9D1E3
:100AE0002046042106F0E6FE2046042106F0E0FE42
:100AF000284621211DF07CFA284680211DF084FA29
:100B00000028F9D12046042106F0D4FE2046022117
:100B100006F0CEFE2046042106F0CAFE28466621D5
:100B20001DF066FA284680211DF06EFA0028F9D1E2
:100B30002046042106F0BEFE2046022106F0BAFE41
:100B40002046042106F0B4FE284609211DF050FA83
:100B5000284680211DF058FA0028F9D120460421AA
:100B600006F0A8FE2046042106F0A2FE2846102129
:100B70001DF03EFA284680211DF046FA0028F9D1E2
:100B80002046042106F096FE2046042106F090FE41
:100B9000284621211DF02CFA284680211DF034FA28
:100BA0000028F9D12046042106F084FE20460221C7
:100BB00006F07EFE2046042106F07AFE28466721D4
:100BC0001DF016FA284680211DF01EFA0028F9D1E2
:100BD0002046042106F06EFE2046022106F06AFE41
:100BE0002046042106F064FE284620211DF000FA6C
:100BF000284680211DF008FA0028F9D1204604215A
:100C000006F058FE2046042106F052FE28464021F8
:100C10001DF0EEF9284680211DF0F6F90028F9D1E3
:100C20002046042106F046FE2046022106F040FE42
:100C30002046042106F03CFE284668211DF0D8F924
:100C4000284680211DF0E0F90028F9D12046042132
:100C500006F030FE2046022106F02CFE204604213C
:100C600006F026FE284690211DF0C2F92846802174
:100C70001DF0CAF90028F9D12046042106F01AFE19
:100C80002046042106F014FE28464C211DF0B0F940
:100C9000284680211DF0B8F90028F9D1204604210A
:100CA00006F008FE2046042106F002FE28467C21BC
:100CB0001DF09EF9284680211DF0A6F90028F9D1E3
:100CC0002046042106F0F6FD2046042106F0F0FD42
:100CD000284666211DF08CF9284680211DF094F9E4
:100CE0000028F9D12046042106F0E4FD2046022127
:100CF00006F0DEFD2046042106F0DAFD2846B1218B
:100D00001DF076F9284680211DF07EF90028F9D1E2
:100D10002046042106F0CEFD2046022106F0CAFD41
:100D20002046042106F0C4FD28460F211DF060F97D
:100D3000284680211DF068F90028F9D120460421B9
:100D400006F0B8FD2046042106F0B2FD2846022137
:100D50001DF04EF9284680211DF056F90028F9D1E2
:100D60002046042106F0A6FD2046042106F0A0FD41
:100D7000284601211DF03CF9284680211DF044F948
:100D80000028F9D12046042106F094FD20460221D6
:100D900006F08EFD2046042106F08AFD2846B42187
:100DA0001DF026F9284680211DF02EF90028F9D1E2
:100DB0002046042106F07EFD2046022106F07AFD41
:100DC0002046042106F074FD284601211DF010F98B
:100DD000284680211DF018F90028F9D12046042169
:100DE00006F068FD2046022106F062FD204604213F
:100DF00006F05EFD2846B5211DF0FAF82846802150
:100E00001DF002F90028F9D12046042106F052FD18
:100E10002046022106F04EFD2046042106F048FD42
:100E2000284602211DF0E4F8284680211DF0ECF848
:100E30000028F9D12046042106F03CFD204604217B
:100E400006F036FD284602211DF0D2F82846802102
:100E50001DF0DAF80028F9D12046042106F02AFD19
:100E60002046042106F024FD28460A211DF0C0F882
:100E7000284680211DF0C8F80028F9D12046042119
:100E800006F018FD2046042106F012FD2846142124
:100E90001DF0AEF8284680211DF0B6F80028F9D1E3
:100EA0002046042106F006FD2046022106F000FD42
:100EB0002046042106F0FCFC2846B6211DF098F8D7
:100EC000284680211DF0A0F80028F9D120460421F1
:100ED00006F0F0FC2046022106F0ECFC204604213E
:100EE00006F0E6FC284604211DF082F82846802101
:100EF0001DF08AF80028F9D12046042106F0DAFC1A
:100F00002046042106F0D4FC284601211DF070F88B
:100F1000284680211DF078F80028F9D120460421C8
:100F200006F0C8FC2046042106F0C2FC28469F219A
:100F30001DF05EF8284680211DF066F80028F9D1E2
:100F40002046042106F0B6FC2046042106F0B0FC41
:100F5000284600211DF04CF8284680211DF054F849
:100F60000028F9D12046042106F0A4FC20460421E3
:100F700006F09EFC284602211DF03AF82846802102
:100F80001DF042F80028F9D12046042106F092FC19
:100F90002046022106F08CFC2046042106F088FC45
:100FA0002846DF211DF024F8284680211DF02CF86A
:100FB0000028F9D12046042106F07CFC20460221BD
:100FC00006F078FC2046042106F072FC2846112128
:100FD0001DF00EF8284680211DF016F80028F9D1E2
:100FE0002046042106F066FC2046022106F060FC43
:100FF0002046042106F05CFC2846E2211CF0F8FFA4
:10100000284680211DF000F80028F9D1204604214F
:1010100006F050FC2046022106F04CFC204604213C
:1010200006F046FC284613211CF0E2FF28468021EA
:101030001CF0EAFF0028F9D12046042106F03AFC12
:101040002046042106F034FC284600211CF0D0FF85
:10105000284680211CF0D8FF0028F9D12046042121
:1010600006F028FC2046042106F022FC2846002138
:101070001CF0BEFF284680211CF0C6FF0028F9D1D5
:101080002046042106F016FC2046042106F010FC40
:10109000284630211CF0ACFF284680211CF0B4FF0C
:1010A0000028F9D12046042106F004FC2046042142
:1010B00006F0FEFB284633211CF09AFF28468021CB
:1010C0001CF0A2FF0028F9D12046042106F0F2FB13
:1010D0002046042106F0ECFB28463F211CF088FF47
:1010E000284680211CF090FF0028F9D120460421D9
:1010F00006F0E0FB2046022106F0DAFB2046042140
:1011000006F0D6FB2846E5211CF072FF2846802118
:101110001CF07AFF0028F9D12046042106F0CAFB12
:101120002046022106F0C6FB2046042106F0C0FB43
:1011300028463F211CF05CFF284680211CF064FFFC
:101140000028F9D12046042106F0B4FB20460421F2
:1011500006F0AEFB284633211CF04AFF28468021CA
:101160001CF052FF0028F9D12046042106F0A2FB12
:101170002046042106F09CFB284630211CF038FF55
:10118000284680211CF040FF0028F9D12046042188
:1011900006F090FB2046042106F08AFB2846002139
:1011A0001CF026FF284680211CF02EFF0028F9D1D4
:1011B0002046042106F07EFB2046042106F078FB41
:1011C000284600211CF014FF284680211CF01CFF3B
:1011D0000028F9D12046042106F06CFB20460421AA
:1011E00006F066FB284613211CF002FF28468021EA
:1011F0001CF00AFF0028F9D12046042106F05AFB12
:101200002046022106F054FB2046042106F050FB44
:101210002846E1211CF0ECFE284680211CF0F4FE5B
:101220000028F9D12046042106F044FB2046022183
:1012300006F040FB2046042106F03AFB2846002138
:101240001CF0D6FE284680211CF0DEFE0028F9D1D5
:101250002046042106F02EFB2046042106F028FB40
:10126000284657211CF0C4FE284680211CF0CCFEE5
:101270000028F9D12046042106F01CFB204602215B
:1012800006F016FB2046042106F012FB2846E42156
:101290001CF0AEFE284680211CF0B6FE0028F9D1D5
:1012A0002046042106F006FB2046022106F002FB40
:1012B0002046042106F0FCFA284658211CF098FE2E
:1012C000284680211CF0A0FE0028F9D120460421E8
:1012D00006F0F0FA2046042106F0EAFA284600213A
:1012E0001CF086FE284680211CF08EFE0028F9D1D5
:1012F0002046042106F0DEFA2046022106F0D8FA44
:101300002046042106F0D4FA2846E0211CF070FEA5
:10131000284680211CF078FE0028F9D120460421BF
:1013200006F0C8FA2046022106F0C4FA204604213D
:1013300006F0BEFA284601211CF05AFE28468021FC
:101340001CF062FE0028F9D12046042106F0B2FA12
:101350002046042106F0ACFA284603211CF048FE82
:10136000284680211CF050FE0028F9D12046042197
:1013700006F0A0FA2046042106F09AFA28460D212C
:101380001CF036FE284680211CF03EFE0028F9D1D4
:101390002046042106F08EFA2046042106F088FA41
:1013A00028460E211CF024FE284680211CF02CFE2D
:1013B0000028F9D12046042106F07CFA20460421B9
:1013C00006F076FA28460E211CF012FE28468021EF
:1013D0001CF01AFE0028F9D12046042106F06AFA12
:1013E0002046042106F064FA28460C211CF000FE79
:1013F000284680211CF008FE0028F9D1204604214F
:1014000006F058FA2046042106F052FA2846152123
:101410001CF0EEFD284680211CF0F6FD0028F9D1D5
:101420002046042106F046FA2046042106F040FA40
:10143000284619211CF0DCFD284680211CF0E4FD23
:101440000028F9D12046042106F034FA2046022172
:1014500006F02EFA2046042106F02AFA2846E32157
:101460001CF0C6FD284680211CF0CEFD0028F9D1D5
:101470002046042106F01EFA2046022106F01AFA40
:101480002046042106F014FA28461A211CF0B0FD6B
:10149000284680211CF0B8FD0028F9D120460421FF
:1014A00006F008FA2046042106F002FA2846162122
:1014B0001CF09EFD284680211CF0A6FD0028F9D1D5
:1014C0002046042106F0F6F92046042106F0F0F942
:1014D00028460C211CF08CFD284680211CF094FD30
:1014E0000028F9D12046042106F0E4F92046042121
:1014F00006F0DEF928460F211CF07AFD28468021EF
:101500001CF082FD0028F9D12046042106F0D2F912
:101510002046042106F0CCF928460E211CF068FD77
:10152000284680211CF070FD0028F9D120460421B6
:1015300006F0C0F92046042106F0BAF928460D212C
:101540001CF056FD284680211CF05EFD0028F9D1D4
:101550002046042106F0AEF92046042106F0A8F941
:10156000284602211CF044FD284680211CF04CFD39
:101570000028F9D12046042106F09CF920460421D8
:1015800006F096F9284601211CF032FD28468021FC
:101590001CF03AFD0028F9D12046042106F08AF912
:1015A0002046022106F084F92046042106F080F945
:1015B0002846E6211CF01CFD284680211CF024FD55
:1015C0000028F9D12046042106F074F920460221B2
:1015D00006F070F92046042106F06AF92846002139
:1015E0001CF006FD284680211CF00EFD0028F9D1D4
:1015F0002046042106F05EF92046042106F058F941
:101600002846FF211CF0F4FC284680211CF0FCFC3D
:101610000028F9D12046042106F04CF92046022189
:1016200006F046F92046042106F042F92846E72153
:101630001CF0DEFC284680211CF0E6FC0028F9D1D5
:101640002046042106F036F92046022106F032F940
:101650002046042106F02CF9284601211CF0C8FC84
:10166000284680211CF0D0FC0028F9D12046042116
:1016700006F020F92046042106F01AF92846042134
:101680001CF0B6FC284680211CF0BEFC0028F9D1D5
:101690002046042106F00EF92046042106F008F940
:1016A000284603211CF0A4FC284680211CF0ACFC39
:1016B0000028F9D12046042106F0FCF82046042138
:1016C00006F0F6F8284603211CF092FC28468021FB
:1016D0001CF09AFC0028F9D12046042106F0EAF813
:1016E0002046042106F0E4F8284600211CF080FC86
:1016F000284680211CF088FC0028F9D120460421CE
:1017000006F0D8F82046042106F0D2F82846122127
:101710001CF06EFC284680211CF076FC0028F9D1D4
:101720002046042106F0C6F82046022106F0C0F843
:101730002046042106F0BCF82846E8211CF058FC9D
:10174000284680211CF060FC0028F9D120460421A5
:1017500006F0B0F82046022106F0ACF8204604213D
:1017600006F0A6F8284600211CF042FC28468021FD
:101770001CF04AFC0028F9D12046042106F09AF812
:101780002046042106F094F8284670211CF030FC15
:10179000284680211CF038FC0028F9D1204604217D
:1017A00006F088F82046042106F082F82846002139
:1017B0001CF01EFC284680211CF026FC0028F9D1D4
:1017C0002046042106F076F82046022106F070F843
:1017D0002046042106F06CF82846EC211CF008FC99
:1017E000284680211CF010FC0028F9D12046042155
:1017F00006F060F82046022106F05CF8204604213D
:1018000006F056F8284652211CF0F2FB28468021AB
:101810001CF0FAFB0028F9D12046042106F04AF812
:101820002046022106F044F82046042106F040F844
:101830002846F1211CF0DCFB284680211CF0E4FB4B
:101840000028F9D12046042106F034F82046022170
:1018500006F030F82046042106F02AF82846012137
:101860001CF0C6FB284680211CF0CEFB0028F9D1D5
:101870002046042106F01EF82046042106F018F840
:10188000284601211CF0B4FB284680211CF0BCFB3B
:101890000028F9D12046042106F00CF82046042146
:1018A00006F006F8284602211CF0A2FB28468021FB
:1018B0001CF0AAFB0028F9D12046042105F0FAFF0C
:1018C0002046022105F0F4FF2046042105F0F0FF38
:1018D0002846F6211CF08CFB284680211CF094FB46
:1018E0000028F9D12046042105F0E4FF204602211A
:1018F00005F0E0FF2046042105F0DAFF2846092123
:101900001CF076FB284680211CF07EFB0028F9D1D4
:101910002046042105F0CEFF2046042105F0C8FF33
:10192000284610211CF064FB284680211CF06CFB2B
:101930000028F9D12046042105F0BCFF20460421EF
:1019400005F0B6FF284600211CF052FB28468021F6
:101950001CF05AFB0028F9D12046042105F0AAFF0B
:101960002046042105F0A4FF284600211CF040FB7E
:10197000284680211CF048FB0028F9D1204604218C
:1019800005F098FF2046022105F092FF2046042131
:1019900005F08EFF2846FD211CF02AFB28468021F9
:1019A0001CF032FB0028F9D12046042105F082FF0B
:1019B0002046022105F07EFF2046042105F078FF35
:1019C0002846FA211CF014FB284680211CF01CFB41
:1019D0000028F9D12046042105F06CFF204604219F
:1019E00005F066FF2846FC211CF002FB28468021FA
:1019F0001CF00AFB0028F9D12046042105F05AFF0B
:101A00002046022105F054FF2046042105F050FF36
:101A100028463A211CF0ECFA284680211CF0F4FA02
:101A20000028F9D12046042105F044FF2046022178
:101A300005F040FF2046042105F03AFF2846052125
:101A40001CF0D6FA284680211CF0DEFA0028F9D1D5
:101A50002046042105F02EFF2046022105F028FF34
:101A60002046042105F024FF284635211CF0C0FA49
:101A7000284680211CF0C8FA0028F9D1204604210C
:101A800005F018FF2046022105F014FF204604212E
:101A900005F00EFF284600211CF0AAFA28468021F6
:101AA0001CF0B2FA0028F9D12046042105F002FF0B
:101AB0002046022105F0FCFE2046042105F0F8FE38
:101AC000284636211CF094FA284680211CF09CFA06
:101AD0000028F9D12046042105F0ECFE2046022121
:101AE00005F0E8FE2046042105F0E2FE28467821B4
:101AF0001CF07EFA284680211CF086FA0028F9D1D5
:101B00002046042105F0D6FE2046022105F0D0FE35
:101B10002046042105F0CCFE284621211CF068FA5D
:101B2000284680211CF070FA0028F9D120460421B3
:101B300005F0C0FE2046022105F0BCFE2046022131
:101B400005F0B6FE2046042105F0B2FE284611211C
:101B50001CF04EFA284680211CF056FA0028F9D1D4
:101B60002046042105F0A6FE2046022105F0A2FE33
:101B7000C82003F0CFFB2046022105F099FE204645
:101B8000042105F095FE284629211CF031FA00BFFA
:101B9000284680211CF038FA0028F9D1204604217B
:101BA00005F088FE2046022105F084FE0A2003F09D
:101BB000B1FB02B070BD0000F0B581B040F600444A
:101BC000C4F201040646070A2046042105F070FE0F
:101BD00004F51055284639461CF00AFA284680219B
:101BE0001CF012FA0028F9D12046042105F062FE0B
:101BF0002046042105F05CFEF1B228461CF0F8F9FD
:101C0000284680211CF000FA0028F9D12046042142
:101C100001B0BDE8F04005F04DBE0000FEE7000059
:101C2000704700007047000070470000F0B585B0B5
:101C30000224C0F218042046012103F0D3FA04F173
:101C40000A00012103F0CEFA03AD284605F034FE68
:101C500043F20004C4F20104802040F20047A4F5DE
:101C600020560390C0F2081730462946049705F025
:101C70002DFE284605F020FE2020CDE90307304642
:101C8000294605F023FE01AD28461CF09FF94FF4CC
:101C900080700021ADF80400CDF80610ADF80A0000
:101CA000204629461CF0B6F9204601211CF0A2F975
:101CB000204601211CF092F905B0F0BD70470000EC
:101CC0004EF6885CCEF2000CDCF8002041F20001F8
:101CD00042F47002C4F20201CCF800200A6842F01B
:101CE00001020A600A689207FCD54A6822F00302E2
:101CF0004A6000BF4A6812F00C0FFBD100224A6014
:101D00000B684FF6FF70CFF6F260184008604FF492
:101D10001F000A6388604FF000604CF8800C704729
:101D200045F6BC31C2F201010870704710B586B0AB
:101D300000200590CDE90300CDE9010001A803F0E2
:101D4000A9F90B20C0F21800012103F04BFA42F66A
:101D50000044C4F201042046092145F6BF521CF09C
:101D600065FB204600211CF069FB20460121012271
:101D70001CF07EFB1920002100221AF011FC2046E5
:101D800001211CF065FB06B010BD000010B542F645
:101D90000044C4F20104204601211CF063FB00282A
:101DA00008BF10BD204601211CF058FB0120FFF7A1
:101DB000B7FF0120BDE8104019F07CBDFEE7000030
:101DC00070B540F23474C2F2000420464C2100F099
:101DD00049FE43F61D60C0F600002121002219F0E3
:101DE00077FD40F24076C2F2000640F6D40530603E
:101DF000C2F2000501202870204600F01FFE0146B7
:101E0000306811B119F0B0FE01E019F09DFE00201C
:101E1000287070BD70B50346B1F90000B2F90040FA
:101E2000B1F902C0B2F90250B1F904E0B2F90460AC
:101E3000A042B1F90610B2F90620C8BF0446AC456D
:101E40001C80C8BF6546B6455D80B8BF76469142E6
:101E50009E80B8BF0A460020B4424FF00001D8BFB0
:101E600001219542D8BF01200840DA8070BD0000F2
:101E70002DE9F04381B00C46B0F90070B1F90010C3
:101E80008F423DDBB0F90260B4F902108E4237DBBD
:101E9000B0F90490B4F90410894531DCB0F906803A
:101EA000B4F9060080452BDC15466AB36946204626
:101EB0002A46ADF80070ADF8026000F097F8F8B16E
:101EC000694620462A46ADF80090ADF8026000F061
:101ED0008DF8A8B1694620462A46ADF80070ADF8E5
:101EE000028000F083F858B1694620462A46ADF8D2
:101EF0000090ADF8028000F079F801B0BDE8F08301
:101F0000002001B0BDE8F083012001B0BDE8F083FE
:101F1000B0F90020B1F904309A4213DCB0F9042082
:101F2000B1F900309A420DDBB0F90220B1F9063068
:101F30009A4207DCB0F90600B1F902108842A4BF4A
:101F400001207047002070472DE9F04381B00C4616
:101F5000B0F90460B1F900108E4211DBB0F90670DF
:101F6000B4F902108F420BDBB0F90080B4F9041011
:101F7000884505DCB0F90290B4F90600814503DD1F
:101F8000012001B0BDE8F0831546EAB1694620465C
:101F90002A46ADF80080ADF8029000F027F898B915
:101FA000694620462A46ADF80060ADF8029000F080
:101FB0001DF848B9694620462A46ADF80080ADF8BC
:101FC000027000F013F818B1002001B0BDE8F083F2
:101FD000694620462A46ADF80060ADF8027000F070
:101FE00005F880F0010001B0BDE8F0832DE9F04173
:101FF000B1F90030B0F90040A3420DDBB0F904E0C4
:10200000734509DCB1F90210B0F902C0614503DB88
:10201000B0F90600814202DD0020BDE8F081012A0E
:1020200036DBAEEB04050135AEB205EBD6352EB28C
:10203000A0EB0C050135AFB205EBD7352FB24FEA57
:1020400066087D10B8EB670FB8BF75109542A8BF42
:1020500015462A1916B205EB0C02B34212B2D8BFCC
:10206000914218DD401BB34200B22CDC81422ADBD6
:10207000721912B2121B02EBD272571004EB6206F5
:10208000294400EB62009B1B081A07FB07F110E0D4
:102090000120BDE8F081701900B2001B00EBD07088
:1020A000421004EB60070CEB6000DB1B081A02FB1C
:1020B00002F113FB03F210FB002200208A4298BFBA
:1020C0000120BDE8F081AEEB050424B2A342A8BF15
:1020D000814220DAA3424FF001001ADB9142C8BFCF
:1020E000BDE8F081601B02B2AEEB020202EBD272DD
:1020F00000EB62005710181A0CEB6202891A10FBF1
:1021000000F007FB07F211FB01010020914298BF8C
:102110000120BDE8F081621B17B2AEEB070707EBA9
:10212000D77702EB67027E109A1A294400EB67000A
:10213000081A06FB06F112FB02F2BCE770B5B1F912
:102140000030B2F90040B1F902C0B2F90250B1F961
:1021500004E0B2F90460A342B1F90610B2F9062016
:10216000B8BF1C46AC450480B8BF6546B64545803F
:10217000C8BF764686809142C8BF0A46C28070BDFD
:102180002DE9F04F8BB0054619F084FB40F6FC0BAF
:102190000446C2F2000B35B1E868CBF800002846CF
:1021A00019F0D2FC03E008F06BFBCBF80000DBF881
:1021B0000000002800F07882C169002900F07482D4
:1021C0000169002900F070823221002208F02EFC03
:1021D000DBF80010D1F86C01C1F8AC4118F0BAFB83
:1021E000DBF80000D0F87001002818BF18F0B2FB2F
:1021F000DBF80000D0F8780118F0ACFBDBF8000049
:10220000D0F87C0118F0A6FBDBF80000D0F88001C4
:1022100018F0A0FBDBF80000D0F86C11002900F0EA
:102220007F8090F82D10012905D1D0F85811097D33
:10223000092940F03382B0F8501100295ED0002403
:102240000DF120084FF0010907E000BFDBF80000A6
:102250000134B0F850118C4250D2204490F8300133
:102260000028F3D1DBF80000B0F850110029EDD0C0
:10227000002706E0DBF800000137B0F850118F426C
:10228000E4D2C11991F830110029F3D1A742F1D05D
:1022900000F1300101EBC40001EBC701FFF738FE8C
:1022A0000028E7D0DBF80000303000EBC40100EB81
:1022B000C7024046FFF742FF404607F08DFBDBF8C0
:1022C0000010054601EBC400303007F085FBDBF859
:1022D0000010064601EBC700303007F07DFB3044AC
:1022E0008542C7D2DBF80000DDE9082300EBC4011A
:1022F00038440A634B6380F83091BBE7DBF8000099
:10230000B0F85011002900F0648100BF01290BDBF7
:10231000421892F82F214E1E002A3146F6D104E0D1
:102320000021A0F85011B9E100262F21002208F069
:102330007DFBDBF8000090F82C1090F82E2001F0C7
:10234000FE0180F82C1090F82C1042F0020201F0EF
:10235000FD0180F82C10B0F8501180F82E200029D3
:1023600000F031814FF0000803960AE0039E00BFA1
:10237000DBF8000008F10108B0F85011884580F042
:10238000228100EB080191F830110029F0D1B0450D
:1023900005D190F82C1041F0010180F82C1090F834
:1023A0002C1000EBC80A01F0FD0180F82C10D0F8C9
:1023B000585181690AF13009296090F82D1039B31C
:1023C00008F082FADBF80010441E084608F0F4FA20
:1023D000013823B208AC07B2204600210022009742
:1023E00007F02EFBDBF800006C6090F82D1001293F
:1023F00021D00229BCD190F82C1008AA41F002018A
:1024000080F82C10DDE90801C5E90220296126E0E9
:102410003AF8321F0491514631F8024F5646CDE941
:102420000519B9F8009036F9047F08F0C5FA87421B
:1024300019DA30881CE090F82C1090F82C2001F06C
:10244000010102F0FD0242EA410180F82C10C5F8BA
:102450000890D9F80400D9F80010C5E903102846FF
:102460001AF034FB84E7DBF8000008F0A5FA013825
:10247000DBF8006007900499A4EB090000F1010962
:1024800096F82F00791A4F1C07F0EEFB96F82F10E4
:102490000446084607F0D0FBF1690222002C18BF61
:1024A0000322824298BF0246B1FBF2F00FFA89F193
:1024B000B0FBF1F03CB2A042B8BF04460020274672
:1024C0000890ADF8240000BFDBF800007E1E2E212E
:1024D00008AAADF8266008F0A9FABDF92600BDF8F3
:1024E0002210411A013109B28C4202DA37B2002FB0
:1024F000EADC39B2471C0129B8BF0027BAF900004D
:10250000079E3A1834B2511EA14280B20CDD4FF042
:10251000000933E028461AF0D9FA07FA8AF2511E68
:10252000079EA142504628DC069B92461B880AB2B1
:10253000ADF82030059B94421B88ADF82200ADF821
:102540002430ADF82610DDE90810C5E9031008A90C
:10255000DBF800006960A96081692960B8BFADF847
:102560002660BDF82690B1B24945D3D190F82C1021
:1025700041F0020180F82C10CCE75046B1B2494539
:102580003FF4F4AE06990988ADF820100599098842
:10259000ADF82200ADF82410ADF82660DDE9081092
:1025A000C5E9031008A9DBF800006960A96081692A
:1025B000296090F82C1041F0020180F82C10284678
:1025C0001AF084FAD2E690F82E1001F0FD0180F89E
:1025D0002E10DBF80000B0F8501100295AD030213D
:1025E00000224FF0000808F021FADBF8000008F0A4
:1025F000FBF9D8B3DBF8000090F82D00012835D1A5
:10260000DBF80000416A29B1D0F8B0110029F7D0F9
:102610008847F5E7D0F810A0D0F81890D14508BF4A
:10262000D0F814A008F050F9DBF80010B1F85021F0
:10263000E2B105460026302408E000BFDBF80010B8
:102640000136B1F85001083486420FD2881990F84B
:1026500030010028F2D1D1F858010B19076C494616
:102660002A46CDE900A50293B847E7E7DBF800006A
:10267000002130304FF4807213F066F9DBF800006F
:10268000002100F59870202213F05EF9DBF80000BD
:10269000A0F8508100F048F800F00AF8DBF80000DC
:1026A0003321002208F0C2F90BB0BDE8F08F000022
:1026B000B0B540F244750024C2F200052859002844
:1026C00018BF10F011F9281900211C2213F03CF951
:1026D0001C34702C08BFB0BDF0E7000040F61C2190
:1026E000C2F20001096804E00A7E42F001020A76A3
:1026F0004969002908BF70474A688242F4D00A68D5
:102700008242F5D1F0E70000406940F61C21C2F298
:10271000000108607047000040F61C21C2F2000171
:102720000A680860426170477047000040F6400048
:10273000C2F20000042100F095B9000040F65000FC
:10274000C2F20000202100F08DB900002DE9F04F09
:1027500085B00E9E1D46002B834608BFB6F5807FD0
:102760006FD0DDF83C8000230139013A019301A8C4
:10277000ADF80810CDF80A30ADF80E20ADF8101005
:10278000ADF81220294632464346071D00F10809DC
:1027900000F10C0A18F006F938462946324643463D
:1027A00018F000F9484629463246434618F0FAF830
:1027B000504629463246434618F0F4F8BDF9042045
:1027C000BDF90830BDF90C60BDF910509A421F46A2
:1027D000BDF90610BDF90A00B8BF1746AE422C4637
:1027E000B8BF3446A742B8BF3C469A42ABF8004057
:1027F000C8BF1346AE42C8BF3546AB42C8BF1D4630
:10280000BDF90E30BDF9127081420246ABF804509A
:10281000B8BF0A46BB423E46B8BF1E46B242B8BF2A
:1028200016468142ABF80260C8BF0846BB42C8BF2B
:102830001F46B842C8BF0746ABF8067005B0BDE8F2
:10284000F08F0020CBF80000481EABF80400501EAB
:10285000ABF8060005B0BDE8F08F000010B584B0FD
:1028600001AC204610F0F8FD42F6A500C0F60000CD
:10287000019043F26940C0F60100029043F23D40EE
:10288000C0F601000390204610F0DAFD04B010BD40
:1028900040F63823C2F200031B680BB189B2184717
:1028A000FEE70000F0B581B016460C46074618F06A
:1028B000F1FFA2B240F65C04C2F2000405462046D5
:1028C0003946334610F030FF68B1A06A00216163D9
:1028D00018B9284618F0CAFFA062A06A002804BFF1
:1028E0000120A06208E020460021382213F02CF8D5
:1028F0004FF0004060630024204601B0F0BD0000AE
:1029000010B540F69404C2F200042046142100F0F1
:10291000A9F8204600F0AEF8A0B100211422044628
:1029200013F012F843F2255043F2ED51C0F60100C6
:10293000C0F60101C4E9000143F2ED40C0F6010018
:10294000E06010BDFEE70000F0B585B004460D461E
:1029500010B134B905B0F0BD07F092FF0446002C69
:10296000F8D0204608F046F80028F3D094F82E005E
:102970008007EFD4002035B30290204607F0A4FF73
:102980000138ADF80C00204608F016F80138ADF813
:102990000E00684602AA2946FFF73CFA0028D9D063
:1029A00094F82D00022812D1029803992063012087
:1029B000A4F85001D4F8A40161630028CAD019F02A
:1029C000D3F805B0F0BDA4F8500105B0F0BD6A46DB
:1029D00020462E2108F02AF80128BBD1B4F8500176
:1029E00088B104F1300500276E46304629460022A2
:1029F000FFF73EFA0028ADD1B4F850010137874205
:102A000005F10805F1D3202831BF68460020A4F85D
:102A100050010DF10800B4F850110368406804EB50
:102A2000C1025063D4F8A401013100281363A4F853
:102A3000501118BF19F098F805B0F0BD002814BF68
:102A400040680020704700000068084440687047F4
:102A50000068085870470000002814BF80680020F4
:102A6000704700000331002221F00301C0E9001289
:102A70008260704710B504460068083012F04CFEC2
:102A8000002808BF10BD216800224250626801443E
:102A90004A60616800291CBF22688850A168606094
:102AA000002908BFA06010BD10B5044600680830BA
:102AB00012F032FE002808BF10BD21680023421822
:102AC0005360A2684250A16811B122681144486065
:102AD0006168A060002908BF606010BD80B5002853
:102AE00008BF80BD42688A4213D0D0F800E08268F7
:102AF00051F80E308A4217D00EF1040C51F80C0038
:102B0000002B18BF43F80C00002818BF40F80E3007
:102B100080BD0268114449680029416007BF002157
:102B200081600020885080BD0021002B836018BF89
:102B30000EEB0300416080BD10B5044606E000BF07
:102B400020680068002808BF10BD206020688268E7
:102B5000002AF5D021469047F2E70000806800285F
:102B600014BF408B002000B270470000806800282E
:102B70000EBF0020407FC0F301107047F0B581B058
:102B80001446A8B1612206460F4615F0DBFA88B15B
:102B90000546006880B130463946622215F0D2FA07
:102BA00001060BD02B68A1B2C2B22846984706E0B6
:102BB000204604E0204602E0204600E02046C0EA2D
:102BC000040001B0F0BD00002DE9F04F93B00446C1
:102BD000408CDDF870B040F004006084228416461A
:102BE000BBF8082020461F468A4615F0ABFA27841A
:102BF000BBF8082005462046514615F0A3FA618C23
:102C0000814621F004004D45608405D104BF89EA66
:102C100005005FEA00407ED02684BBF808202046ED
:102C2000514615F08FFA804620465146278404F01D
:102C3000DDFD0068BBF80810424618F019FABBF831
:102C400008000B2828D147F6FF76B04518BFB145DC
:102C500022D1204615F054FC81B200EBD13000B2F5
:102C60004510204614F068FC81B200EBD13000B270
:102C7000B0454FEA600005D1691C00F101084145EB
:102C8000B8BF884647F6FF71894505D1691C00F138
:102C900001094945B8BF894640F6B000C2F20000BC
:102CA000FFF7E8FED0B3C0E9038904600546BBF82E
:102CB00008006C46A8802046C5F808A006F096F9E2
:102CC0004EF28D40C0F6010001904EF2B560C0F6A4
:102CD000010002904EF2F550C0F601000390002072
:102CE000CDE90800FF200A90BBF80000BBF80210F5
:102CF0000B904842DBF80C100C909DF842000791B5
:102D0000DBF8101000F0FE008DF842002046009520
:102D1000069106F0C9F913B0BDE8F08FFEE7000098
:102D200040F6B000C2F200001421FFF79BBE000085
:102D30002DE9F04F81B00446408C10F4FC7F00F088
:102D40001A816FEA01096FEA020B4FF0000AE846A8
:102D500000250AE00120002800F01081608C013578
:102D6000C0F3C500854280F00B81E06800EBC5012F
:102D700049688A01F2D489B211EA090201EA0B0119
:102D8000B1FA81F14FEA511118BF01224A40E1D155
:102D900050F8356010213046424617F097FF88BB47
:102DA00030461121424617F091FF58BB30461221A0
:102DB000424617F08BFF28BB30461321424617F0DE
:102DC00085FFF8B930461521424617F07FFFC8B994
:102DD00030461421424617F079FF98B930460A214F
:102DE000424617F073FF68B930466A21424617F031
:102DF0006DFF38B930466B21424617F067FF002857
:102E00005AD000BF0127002F60D1304668214246CA
:102E100017F05CFF002849D130466921424617F07F
:102E200055FF002842D130466D21424617F04EFF33
:102E3000E0BB30466C21424617F048FFB0BB30463D
:102E40003721424617F042FF80BB304638214246C8
:102E500017F03CFF50BB30463521424617F036FF95
:102E600020BB30464021424617F030FFF0B93046D3
:102E70004521424617F02AFFC0B93046412142465B
:102E800017F024FF90B930464221424617F01EFF4A
:102E900060B930464321424617F018FF30B930463A
:102EA0004921424617F012FF00285BD04FF0020A7A
:102EB000002F3FF44FAF0CE030460121424601277E
:102EC00017F004FF50B100BF002F9ED0002F3FF439
:102ED00041AF002000287FF441AF4FE0304604218D
:102EE000424617F0F3FE00287FF48CAF30460221F3
:102EF000424617F0EBFE00287FF484AF30460321F2
:102F0000424617F0E3FE00287FF47CAF30460521EF
:102F1000424617F0DBFE00287FF474AF30460621EE
:102F2000424617F0D3FE00287FF46CAF30463221C2
:102F3000424617F0CBFE00287FF464AF30466D2187
:102F4000424617F0C3FE00287FF45CAF30466C2188
:102F5000424617F0BBFE0746002818BF0127002F86
:102F6000B4D152E7BAF1000F08BF4FF0010A002FA9
:102F70003FF4F0AEADE74FF0000A01E04FF0030A76
:102F80005FFA8AF001B0BDE8F08F000040F6FC0067
:102F9000C2F200000068704770470000C0F30410E0
:102FA000072828BF072070474FF6FF71884204BFEB
:102FB0003F207047002804BF002070476F2805D8C5
:102FC0004EF67241C0F60101085C704740F6BC0144
:102FD000C2F20001096851B140F6C002C2F200021B
:102FE0007038126880B2824284BF085C704700204B
:102FF0007047000080B540F6C800C2F200001821FA
:10300000FFF730FD45F68030C2F20100012101706A
:1030100045F6C030C2F201000021016080BD000011
:103020002DE9F04140F20808C2F200081446D8F831
:1030300000200F4619461D4606469047386040B1AD
:103040002868D8F800203044002190472060BDE86F
:10305000F08100202060BDE8F08100002DE9F04FF4
:1030600091B01A9E0546002E1C461CBF00203080E1
:1030700035B300294FF0000000F098812B78002B29
:1030800000F094811B9810F0060F1DD00020012144
:1030900042F2014201E000BF01302B5C0D2BFBD856
:1030A00001FA03F71742F7D0002B18BF0130002EAA
:1030B00000F07C814FF6FF71318011B0BDE8F08FD8
:1030C000002011B0BDE8F08F0192002200F0010055
:1030D0004FF0000A4FF0000B0E920D9000950391F7
:1030E0000E9FCDF82CB0E85D8B46002800F0618182
:1030F00020B201280690C0F25C8140F20800C2F2C2
:10310000000005EB07090021026810910F91484665
:1031100010A99047064699F80000109900280F91D1
:103120000994049700F0E68000205946DDF82CB0A1
:1031300000224FF0FF330A90002700200C9040F24D
:103140000800C2F20000CDE9072302680C46484699
:103150000FA9059790470D99804629B90A98013023
:10316000029020464CE000BF0A9FDDF830B03046A8
:10317000A0F12301B1FA81F15FFA8AF30022490933
:10318000032B38BF01220A404FEAC30351464FF0D8
:10319000010418BF24FA03F1CBB2012B454603D139
:1031A000202808BF022104E024EA0A031A40012A69
:1031B0001AD1DDF840B08A4619F80B000F990028A3
:1031C000109100F0A58040F20800C2F200000268F1
:1031D00048460FA9904780460D9801370028284699
:1031E000C6D1781C029007E07A1CA8468A4606469B
:1031F00002920A97CDF830B0009D0398DDF82CB00C
:10320000314642460FF00CFB059F01B207440029EE
:103210000199C8BF0F4438B2069A411A91420C99DD
:10322000D8BF4FF0FF31089C64A3621C08BF0C4656
:10323000A6F10A0116294FF0010206D802FA01F19F
:103240000922C0F24002114240D101210A2905D0D1
:103250005A5C01319642F9D138E000BFB8F1000F55
:1032600010D0A8F59C4145F2A61291427BD34FF6AF
:103270000171A8EB01015E2975D328F03F01B1F57A
:10328000405F70D07EB126F03F01B1F5405F6AD05B
:10329000A6F59C4145F2A612914264D34FF6017106
:1032A000711A5D295FD9611C079A08BF0246DDE9E2
:1032B0000F0123460C9119F80110029C0029039973
:1032C000464610900A947FF43AAF2DE00C99079A85
:1032D00061EA04012346002908BF02460A9C0399BB
:1032E000581C23D124B10D2E3BD1B8F10A0F38D18F
:1032F000109B22E000205946DDF82CB04FF0FF3340
:103300000C904FF0000800240022581C0ED1E9E771
:103310002E46CDF830B0A846009D0399DDF82CB0BC
:10332000DDE907237C1C00BF581CDBD00498002873
:103330004FF000001CBF024603469344F3B10E98C1
:103340002F7818440A2F0E9018D00D2F16D02B5C12
:10335000099C0D2B10D00A2BA4EB02047FF4C0AE05
:103360000AE00C9BE9E7109923460C91DDE9024144
:103370000246581CDAD1B5E701300E901A9C0E981F
:1033800078B940F20800C2F2000002680E460EA9A9
:10339000284690472CB10146304600220FF040FAF3
:1033A0008346002C18BFA4F800B00E9811B0BDE8F9
:1033B000F08F1A9C5946DDF82CB0E0E7202C2E3B0C
:1033C0003A2D5F295D7D000023290BD10278022A66
:1033D00008D8D3004FF0010C2CFA03F32CEA0202B8
:1033E000037000E000220378012B06D120291CBFC6
:1033F0000120704702210122017010467047000031
:1034000070B582B004460B46CDE9001100200021C2
:10341000224619F03BF8451C284612F07DF948B1C8
:10342000019B29462246064619F030F8304602B084
:1034300070BD00BFFEE700002DE9F04702B3DDF8E4
:1034400020909A4614460F46804606E064F001003C
:103450003044441C05EB0A0774B1660806FB0A7584
:1034600040462946C8470128F0DAB0F1FF3F34460C
:10347000F2DD2846BDE8F08700252846BDE8F08744
:103480000020BDE8F08700002DE9F04F97B00D4611
:10349000209943F619681C461746C0F600084FF0FD
:1034A000000A0E91002D18BF80460026A05D0AEB91
:1034B000060B002800F0C183252805D029465A466E
:1034C0003B46C0470136F1E7A0190B95451C4FF06C
:1034D00000090D9704E000BF01350020002821D12C
:1034E0002878A0F1200110294FF00100F6D8DFE87C
:1034F00001F00D0C0C090C0C0C0C0C0C0C100C132A
:103500000C0C160049F01009E6E7E7E749F0080956
:10351000E2E749F00409DFE749F00209DCE749F096
:103520000109D9E72878CDF83080A0F130010929C8
:1035300012D8681E4FF0000810F8011F08EB88022F
:10354000437801EB4201A3F130020A2AA1F13008CD
:10355000F2D3451C13E000BF2A280ED10E99013585
:1035600051F8040B002880460E9148BFC0F10008B6
:10357000002848BF49F0020901E04FF00008287810
:103580002E281BD1284610F8011F49F48069A1F1AB
:103590003002092A23D8681E002700BF827807EB73
:1035A0008701C37802EB4101A1F13007A3F130019B
:1035B0000A2900F10100F1D3851C00E000272878DA
:1035C00068384FEA7000092821D8DFE800F0131DA1
:1035D000812020200520200549F4807916E02A2941
:1035E00040F089800E99023551F8040B20EAE0770B
:1035F0000E91E4E7284610F8011F682940F07E800C
:1036000049F0C009023502E049F400790135287813
:10361000A0F12501532900F2C3801024DFE811F046
:10362000BB00C000C000C000C000C000C000C0009F
:10363000C000C000C000C000C000C000C000C0008A
:10364000C000C000C000C000C000C000C000C0007A
:10365000C000C000C000C000C000C000C000C0006A
:10366000C000C000C000C000C000C000C000C0005A
:10367000C000C000C0006100C000C000C000C000A9
:10368000C000C000C000CE00C000C000C000C0002C
:10369000C000C000C000C000C000CC009A015400AF
:1036A000C000C000C000C0005400C000C000C00086
:1036B000C000C00076006100C000C0007800C000FB
:1036C0005400C000C000CE0029F010090A2475E0A3
:1036D000284610F8011F6C2914D149F440790235AD
:1036E00095E7284610F8011F49F48879562908BF44
:1036F0000546102462E00027054660E749F080098E
:10370000054684E749F48079054680E7082455E0BA
:103710000E98002650F804AB0E909AF8000000288E
:1037200050460FD03846002F08BF4FF0FF304142BF
:10373000504600BF10F8013F013146F100020BB1C5
:10374000002AF7D0A0EB0A0009F48066B842394697
:1037500038BF0146002E08BF014619F00200CDE92E
:10376000095040F01282414580F00E820797DDE952
:103770000B590D9F08F10100A8EB0104089000BF50
:103780005A46202029463B460BF1010BC847013C15
:10379000F6D1079FFAE109950BF1010A252002E015
:1037A0000BF1010A09950B9D0D9FDDF8308029462C
:1037B0005A463B46C047E3E1022400BF287840F068
:1037C0000801582908BF49F02009642803D0692856
:1037D00018BF29F00C095FEA495148BF29F00109D7
:1037E0005628099517D0692801D064282DD15FEAA1
:1037F00089503ED45FEAC95050D45FEA496000F175
:10380000C780DDF838E05FEA0960DEF800C048BF35
:103810000FFA8CFCC0E00E990B9D51F8040B0D9F24
:103820000E914168DDF830800C6805EB0A010F94B9
:10383000A7EB0A0203683144921B40460094FFF74D
:1038400023FE504400EB060A9AE15FEA895038D41F
:103850005FEAC95000F1AD805FEA496000F1308154
:10386000DDF838C05FEA0960DCF8006048BFB6B236
:103870002AE10E98073020F007000246436852F80C
:10388000080B50EA030108BF29F010090E920893B3
:1038900071BB19F480612BD0002255E0DDF838E0CF
:1038A0005EF804CBBCF1000F08BF29F01009BCF191
:1038B000000F40F08F8019F4806000F08B800026AC
:1038C000F0E00E98073020F007000146456851F8F7
:1038D000086B56EA050008BF29F0100900280E9170
:1038E00040F0998019F4806000F09580002211E189
:1038F00080EAE370B0EBE37509F0200083EAE3713E
:1039000080F0610061EBE376F6304FF0000A0A9038
:103910002846314622460023FCF7C4FC00FB145223
:103920000A9B0A2A38BF30232D1B76F10006134468
:103930000AF101020FAE06F80A3005D3BAF11F0FE3
:10394000924605460E46E3D308980FA9C00FCDE96D
:10395000001205E119F00204099540F0AB80DDF892
:1039600038A0B8F1020FC0F041810BAFE0CF0A944C
:1039700008F10109C8F100045A46202029463B46B7
:103980000BF1010BB0470134601CF5D10A9C30E10A
:10399000DDF838E09EF800C0BCF1000F08BF29F048
:1039A0001009BCF1000F5CD119F4806059D00026D9
:1039B00076E0DDF838C05CF8046B002E08BF29F013
:1039C0001009002E40F08A8019F4806000F0868093
:1039D00000229DE009F0200181F06101604601F1C3
:1039E000F6050023BCF1000F48BFCCF1000000BF7A
:1039F000B0FBF4F12A4601FB14060A2E38BF302230
:103A000032445E1CA0420FA8C2544BD31F2B334636
:103A10000846EDD346E009F0200080F06100F63062
:103A20004FF0000A0A9000BF304629462246002384
:103A3000FCF738FC00FB14620A9B0A2A38BF3023CB
:103A4000361B75F1000613440AF101020FAE06F8A9
:103A50000A305FD3BAF11F0F924606460D46E3D3F4
:103A600058E009F0200181F06101604601F1F6059E
:103A70000022BCF1000F48BFCCF10000B0FBF4F114
:103A80002B4601FB14060A2E38BF30233344561C44
:103A9000A0420FA8835403D31F2A32460846EDD311
:103AA0000EF1040E0FA9CDF838E04FEADC70CDE935
:103AB000001655E00B9DDDF838A04FF0010998E0A5
:103AC000DDF838C09CF80060002E08BF29F010090E
:103AD00026BB19F4806021D0002139E009F02000D4
:103AE00080F0610000F1F605002300BFB6FBF4F0A2
:103AF000294600FB14620A2A38BF302111445A1C9F
:103B0000A6420FAEF15403D31F2B13460646EDD346
:103B1000CDF838C00FA8CDE9000220E009F0200060
:103B200080F0610000F1F605002300BFB6FBF4F061
:103B30002A4600FB14610A2938BF30220A44591C66
:103B4000A6420FAEF25403D31F2B0B460646EDD30D
:103B50000CF1040C0FA8CDF838C0CDE9000100200D
:103B600002A981E89101DDF830800B9D0D9F404650
:103B700029465A463B46CDF8189000F06BF882462D
:103B80000998441CFFF791BC013108919AF8000094
:103B9000A8B10AF101090DE03C460B99DDE90C736F
:103BA000C0B25A460BF1010AB84719F8010BD346C7
:103BB000274628B1002EEFD00FB17C1EEDE7DA4684
:103BC0000A9898B308980B9D0D9F404532D2A8EBF8
:103BD0000004DDF8308000BF5246202029463B46D5
:103BE0000AF1010AC047013CF6D1C9E70B9D4FF02D
:103BF00002091AF8040BDDE90C7329465A46CDF880
:103C000038A00BF1010AB8478CB1C1450FD2A8EB1F
:103C10000904DDE90C8700BF5246202029463B46B7
:103C20000AF1010AC047013CF6D1A9E70B9DDDE985
:103C30000C87A5E7DDF83080A2E75A460020294628
:103C40003B46BB4528BF7A1EC047584617B0BDE863
:103C5000F08F00002DE9F04F83B0129D1E46814683
:103C6000DDE910700E9BDDE90C4B8A4615F0020170
:103C700090460091CDE901203BD148B1E80709D039
:103C800015F00C0018BF012011991843081A00E024
:103C900000200290BB4517D2BBF11F0F14D86FEA6A
:103CA0000B013944CBF11F02914238BF0A4602F1A1
:103CB000010804EB0B0041463022FCF76BFB0C9C27
:103CC0000E9BC344DDF80480E80712D002988345B8
:103CD0000FD2BBF11F0F0CD8029A30210BF101005B
:103CE000904204F80B1003D2BBF11F0F8346F5D3AB
:103CF0008346E80638D50F98690507D4BBF1000F55
:103D000004D0BB4512D002998B450FD0102819D191
:103D100015F0200104D1BBF1200F01D2782017E06B
:103D200081B1BBF1200F0DD2582011E0BBF1010190
:103D30000A4618BFABF10202102818BF0A46934684
:103D40001028E5D0022807D1BBF11F0F04D862204C
:103D500004F80B000BF1010BBBF11F0F9EBF3020CD
:103D600004F80B000BF1010BBBF11F0F0DD80BB1C9
:103D70002D2006E0680703D4280706D5202000E0A0
:103D80002B2004F80B000BF1010BA80744460FD1C0
:103D90000298444683450BD202984246A0EB0B079B
:103DA000202051463346541CC847013F2246F7D1D4
:103DB000BBF1000F10D00C98A0F1010818F80B000F
:103DC000514622463346ABF10105671CC847002D1A
:103DD0003C46AB46F2D100E02746009898B10199E5
:103DE000DDF80880781A40450BD24D42202051461C
:103DF0003A4633467C1CC847281940452746F5D328
:103E000002E03C4600E03C46204603B0BDE8F08FAF
:103E10009A4238BF88547047704700002DE9F04F30
:103E200081B040F6DC08C2F2000898F8000080F08B
:103E3000010088F8000040F23470C2F20000FEF782
:103E4000FDFD002800F0B68040F6D40740F234743F
:103E500040F2407B0546C2F200074FF00009C2F273
:103E600000044FF6FF7AC2F2000B07E02046294615
:103E7000FEF7EAFD0546002800F09C80686C17F00C
:103E8000F5FC064617F006FD686495F8480098F8BA
:103E90000010C0F340028A4287F8009000F0828050
:103EA00000F0FD0242EA4101400785F848101CD4A9
:103EB000286B002819DC801917D495F84200C00738
:103EC00009D1696939B128468847296AAA6A014433
:103ED00010442962A862A96809B12846884795F864
:103EE000480040F0040085F84800286B80192863DA
:103EF00058D4E96A8842C8BF2963E96928468847D7
:103F00006A6A904205D06A68014668620AB1286808
:103F10009047D5E90B01814244DB95F8481011F038
:103F2000010207D1B5F8403023B153451CBF013B16
:103F3000A5F84030B5F8403013B9AB6BA3B19AB9CE
:103F4000D5E90E3676422E6363B312B96A6B5242DC
:103F50002A6381F0010185F84810A96A2A6A29625A
:103F6000C5E90A23A8631DE020462946FEF7B6FDF1
:103F7000012038702046FEF761FD0146DBF80000A5
:103F800011B117F0F1FD01E017F0DEFDE96809B1AC
:103F900028468847296909B12846884728460EF0EF
:103FA000A3FC00BF387801287FF460AF2046FEF7FD
:103FB00045FD5FE701B0BDE8F08F0000B0B50446F5
:103FC00040680D4610B12946FFF7F8FF2268002A25
:103FD00008BFB0BD20462946BDE8B04010470000EC
:103FE00070B50E680C463168054639B1B07EC00622
:103FF00004D5216028462146FFF7F2FF28462146D6
:104000002660BDE87040FFF7D9BF000089B205F017
:10401000F1BB00002DE9F04F93B045F69C3846F611
:10402000507B0824C2F20108C0F6030BEA46A4E064
:1040300081B200EBD13000B2411006294FF00601E9
:10404000C8BF4110D8F800304FF00602B8BF421088
:104050005BF82300891AB0FBF1F505FB1100591C30
:1040600010443F2988BF0021C8F800100FFA89F1D9
:1040700002B2384616F0FEF945F6AC313846C2F2C7
:1040800001014FF4003211F0F1FCD8F8000040F2C9
:1040900001135BF82010C1F200030A09A2FB0323FD
:1040A0001A0C1205A2EB13420130A1EB02113F28BA
:1040B00088BF00204FF4FC624FF6FF79C8F800007B
:1040C0004FF4784002EA511226EA090300EA11206F
:1040D0001A44C1F3C40110444618384631464FF41F
:1040E000003216F06BFB3846002105F0EDFBD8F8E6
:1040F000000048F21F525BF82010C5F2EB12A1FB42
:1041000002239A09C823013002FB13113F2888BFFC
:104110000020C8F80000504601F1320504F066FFA7
:10412000D8F800004DF249625BF82010CFF2B922B6
:10413000A1FB02231A0A4FF4877302FB131144F206
:104140000D02C0F600020130009701923F2888BF9F
:104150000020C8F8000040F267101E31CDE90A05C2
:104160005046CDE908110E95ADF8409004F09CFF43
:10417000384602F039FA013C3ED045F6A030C2F292
:104180000100006805F01CF8074615F0EBFE06F08C
:1041900077FB06F099FB20F001010C2902D14FF0CA
:1041A00006091EE081B200EBD13000B241100629B1
:1041B0004FF00601C8BF4110D8F800304FF006029A
:1041C000B8BF42105BF82300891AB0FBF1F505FB7C
:1041D000110000EB0209581C3F2888BF0020C8F8D6
:1041E000000006F04DFB06F06FFB20F001010C29EA
:1041F0007FF41EAF062039E713B0BDE8F08F000052
:1042000010B545F6AC34C2F20104204616F0EEFEBD
:1042100020460D2116F004FF40F22400C2F20000F7
:1042200000787F210028204608BFFF2116F0F4FE09
:10423000BDE81040FFF7EEBE10B545F6AC34C2F253
:104240000104204616F0D2FE2046022116F0E8FEB8
:1042500040F22400C2F2000000787F2100282046AE
:1042600008BFFF2116F0D8FEBDE81040FFF7D2BE10
:1042700080B50EF0B3F82F2818BF80BD17F00AFBE9
:1042800045F69831C2F20101086080BD2DE9F04386
:1042900081B006F0F5FA44F27121C0F60001002267
:1042A000002304464FF0000806F00CFA45F6883269
:1042B000206A40F62821C2F20102C2F200011278FF
:1042C000086046F2A930022AC0F60000206216D12A
:1042D000D4F8A40140B1016840F6F802C2F200022D
:1042E0001160022117F04CFC04F07AFE016840F6E0
:1042F000D802C2F200021160022117F041FC06F060
:10430000BFFA06F031FB044615F02CFE2046FF21D3
:10431000002216F05FFA204610F050F945F6C43638
:10432000C2F2010604210422306016F063F847F25D
:1043300041453068C0F60305294610F0D3FF2046FA
:1043400010F03CF945F6B4393168C2F201090D228A
:104350000023C9F80000CDF8008011F011FCD9F855
:104360000000294610F0BEFF204612F09BFA45F6E9
:10437000A037C2F20107386015F0F4FD3D68204611
:1043800014F0BEF80646204613F0D6F8D9F800100F
:10439000498B401A043802B22846314616F06AF8B2
:1043A000386805210022002311F0DCFB45F6AC3013
:1043B000C2F2010016F010FD204601B0BDE8F04346
:1043C00016F0C8BAB0B5B9B180290A4609D3B1FA16
:1043D00081F2C2F11A024FF0FF3303FA02F2D24324
:1043E0000A447F2A0CD8D31702EB93724FEAA20C2F
:1043F0000024092C0FDD3AE000244FF0000C36E0D9
:10440000B2FA82F3C3F11A04E24082F0200CC3F145
:104410001904092C2BDC00EB840252694FF0FF3E9B
:104420000EFA0CF31A400CD052B192FAA2F2B2FA80
:1044300082FC00EBC41202EB8C02D26BCAB93BE0E7
:10444000FEE70269631C0EFA03F312EA030E0AD0B8
:104450009EFAAEF2B2FA82F400EB84025269BEF127
:10446000000FE1D103E00022BEF1000FDCD10022F9
:1044700012B3536823F003038B4200D2FEE7D368E4
:10448000E3B19168E1B1CB60996000EBC41303EB39
:104490008C0E5EF83C3F93420ED18142CEF8001064
:1044A0000AD100EB84034FF0010E5D690EFA0CF1A6
:1044B00025EA0101596121B11046B0BDFEE700BFF8
:1044C000FEE701690EFA04F3994301611046B0BD9D
:1044D000F0B54A68032A09D922F003030E1D9B197F
:1044E00006D05D68EC0704D10846F0BDFEE700BFCA
:1044F000FEE7032A0CD925F003027F2A09D8D51735
:1045000002EB95724FEAA20E4FF0000C0AE000BFDA
:10451000FEE7B2FA82F5C5F11A04E24082F0200EFD
:10452000C5F1190CDD686DB39A686AB300EBCC1461
:10453000D560AA6004EB8E0555F83C4F9C4211D122
:1045400082422A600ED100EB8C040127656907FACC
:104550000EF225EA0202626122B9026907FA0CF73B
:10456000BA4302614868032810D95A6822F003024E
:1045700010440430032848600AD920F00300815118
:104580000846F0BDFEE700BFFEE700BFFEE700BF44
:10459000FEE70000B0B531B122B14B68DC0704D1B1
:1045A000FEE700BFFEE70020B0BD23F0030402F1E8
:1045B00010039C4211D2486803280DD920F0030251
:1045C00001F10800835823F0020383504A6822F067
:1045D00001024A60B0BD00BFFEE701F1040C0CEB24
:1045E000020303F10B0503F1080E25F00305AE45A8
:1045F00001D000BFFEE75D68A41A043C05F0030586
:1046000025430B2C5D602DD94C6804F00304224334
:104610004A605A68032A27D922F003055EF805206C
:1046200042F002024EF805205A68754442F0010437
:104630005C604C6845F8043C032C17D924F0030552
:1046400045F80C1042F0030522F003027F2A5D605A
:104650000DD8D51702EB95724FEAA20C4FF0000E61
:104660000EE000BFFEE700BFFEE700BFFEE7B2FAC4
:1046700082F5C5F11A04E24082F0200CC5F1190E52
:1046800000EBCE1202EB8C0454F83C2F92B19BB19C
:10469000C3E90220D36023600122036902FA0EF409
:1046A0002343036100EB8E00436902FA0CF21A43C4
:1046B000426180E7FEE700BFFEE7000010B545F667
:1046C000AC34C2F20104204616F090FC20460321CF
:1046D00016F0BAFC40F22400C2F2000000787F21FC
:1046E0000028204608BFFF2116F0A6FCBDE81040B8
:1046F00018F0A0B810B545F6AC34C2F2010420465B
:1047000016F074FC204647F6FF7116F031FD204686
:10471000032116F099FC40F22400C2F20000007858
:104720007F210028204608BFFF2116F085FCBDE848
:10473000104018F07FB8000010B545F6AC34C2F256
:104740000104204616F052FC2046082116F010FD08
:104750002046032116F078FC40F22400C2F200004B
:1047600000787F210028204608BFFF2116F064FC56
:104770002046042116F064FCBDE8104018F05AB839
:1047800010B545F6AC34C2F20104204616F02EFCFA
:104790002046082116F0ECFC2046032116F054FCBC
:1047A00040F22400C2F2000000787F210028204659
:1047B00008BFFF2116F040FC20460C2116F040FCFB
:1047C000BDE8104018F036B810B545F6AC34C2F26A
:1047D0000104204616F00AFC2046082116F0C8FC09
:1047E0002046032116F030FC40F22400C2F2000003
:1047F00000787F210028204608BFFF2116F01CFC0E
:10480000BDE8104018F016B810B545F6AC34C2F249
:104810000104204616F0EAFB2046082116F0A8FC09
:104820002046032116F010FC40F22400C2F20000E2
:1048300000787F210028204608BFFF2116F0FCFBEE
:104840002046032116F0FCFBBDE8104017F0F2BF34
:1048500010B545F6AC34C2F20104204616F0C6FB92
:104860002046082116F084FC2046032116F0ECFBBC
:1048700040F22400C2F2000000787F210028204688
:1048800008BFFF2116F0D8FB2046022116F0D8FB06
:10489000BDE8104017F0CEBF10B545F6AC34C2F2FB
:1048A0000104204616F0A2FB2046082116F060FC09
:1048B0002046032116F0C8FB40F22400C2F200009B
:1048C00000787F210028204608BFFF2116F0B4FBA6
:1048D0002046062116F0B4FBBDE8104017F0AABF31
:1048E0002DE9F04F91B0934688460E90C87849F66E
:1048F000512149F65D22C0F60001C0F600020D9379
:1049000010F0010008BF0A4649F6F511079249F672
:10491000CD12C0F60001C0F600020B4608BF1346D8
:104920000C93002808BF0A4648F22111C0F6010185
:104930000A9248F239120B46C0F6010208BF13462C
:10494000002848F22D10DDF8789048F2151AC0F6CC
:1049500001000B93C0F6010A08BF0A4601460992FE
:1049600008BF5146089108BF824604E04FF0000C92
:104970005FEACC7057D0B9F80200D9F81020B9F826
:104980000410A0EB010E9AB1D9F80C1001F1080344
:10499000002106E01F88AEEB070E013A03F1140375
:1049A00007D01F7AFF07F5D19F883944F5E700BF8C
:1049B0000021D9F81020002AD8D0002200274FF07B
:1049C000000C27E00DB20FFA8EF393FBF5F3E568C8
:1049D000B4F904006B43B4F906501BB2AB42B8BF44
:1049E0001D468542D8BF05469D421EBF46F00100C8
:1049F00020744FF0010CD9F80C00AEEB050E1044FA
:104A000083890581C91AD9F810000137874202F15C
:104A10001402ADD2D9F80C60B418267CF507F2D197
:104A20000D04CFD1FEE70E980021162213F08AFB69
:104A3000D9F8081098F800600AB2F71EFFB2022AEF
:104A40003346B8BF0223032F4FF0FF3728BF33464A
:104A500057FA83F7042F09D8B9F80230DFE807F0D6
:104A60000308111D29001C99C91A07E0002105E05F
:104A70001C9A19B2511A01EBD17149100691002507
:104A800024E01C9AD21A4FF4803303EB014112B296
:104A9000091492FBF1F5069518E01C99C91A09B2A0
:104AA00091FBF2F291B202EBD13109B249101546F5
:104AB0000BE01C9AD21A0023CFF6FF7303EB0141DF
:104AC00012B2091492FBF1F50021069198F8031037
:104AD0000E9CC907C6B207D0012E05D1204612F0A0
:104AE000A1FC0699014406912046594612F0D6FBD6
:104AF000002800F08B8107460D98834500F08681E1
:104B00001D9801242844C0F206040490384621462A
:104B100013F018FDC8B198F80300400708D40E98A8
:104B20000BF1010B806841688B4507DB68E100BF32
:104B30000E98BBF1010BC0F263818068006850F8E9
:104B40002B70002F40F05E8160E140F21870C2F2DD
:104B5000000002883846002113F0F4FA00060FD056
:104B6000D9F8100050B1D9F80C10083151F8082CC0
:104B7000BA420AD0013801F11401F7D1002405E04E
:104B8000788C20F4C06078842FE00C8898F80310AB
:104B9000788CC9074FF4806120F4C06008BF4FF4DF
:104BA0000071084407F114050C9978842846884759
:104BB00080B2844219D0384613F098FF7869B969F9
:104BC000079ACDE90F0121B22846904738462A219D
:104BD0000FAA15F0B1FB384612F0EAFC23213A4641
:104BE00015F0AAFB384613F081FF98F80100012860
:104BF0001CD0022827D1B9F900000A99013020F011
:104C0000010407F114008847201A099A00EBD074B8
:104C1000384600219047054638460021D047281ADB
:104C200000EBD070401000EB640010E00A99B9F876
:104C3000004007F114008847054638460021D04758
:104C40002844201A03E0099A38460021904798F832
:104C50000310069CC907039009D0012E07D10C99B7
:104C600007F1140035468847241A069401E006949B
:104C70003546384600216A2213F064FA0646384663
:104C800000216B2213F05EFA0446384613F038FC1C
:104C90000590384612F050FC06F4C041B1F5005FB3
:104CA00015D131B221F4C041B1F5FA6F0FDCB1F585
:104CB0007A7FC8BFC1F57A71059A514348F21F52F5
:104CC000C5F2EB1251FB02F14A1102EBD17604F46A
:104CD000C0412346B1F5005F059514D119B221F406
:104CE000C041B1F5FA6F0EDCB1F57A7FC8BFC1F5EE
:104CF0007A71484348F21F51C5F2EB1150FB01F0A5
:104D0000411101EBD073394631F8140F039C019027
:104D100098F8030000914988C0072546029109D000
:104D20000B9A3846002134461E4690470699334672
:104D30002646441898F80300C00709D10B9A384654
:104D4000002135461E469047069933462E464518A3
:104D50001A9801993044401A04441B980299184447
:104D6000401A054444EA0500000417D0384613F001
:104D7000BDFEB88A398B2044B8820819F98A388375
:104D80004819798BF88248197883384613F0AEFEBB
:104D900021B22AB23846002313F04AFF98F80300E4
:104DA000C00707D00598012804D104980699091A6C
:104DB000069113E000980C9988470B9A04463846F0
:104DC00000219047089A05463846002190470699E9
:104DD000049A1144214429440844069098F8030099
:104DE0000E990124059EC0F20604400703D488688A
:104DF0000BF1010B97E6BBF1010B01DB88689DE627
:104E000000271FB10D9883457FF480AE11B0BDE837
:104E1000F08F0000B0B5022A40D9C1F3C42CC0F312
:104E2000C42363444FF6000CCFF6FF7C1F2B38BF22
:104E30004FEAC32C00F01F0EC1F34513C0F3451019
:104E400003444FF4FC643F2B38BF04EA431401F0E1
:104E50001F0373441F201F2B38BF03F01F00604443
:104E60004FF4FC65FF2A00EB040319D0101D4FF628
:104E70001F0201EA020401F4FC6144EA014103EA71
:104E8000020403F4FC63641AC00804EB03435843B0
:104E900001EB501005EA1041104001440846B0BD36
:104EA0001846B0BD022A3BD980B5C0F3C42CC1F36B
:104EB000C42303FB0CFC00F01F0E01F01F0303FBD7
:104EC0000EFEC0F34510C1F3451358436FF01F03A6
:104ED00003EA50002CF01F039B0143EA5E131844C1
:104EE000FF2ABDE8804008BF70474FF61F0C01EA5B
:104EF0000C0301F4FC6143EA014120F4FC63043239
:104F000000F4FC605B1AD20803EB0040504301EB55
:104F100050104FF4FC6101EA104100EA0C0001441A
:104F200008467047022A3ED980B5C1F3C42CC0F3AD
:104F3000C423ACEB030300F01F0CC1F3451EC0F308
:104F4000451023EAE373AEEB0000DB0220EAE070D9
:104F500060F34A1301F01F00A0EB0C0020EAE070A0
:104F600000F01F001844FF2ABDE8804008BF7047CA
:104F70004FF61F0C01EA0C0301F4FC6143EA014106
:104F800000EA0C03043200F4FC605B1AD20803EB65
:104F90000040504301EB50104FF4FC6101EA104116
:104FA00000EA0C00014408467047000041F2040189
:104FB000C4F202010A6800F00F0022F0F00242EA97
:104FC000001008607047000041F20401C4F20201C1
:104FD0000A6800F0070022F4E06242EA002008605C
:104FE0007047000041F20401C4F202010A6800F0B7
:104FF000070022F4605242EAC020086070470000B7
:1050000041F25401C4F202010A68012822F0300280
:1050100008BF30320A607047042888BF7047DFE855
:1050200000F0030C19262F0041F20000C4F2020028
:10503000026861F300020260704741F20000C4F2AE
:105040000200026801F0010122F4803242EA0141CB
:105050000160704741F20000C4F20200026801F0F2
:10506000010122F0807242EA01610160704741F261
:105070000000C4F20200026A61F30002026270479B
:1050800041F20000C4F20200426A61F3000242628F
:1050900070470000B0B541F20401C4F202010A6891
:1050A000C2F3810341F20022022BC0F27A020BD03C
:1050B000A3BB0B6D9B0531D5CB6A9B0144BF46F664
:1050C0000042C0F2DC2229E0D1F800C0D1F800E0B3
:1050D0000C68CEF3834EC4F3417423010133BEF157
:1050E0000F0F1D4618BF0225002C18BF1D465FEA92
:1050F000CC3305EB0E0305D440F60012C0F23D029E
:105100005A430BE00D68AD0301D45A4306E00D6D20
:10511000C5F301350235B2FBF5F25A4302600A6865
:1051200013A3C2F303129A5C03684EF6405523FAA8
:1051300002F242600B68C0F60105C3F30223EB5C88
:1051400022FA03F3C3600B68C3F3C223EB5C0425AC
:10515000DA4082600B68096805EA9363C1F3813124
:10516000194407A3595CB2FBF1F10161B0BD00BF66
:105170000000000000000000010203040607080907
:1051800002040608020C081041F20002010CC4F2ED
:105190000202895800F01F0021FA00F000F001001F
:1051A0007047000041F25401C4F202010A6800F0A5
:1051B000030022F4405242EA0030086070470000C9
:1051C00041F200010020C4F2020100BF0A6892030C
:1051D00004D4B0F5405F00F10100F7D30868C0F3D4
:1051E0004040704741F2000200F01F034FF0010CF5
:1051F000C4F2020201290CFA03F14FEA104083586D
:1052000014BF23EA010119438150704780B541F270
:10521000040EC4F2020EDEF800C060B14CF480331C
:10522000CEF80030DEF800C0012814BF4CF4003086
:105230002CF4003001E02CF48030CEF80000DEF8D1
:10524000000061F39540CEF80000DEF80000090987
:1052500061F35E70CEF80000DEF8000020F0004040
:1052600040EAC270CEF8000080BD000041F20000AC
:10527000C4F20200016841F0010101600168890780
:10528000FCD5416821F00301416000BF416811F085
:105290000C0FFBD10021416002684FF6FF73CFF67F
:1052A000F2631A40026001634FF41F01816070478E
:1052B00041F20401C4F202010A6860F301020A60CB
:1052C0007047000041F20400C4F202000068C0F31D
:1052D0008100704780B5042019F09CF840F2A86066
:1052E000C2F2000000684DF68361C4F21B31A0FBDE
:1052F0000101880C40F62421C2F200010860086810
:105300004FF47A71484340F62021C2F20001086050
:1053100080BD000080B5002808BF80BD4EF210019E
:1053200040F6202ECEF20001C2F2000E4FF0320CF9
:10533000002300BF82B2332A06D3DEF800203238C1
:1053400002FB0CF24A6004E0DEF8000050434860C3
:1053500000208B600A6842F001020A600A6802F0CD
:105360000112012AFAD00A6822F001020A6002043E
:105370008B60DFD180BD0000F0B581B040F2180035
:10538000C2F20000007838B314468A88088813B245
:1053900005B25F1BCB8849881DB20EB2AE1B751CCF
:1053A000FBF72AF940F60040C4F20100042102F0A4
:1053B0007FFA022000EB4700454320462946FBF7D1
:1053C000B9F843F20C01AAB2C4F20101204601B0BF
:1053D000BDE8F040FBF7DCB801B0F0BD026861F356
:1053E00000020260704700000421B0F1805FC4F247
:1053F000020192BF086020F07040C1F800047047BD
:105400000021C4F20201B0F1805F88BF01F5806124
:105410000968084018BF01207047000002684BF679
:10542000EF731A4002600A8903681A4302604A7CDB
:10543000036802F0030223F4405343EA023202609D
:10544000CA7B036802F0030223F4406343EA82222A
:1054500002608A7B036802F0030223F4407343EA8C
:10546000022202604A7B036802F0010223F08003FB
:1054700043EAC21202600A7B036862F38613036088
:105480000A7C036862F3451303604A8942600A6834
:1054900082604968C1607047002A02680CBF22EA36
:1054A0000101114301607047016821F001010160B1
:1054B0000021016041608160C16040F2FF4100EA6B
:1054C00001020421B2F5816FC4F2020105D3D208B2
:1054D000902A88BF704701F5806100F0FC004CF60F
:1054E000CD420838CCF6CC42A0FB02026FF003009C
:1054F00000EA92000F220B6802FA00F018430860DD
:10550000704700002DE9F04FA7B0329FDDE930BAB7
:105510000446084699461546884606F0E5FC5BEACF
:105520000901064608BF002E2AD0A2681EA84146DF
:10553000FCF770FC002800F00E83BDF87C00BDF87D
:1055400078101C22401A013007B220A8002110F068
:10555000FBF9384610F0E0F8B9F1010FAA462390A4
:105560000F940897C0F2818018AD284641464A46FC
:10557000002307F08DF92846002106F04FFA76E067
:1055800020A800211C220F9410F0DEF918A820900A
:10559000ADF888A08DF89870B8F90240B8F9040009
:1055A000B5F902A04746B8F90030B5F90020B5F9C1
:1055B000041037F906BF0E9535F9069F0D90ADF82A
:1055C0006400AAF1010054450C91ADF86030ADF8CB
:1055D0006240ADF8660007DC0F9820A90B921E46CA
:1055E00008F08AF90B9A33462888CB4500F1010070
:1055F000ADF862003888ADF8660008DB0F9820A986
:1056000016461F4608F078F93B4632462F460E9D57
:10561000B8F800002988ADF86000481E29465445B6
:10562000C8BF41464988ADF8640038880F9C934252
:10563000ADF86210ADF8660003DC20A9204608F042
:105640005BF9A888DDE90C210130ADF86000B8F8FD
:1056500004009142ADF86400C0F27D8220A920468A
:1056600008F04AF927B0BDE8F08F4FF6FF7012AD91
:105670000990329C284651465A46012307F008F902
:105680002846002106F0CAF90B9010A8B8F90010BE
:10569000209025903198B8F90420BAF900B08DF81F
:1056A0009840B8F902400A9101EB090CBAF90410CC
:1056B000ADF88800B8F90600BAF90270DC45A2EB33
:1056C0000905CDF838A0BAF906E0D8BFDC468D420E
:1056D00004EB09039246A8BF0D46BB42A0EB0902AA
:1056E000D8BF3B467245A8BF7246002E339ECDE917
:1056F0000C748DF899601ED08446BDF87800BDF911
:105700007A50ADF84000BDF97E00BDF87C10089ECF
:105710008542ADF8441040F37D8112A806F0C4FB29
:105720000B9807F007FB099C4FF6FF71A0B2884267
:1057300040F008820CE2059370454FF000060B46DE
:105740004FF0000102920790B8BF0126BC42C8BFCB
:1057500001210A9800225845C8BF0122CDE9033A29
:105760009A454FF00003B8BF01231A431143A5EB3C
:105770000C02013212B2312A4FF000020695C8BF66
:10578000012241EA060040EA0206DDF83CA0079A41
:10579000BC424FF0010065468DF8900012DC8EB1DE
:1057A000069820A9ADF84400781EADF84600504692
:1057B000ADF84050ADF842401446774608F09CF8EA
:1057C000BE4622460020CDF804E07245B8BF012055
:1057D00086F00101084311D10E980699C088ADF8F2
:1057E0004410B8F806100130ADF84200ADF846108C
:1057F00020A95046ADF8405008F07EF82C460A9D8E
:105800005D4512DC0E99B8F800000988ADF840003B
:10581000481EADF84400059820A9ADF84200029852
:10582000ADF84600504608F067F8DDE903108842FD
:1058300012DB0E98B8F804108088ADF844100130DF
:10584000ADF84000059820A9ADF842000298ADF8E7
:105850004600504608F050F8BDF87810BDF87C00BE
:10586000002EADF8401000F0108122B200B2013AD3
:105870008242B8BF1046411A01310CB2012CADF87A
:10588000440056DB4FF000085D45D8BF4FF00108DB
:1058900003DDDDE90C1088421FDC0598BDF97A7044
:1058A00006B2BE4219DD20AD2398FF212246ADF895
:1058B0004270ADF8467010F047F82398BDF94010DB
:1058C0003AB2234606F0C2FA8DF8900050462946B7
:1058D00008F012F80137BE42E6D10799019A00207C
:1058E0009142A8BF012040EA0800012821D1029975
:1058F000BDF97E000EB286421BDA20AD2398013638
:10590000FF212246ADF84260ADF8466010F01CF869
:105910002398BDF9401032B2234606F097FA8DF86D
:1059200090005046294607F0E7FFBDF97E00864209
:10593000E4DB0699BDF9780009B201318142C8BFA4
:105940000846BDF87C10ADF84000081A013004B2DA
:10595000012CADF84410C0F2EE80DDE903104FF0E9
:1059600000088842A8BF4FF0010803DADDE90C10F7
:10597000884220DC0598BDF97A7006B2BE421ADD75
:1059800020AD00BF2398FF212246ADF84270ADF84C
:1059900046700FF0D9FF2398BDF940103AB2234664
:1059A00006F054FA8DF890005046294607F0A4FFFF
:1059B0000137BE42E6D10799019A00209142A8BF63
:1059C000012040EA0800012840F0B5800299BDF9A5
:1059D0007E000EB2864280F2AE8020AD2398013662
:1059E000FF212246ADF84260ADF846600FF0ACFFF3
:1059F0002398BDF9401032B2234606F027FA8DF8FD
:105A000090005046294607F077FFBDF97E00864298
:105A1000E4DB90E04FF0000A0FFA83FB0FFA82F903
:105A20000DF18008F445B8BF4FF0010A28E000BF2F
:105A30004D454FF00000C8BF01201AEA000F7FF467
:105A40006CAE2398FF213246ADF84250ADF8465077
:105A50000FF07AFF2398BDF978102AB2334606F08A
:105A6000F5F98DF890000F98414607F045FFDDE904
:105A70000C74BDF97E00854205F10105BFF64DAEFF
:105A8000BC42D5DD5D45F4DBD2E70E99B8F90220C2
:105A9000B1F90210891A4945C8BF89464FEA094140
:105AA000089F0129ADF8440045DB08144FF00109B7
:105AB00000240DF1800B0128C8BF4FEA214902E004
:105AC0000134A14537D0B8F80200BDF97A1020445E
:105AD00005B2B8F806008D42A0EB040006B203DA66
