:020000040800F2
:10000000E8C802202502000821150008AD050008F7
:100010001D1500084D0500084516000800000000E9
:10002000000000000000000000000000291500088A
:10003000A905000800000000251500082D1500087E
:100040003F0200083F0200083F0200083F0200088C
:100050003F0200083F0200083F0200083F0200087C
:100060003F0200083F0200083F0200083F0200086C
:100070003F020008710500083F0200083F02000827
:100080003F0200083F0200083F0200083F0200084C
:100090003F0200083F0200083F0200083F0200083C
:1000A0003F020008911500083F0200083F020008C7
:1000B0003F020008BD1500083F0200083F0200088B
:1000C0003F0200083F0200083F0200083F0200080C
:1000D0003F020008ED1500083F0200083F0200083B
:1000E0003F0200083F0200083F0200083F020008EC
:1000F0003F0200083F0200083F0200083F020008DC
:100100003F0200083F0200083F0200083F020008CB
:100110003F0200083F0200083F0200083F020008BB
:100120003F0200083F0200083F0200083F020008AB
:100130003F0200083F0200083F0200083F0200089B
:1001400000000000000000000000000000000000AF
:100150003F0200083F0200083F0200083F0200087B
:100160003F0200083F0200083F0200083F0200086B
:100170003F0200083F0200083F0200083F0200085B
:100180003F02000800F002F800F03CF80AA090E8F6
:10019000000C82448344AAF10107DA4501D100F042
:1001A00031F8AFF2090EBAE80F0013F0010F18BFD3
:1001B000FB1A43F00103184714E5030034E503007C
:1001C000103A24BF78C878C1FAD8520724BF30C883
:1001D00030C144BF04680C60704700000023002455
:1001E00000250026103A28BF78C1FBD8520728BF47
:1001F00030C148BF0B6070471FB532F016FD1FBD00
:1002000010B510BD00F070F91146FFF7F5FF29F0A9
:10021000F7FD00F08EF903B4FFF7F2FF03BC03F023
:10022000AFFC00000948804709480047FEE7FEE7A9
:10023000FEE7FEE7FEE7FEE7FEE7FEE7FEE7FEE796
:1002400004480549054A064B70470000311500086F
:1002500085010008E8C20220E8C80220E8C40220A4
:10026000E8C40220704753EA020C00F069802DE9CF
:10027000F04B4FF00006002B1FBFB3FA83F503FAD3
:1002800005F424FA05F65E4012BF1643B2FA82F571
:1002900002FA05F4C5F120051EBF22FA05FC44EA66
:1002A0000C04203556EA044C4FEA144418BF641C71
:1002B0004FF000084FF00009904271EB030C39D366
:1002C000002919BFB1FA81F701FA07F6B0FA80F7F1
:1002D00000FA07F6C7F120071EBF20FA07FC46EA1E
:1002E0000C062037B6FBF4FCA7EB0507103F07F020
:1002F0001F0BCBF120062CFA06F60CFA0BFB44BFC1
:10030000B3460026202FA4BF5E464FF0000B5BEAE9
:10031000060C08BF4FF0010B19EB0B0948EB060860
:10032000ABFB027C06FB02CC0BFB03CCC01B71EBCE
:100330000C01C1E70B46024641464846BDE8F08B3A
:1003400013B5084318BF4FF0FF300146AFF30080EC
:10035000BDE81C40704753EA020C23D010B54C1086
:1003600084EA530404D54042C1F1000138BF491E5C
:100370001B4204D55242C3F1000338BF5B1EFFF796
:1003800072FF14F0804F04D04042C1F1000138BF29
:10039000491E14F0004F04D05242C3F1000338BF8D
:1003A0005B1E10BD13B540424FF0000070EB01041E
:1003B000B8BF012001F0004100281CBF6FF00041D0
:1003C0004FF0FF30AFF300801CBD10B5203AC0F0F5
:1003D0000B80B1E81850A0E81850B1E81850A0E818
:1003E0001850203ABFF4F5AF5FEA027C24BFB1E8B1
:1003F0001850A0E8185044BF18C918C0BDE81040F4
:100400005FEA827C24BF51F8043B40F8043B08BFFC
:100410007047D20728BF31F8023B48BF11F8012BC3
:1004200028BF20F8023B48BF00F8012B704702F0BC
:10043000FF0343EA032242EA024200F035B802F029
:10044000FF0343EA032242EA024200F002B84FF0FF
:10045000000200B5134694469646203922BFA0E814
:100460000C50A0E80C50B1F12001BFF4F7AF090720
:1004700028BFA0E80C5048BF0CC05DF804EB890011
:1004800028BF40F8042B08BF704748BF20F8022B54
:1004900011F0804F18BF00F8012B7047704770476C
:1004A000704770474FF000020429C0F0128010F02E
:1004B000030C3FF4CEAFCCF1040CBCF1020F18BF1B
:1004C00000F8012BA8BF20F8022BA1EB0C01FFF7CD
:1004D000C0BF5FEAC17C24BF00F8012B00F8012BEC
:1004E00048BF00F8012B7047754600F02BF8AE4668
:1004F00005006946534620F00700854618B020B530
:10050000FFF79EFEBDE820404FF000064FF00007C9
:100510004FF000084FF0000BAC46ACE8C009ACE867
:10052000C009ACE8C009ACE8C00921F007018D465C
:10053000704710B50446AFF300802046BDE8104078
:10054000FFF769BE0048704778000020FEE7000012
:100550000129B8BF70470238023100BF10F8022FDE
:1005600002394378022942700370F7DC70470000BB
:1005700080B54FF4007004F067FE002808BF80BD0E
:100580004FF4007004F054FE40F60040C4F2010045
:10059000042107F033FD40F20010C2F200000068B1
:1005A000BDE880400DF058BC70470000FEE7000039
:1005B0002DE9F04740F60004C4F2010489460746DD
:1005C000204640219846924607F016FD04F58065C6
:1005D0002846042107F010FD04F5205630462A2154
:1005E0002DF0FCFD304680212DF004FE0028F9D1CD
:1005F0002846042107F002FD2046402107F0FEFCBA
:10060000384600F059FF504600F056FF2046402182
:1006100007F0F2FC2846042107F0EEFC30462B21BF
:100620002DF0DCFD304680212DF0E4FD0028F9D1CD
:100630002846042107F0E2FC2046402107F0DEFCBA
:10064000484600F039FF404600F036FF2046402182
:1006500007F0D2FC2846042107F0CEFC30462C21BE
:100660002DF0BCFD304680212DF0C4FD0028F9D1CD
:100670002846042107F0C2FC20464021BDE8F0478F
:1006800007F0BCBC2DE9F04184B040F2D80002264E
:10069000C2F200000125C0F2180640F600440570C1
:1006A00030460121C4F2010404F0DAFA701C012181
:1006B00004F0D6FA02AF384607F0A2FC029541F6E4
:1006C0000005C0F2101520463946039507F0A2FC3C
:1006D000384607F095FC4020A4F58068CDE9020576
:1006E0004046394607F096FC384607F089FC04205E
:1006F000CDE902052046394607F08CFC384607F064
:100700007FFC0820CDE902054046394607F082FC0F
:100710002046012107F072FC4046402107F06EFCA4
:100720002046042107F06AFC4046082107F064FCDB
:100730003046012104F094FA06F10A00012104F088
:100740008FFA02AE304607F05BFC802040F2004595
:100750000290C0F2081540463146039507F05AFC56
:10076000304607F04DFC2020CDE9020540463146D9
:1007700007F050FC6F4638462DF01EFD4FF4807098
:10078000009040F20010C0F2011004F510560190E4
:10079000304639462DF034FD304601212DF020FD44
:1007A000304601212DF010FD2046012107F026FCE6
:1007B0000A2004F019FC2046012107F01DFC0A2044
:1007C00004F012FC2046012107F018FC782004F008
:1007D0000BFC4046082107F011FC4046402107F081
:1007E0000BFC2046042107F007FC3046FE212DF0CB
:1007F000F5FC00BF304680212DF0FCFC0028F9D12B
:100800002046042107F0FAFB4046402107F0F6FBA2
:100810004046402107F0F0FB2046042107F0ECFBA6
:100820003046EF212DF0DAFC304680212DF0E2FC3D
:100830000028F9D12046042107F0E0FB4046402182
:1008400007F0DCFB4046402107F0D6FB20460421A0
:1008500007F0D2FB3046B0212DF0C0FC304680219D
:100860002DF0C8FC0028F9D12046042107F0C6FB72
:100870004046402107F0C2FB2046042107F0BCFBA4
:100880003046C0212DF0AAFC304680212DF0B2FC6C
:100890000028F9D12046042107F0B0FB4046402152
:1008A00007F0AAFB2046042107F0A6FB3046B12141
:1008B0002DF094FC304680212DF09CFC0028F9D1CD
:1008C0002046042107F09AFB4046402107F096FBA2
:1008D0002046042107F090FB304680212DF07EFC5D
:1008E000304680212DF086FC0028F9D120460421D5
:1008F00007F084FB4046402107F07EFB20460421A0
:1009000007F07AFB3046B2212DF068FC304680219A
:100910002DF070FC0028F9D12046042107F06EFB71
:100920004046402107F06AFB2046042107F064FBA3
:10093000304627212DF052FC304680212DF05AFC04
:100940000028F9D12046042107F058FB40464021F9
:1009500007F052FB2046042107F04EFB3046B3213E
:100960002DF03CFC304680212DF044FC0028F9D1CC
:100970002046042107F042FB4046402107F03EFBA1
:100980002046042107F038FB304613212DF026FCC9
:10099000304680212DF02EFC0028F9D1204604217C
:1009A00007F02CFB4046402107F026FB204604219F
:1009B00007F022FB3046B6212DF010FC3046802196
:1009C0002DF018FC0028F9D12046042107F016FB71
:1009D0004046402107F012FB2046042107F00CFBA3
:1009E000304619212DF0FAFB304680212DF002FC13
:1009F0000028F9D12046042107F000FB40464021A1
:100A000007F0FAFA2046042107F0F6FA3046B7213B
:100A10002DF0E4FB304680212DF0ECFB0028F9D1CD
:100A20002046042107F0EAFA4046402107F0E6FAA2
:100A30002046042107F0E0FA304605212DF0CEFBD8
:100A4000304680212DF0D6FB0028F9D12046042124
:100A500007F0D4FA4046402107F0CEFA20460421A0
:100A600007F0CAFA3046AC212DF0B8FB30468021A1
:100A70002DF0C0FB0028F9D12046042107F0BEFA72
:100A80004046402107F0BAFA2046042107F0B4FAA4
:100A90003046C8212DF0A2FB304680212DF0AAFB64
:100AA0000028F9D12046042107F0A8FA4046402149
:100AB00007F0A2FA2046042107F09EFA3046AB2147
:100AC0002DF08CFB304680212DF094FB0028F9D1CD
:100AD0002046042107F092FA4046402107F08EFAA2
:100AE0002046042107F088FA30460F212DF076FBCE
:100AF000304680212DF07EFB0028F9D120460421CC
:100B000007F07CFA4046402107F076FA204604219F
:100B100007F072FA30463A212DF060FB3046802112
:100B20002DF068FB0028F9D12046042107F066FA71
:100B30004046402107F062FA2046042107F05CFAA3
:100B4000304605212DF04AFB304680212DF052FB26
:100B50000028F9D12046042107F050FA40464021F0
:100B600007F04AFA2046042107F046FA3046B4213D
:100B70002DF034FB304680212DF03CFB0028F9D1CC
:100B80002046042107F03AFA4046402107F036FAA1
:100B90002046042107F030FA304604212DF01EFBD8
:100BA000304680212DF026FB0028F9D12046042173
:100BB00007F024FA4046402107F01EFA204604219F
:100BC00007F01AFA3046A8212DF008FB30468021A4
:100BD0002DF010FB0028F9D12046042107F00EFA71
:100BE0004046402107F00AFA2046042107F004FAA3
:100BF000304608212DF0F2FA304680212DF0FAFA25
:100C00000028F9D12046042107F0F8F94046402198
:100C100007F0F2F92046042107F0EEF93046B8213A
:100C20002DF0DCFA304680212DF0E4FA0028F9D1CD
:100C30002046042107F0E2F94046402107F0DEF9A2
:100C40002046042107F0D8F9304608212DF0C6FAD5
:100C5000304680212DF0CEFA0028F9D1204604211B
:100C600007F0CCF94046402107F0C6F920460421A0
:100C700007F0C2F93046EA212DF0B0FA3046802163
:100C80002DF0B8FA0028F9D12046042107F0B6F972
:100C90004046402107F0B2F92046042107F0ACF9A4
:100CA000304602212DF09AFA304680212DF0A2FA2A
:100CB0000028F9D12046042107F0A0F94046402140
:100CC00007F09AF92046042107F096F93046E8210A
:100CD0002DF084FA304680212DF08CFA0028F9D1CD
:100CE0002046042107F08AF94046402107F086F9A2
:100CF0002046042107F080F930462A212DF06EFAB3
:100D0000304680212DF076FA0028F9D120460421C2
:100D100007F074F94046402107F06EF9204604219F
:100D200007F06AF93046E9212DF058FA3046802163
:100D30002DF060FA0028F9D12046042107F05EF971
:100D40004046402107F05AF92046042107F054F9A3
:100D5000304647212DF042FA304680212DF04AFAE4
:100D60000028F9D12046042107F048F940464021E7
:100D700007F042F92046042107F03EF93046E7210A
:100D80002DF02CFA304680212DF034FA0028F9D1CC
:100D90002046042107F032F94046402107F02EF9A1
:100DA0002046042107F028F930465F212DF016FA7D
:100DB000304680212DF01EFA0028F9D1204604216A
:100DC00007F01CF94046402107F016F9204604219F
:100DD00007F012F93046C6212DF000FA3046802186
:100DE0002DF008FA0028F9D12046042107F006F971
:100DF0004046402107F002F92046042107F0FCF8A4
:100E0000304621212DF0EAF9304680212DF0F2F90B
:100E10000028F9D12046042107F0F0F8404640218F
:100E200007F0EAF82046042107F0E6F83046C7212B
:100E30002DF0D4F9304680212DF0DCF90028F9D1CD
:100E40002046042107F0DAF84046402107F0D6F8A2
:100E50002046042107F0D0F8304615212DF0BEF9C8
:100E6000304680212DF0C6F90028F9D12046042112
:100E700007F0C4F84046402107F0BEF820460421A0
:100E800007F0BAF83046F0212DF0A8F9304680215D
:100E90002DF0B0F90028F9D12046042107F0AEF872
:100EA0004046402107F0AAF82046042107F0A4F8A4
:100EB00030461D212DF092F9304680212DF09AF90F
:100EC0000028F9D12046042107F098F82046042193
:100ED00007F092F8304638212DF080F93046802115
:100EE0002DF088F90028F9D12046042107F086F872
:100EF0002046042107F080F8304609212DF06EF9D4
:100F0000304680212DF076F90028F9D120460421C1
:100F100007F074F82046042107F06EF830464D21A2
:100F20002DF05CF9304680212DF064F90028F9D1CC
:100F30002046042107F062F82046042107F05CF8FF
:100F4000304692212DF04AF9304680212DF052F999
:100F50000028F9D12046042107F050F8204604214A
:100F600007F04AF830462F212DF038F9304680211D
:100F70002DF040F90028F9D12046042107F03EF871
:100F80002046042107F038F8304635212DF026F9A7
:100F9000304680212DF02EF90028F9D12046042179
:100FA00007F02CF82046042107F026F8304652219D
:100FB0002DF014F9304680212DF01CF90028F9D1CC
:100FC0002046042107F01AF82046042107F014F8FF
:100FD00030461E212DF002F9304680212DF00AF90D
:100FE0000028F9D12046042107F008F82046042102
:100FF00007F002F830460C212DF0F0F83046802141
:101000002DF0F8F80028F9D12046042106F0F6FF6B
:101010002046042106F0F0FF304604212DF0DEF8D2
:10102000304680212DF0E6F80028F9D12046042131
:1010300006F0E4FF2046042106F0DEFF30461221D0
:101040002DF0CCF8304680212DF0D4F80028F9D1CD
:101050002046042106F0D2FF2046042106F0CCFFF2
:10106000304614212DF0BAF8304680212DF0C2F818
:101070000028F9D12046042106F0C0FF20460421B3
:1010800006F0BAFF30461F212DF0A8F83046802127
:101090002DF0B0F80028F9D12046042106F0AEFF6B
:1010A0004046402106F0A8FF2046042106F0A4FF98
:1010B0003046F1212DF092F8304680212DF09AF83B
:1010C0000028F9D12046042106F098FF404640212F
:1010D00006F094FF2046042106F08EFF30461621CC
:1010E0002DF07CF8304680212DF084F80028F9D1CD
:1010F0002046042106F082FF2046042106F07CFFF2
:10110000304640212DF06AF8304680212DF072F8EB
:101110000028F9D12046042106F070FF2046042162
:1011200006F06AFF30461C212DF058F83046802129
:101130002DF060F80028F9D12046042106F05EFF6A
:101140002046042106F058FF304654212DF046F881
:10115000304680212DF04EF80028F9D12046042198
:1011600006F04CFF2046042106F046FF3046A92138
:101170002DF034F8304680212DF03CF80028F9D1CC
:101180002046042106F03AFF2046042106F034FFF1
:1011900030462D212DF022F8304680212DF02AF8FE
:1011A0000028F9D12046042106F028FF204604211A
:1011B00006F022FF30462E212DF010F83046802117
:1011C0002DF018F80028F9D12046042106F016FF6A
:1011D0002046042106F010FF304656212CF0FEFF79
:1011E000304680212DF006F80028F9D12046042150
:1011F00006F004FF2046042106F0FEFE30461021D2
:101200002CF0ECFF304680212CF0F4FF0028F9D1BF
:101210002046042106F0F2FE2046042106F0ECFEF2
:1012200030460D212CF0DAFF304680212CF0E2FF11
:101230000028F9D12046042106F0E0FE20460421D2
:1012400006F0DAFE30460C212CF0C8FF3046802133
:101250002CF0D0FF0028F9D12046042106F0CEFE64
:101260002046042106F0C8FE30461A212CF0B6FFB5
:10127000304680212CF0BEFF0028F9D12046042101
:1012800006F0BCFE2046042106F0B6FE30461421CE
:101290002CF0A4FF304680212CF0ACFF0028F9D1BF
:1012A0002046042106F0AAFE2046042106F0A4FEF2
:1012B00030461E212CF092FF304680212CF09AFF00
:1012C0000028F9D12046042106F098FE404640212E
:1012D00006F092FE2046042106F08EFE3046F421F0
:1012E0002CF07CFF304680212CF084FF0028F9D1BF
:1012F0002046042106F082FE4046402106F07EFE94
:101300002046042106F078FE304600212CF066FFCE
:10131000304680212CF06EFF0028F9D120460421B0
:1013200006F06CFE2046042106F066FE30460021E1
:101330002CF054FF304680212CF05CFF0028F9D1BE
:101340002046042106F05AFE2046042106F054FEF1
:101350003046FF212CF042FF304680212CF04AFF1E
:101360000028F9D12046042106F048FE40464021DD
:1013700006F042FE2046042106F03EFE3046BA2129
:101380002CF02CFF304680212CF034FF0028F9D1BE
:101390002046042106F032FE4046402106F02EFE93
:1013A0002046042106F028FE3046FF212CF016FFCF
:1013B000304680212CF01EFF0028F9D12046042160
:1013C00006F01CFE2046042106F016FE3046FF21E2
:1013D0002CF004FF304680212CF00CFF0028F9D1BE
:1013E0002046042106F00AFE4046402106F004FE95
:1013F0002046042106F000FE304636212CF0EEFE99
:10140000304680212CF0F6FE0028F9D12046042138
:1014100006F0F4FD4046402106F0F0FD2046042190
:1014200006F0EAFD3046C0212CF0D8FE304680217F
:101430002CF0E0FE0028F9D12046042106F0DEFD64
:101440004046402106F0D8FD2046042106F0D4FD98
:10145000304611212CF0C2FE304680212CF0CAFE0D
:101460000028F9D12046042106F0C8FD404640215D
:1014700006F0C4FD782003F0B7FD4046402106F099
:10148000BBFD2046042106F0B7FD304629212CF093
:10149000A5FE00BF304680212CF0ACFE0028F9D11B
:1014A0002046042106F0AAFD4046402106F0A6FD94
:1014B00004B0BDE8F0810000F0B581B040F6004412
:1014C000C4F201040646070A2046042106F094FDF2
:1014D00004F51055284639462CF080FE2846802118
:1014E0002CF088FE0028F9D12046042106F086FD64
:1014F0002046042106F080FDF1B228462CF06EFE55
:10150000284680212CF076FE0028F9D120460421BF
:1015100001B0BDE8F04006F071BD0000FEE700003C
:1015200070470000704700007047000070470000DF
:101530004EF6885CCEF2000CDCF8002041F200018F
:1015400042F47002C4F20201CCF800200A6842F0B2
:1015500001020A600A689207FCD54A6822F0030279
:101560004A6000BF4A6812F00C0FFBD100224A60AB
:101570000B684FF6FF70CFF6F260184008604FF42A
:101580001F000A6388604FF000604CF8800C7047C1
:1015900010B542F60044C4F20104204601212FF0A8
:1015A00021FF002808BF10BD204601212FF016FFA3
:1015B0000120BDE8104027F047BF000010B540F201
:1015C0000044C4F20004204601212FF00BFF002844
:1015D00008BF10BD204601212FF000FF4CF2D8209B
:1015E000C2F2020001880131018010BD10B543F63E
:1015F0000004C4F201042046102131F0F5F800285F
:1016000008BF10BD2068606840F2DA04C2F200042E
:10161000012084F820005820C4F2020003F0FCFDF1
:10162000C0F12000608481B2204631F0C5F900226B
:1016300062842046202184F82020BDE8104031F04B
:1016400097B90000FEE70000B0B540F20C15C2F2F9
:10165000000505F1AC042046582101F065F843F679
:101660004140C0F600002121002227F059FFC5F8B3
:10167000A800012085F8A400204601F02FF80146BB
:10168000D5F8A80011B128F093F801E028F066F829
:101690000020A5F8A400B0BD2DE9F043D1F800C0AA
:1016A00093689C450BDC8F681668B74207DB4F6870
:1016B000D668B74203DCCF685668B74203DAFF2327
:1016C00058B2BDE8F0831768BC450ADB4F6856681E
:1016D000B74206DB8F689F4203DCCB68D768BB420A
:1016E00052DDD1E9013E5568CC689D42A4EB03046C
:1016F000D1BF0023C0E900C3C0E902E50123D568DA
:101700004E68671B3744012F0FDBCF68BD420CDAF0
:101710000F6806EB040900EB03161C01D1F80880E2
:1017200001330751341D84E82003D2E900874D6856
:10173000D668CC68AF42C8BF3D460F68A642B8BF66
:101740003446B845AEEB0C0CC8BFAC4209DD00EB2B
:1017500003164FEA031E013340F80E70C6E9015824
:10176000F46092680968ACEB02070F44012F08DBB4
:10177000614400EB03171E0101338251C7E9015197
:10178000FC6058B2BDE8F083002358B2BDE8F08396
:1017900070B5034691E8015092E87000C968A04214
:1017A000D268C8BF0446AC45C8BF6546B645B8BF99
:1017B00076469142B8BF0A460020B4424FF000017D
:1017C00083E87000D8BF01219542D8BF01200840AE
:1017D000DA6070BD2DE9F04383B00C4607680968F4
:1017E0008F4231DB466861688E422DDBD0F808906D
:1017F000A168894528DCD0F80C80E068804523DCAE
:1018000015462AB301A920462A46CDE9017600F003
:101810007BF8C8B101A920462A46CDE9019600F01F
:1018200073F888B101A920462A46CDE9017800F075
:101830006BF848B101A920462A46CDE9019800F08D
:1018400063F803B0BDE8F083002003B0BDE8F08387
:10185000012003B0BDE8F08302688B689A420DDC7A
:1018600082680B689A4209DB4268CB689A4205DCC1
:10187000C06849688842A4BF0120704700207047B3
:101880002DE9F04383B00C46866809688E420DDB73
:10189000C76861688F4209DBD0F80080A16888457D
:1018A00004DCD0F80490E068814503DD012003B03A
:1018B000BDE8F0831546BAB101A920462A46CDE914
:1018C000018900F021F878B901A920462A46CDE91E
:1018D000016900F019F838B901A920462A46CDE976
:1018E000018700F011F818B1002003B0BDE8F083C3
:1018F00001A920462A46CDE9016700F005F880F0ED
:10190000010003B0BDE8F0832DE9F0410B680568E4
:10191000AB420BDBD0F808E0734507DC4968D0F830
:1019200004C0614502DBC068814202DD0020BDE8E1
:10193000F081012A30DBAEEB0504013404EBD476F0
:10194000A0EB0C04013404EBD4774FEA66087C105A
:10195000B8EB670FB8BF74109442A8BF144666195D
:10196000B34204EB0C02D8BF914218DDB342A0EBA6
:10197000040029DC814227DB6700214400EB67007B
:1019800005EB6706081A44F31E029B1B404302FB4B
:1019900002F103FB03024EE00120BDE8F08162008A
:1019A00005EB62070CEB620244F31E00891ADB1B95
:1019B00000FB00F201FB01F003FB03010020914258
:1019C00098BF0120BDE8F081AEEB0405AB42A8BF93
:1019D00081421EDAAB424FF0010018DB9142C8BFD2
:1019E000BDE8F081281BAEEB000202EBD27257106B
:1019F00000EB62000CEB6202891A181A494300FBE3
:101A0000001107FB07F20020914298BF0120BDE8BA
:101A1000F0812A1BAEEB020707EBD777214400EBDE
:101A2000670002EB6702081A7E109A1A404306FB11
:101A300006F102FB020200208A4298BF0120BDE8A5
:101A4000F081000070B591E8085092E87000C96814
:101A5000A342D268B8BF1C46AC45B8BF6546B64580
:101A6000C8BF76469142C8BF0A4680E87000C2608F
:101A700070BD00002DE9F04F9BB040F20C1BC2F28C
:101A8000000B28B1C168CBF8101027F067FE03E007
:101A90000CF0F4F9CBF81000DBF81000002800F08F
:101AA0003D83416A002900F039830A69002A00F069
:101AB0003583C968002900F03183342100220CF0FD
:101AC0009DFADBF81000D0F8B00223F03BF9DBF808
:101AD0001000D0F8B402002818BF23F033F9DBF867
:101AE0001000D0F8BC0223F02DF9DBF81000D0F87C
:101AF000C00223F027F9DBF81000D0F8C40223F06D
:101B000021F9DBF81000D0F8B012002900F0FB82B8
:101B1000D0F85C1200295ED000270DF12C094FF09F
:101B2000010806E0DBF810000137D0F85C128F42A4
:101B300051D2384490F83C020028F3D1DBF8101061
:101B4000D1F85C020028EDD000243C2508E000BF5D
:101B5000DBF810100134D1F85C0210358442E1D278
:101B6000081990F83C020028F2D1A742F0D001EB0E
:101B700007103C302944FFF76FFE0028E8D0DBF85F
:101B8000100000EB07113C3142194846FFF75AFF9D
:101B9000484609F0A1F8DBF81010824601EB071067
:101BA0003C3009F099F8DBF810100646481909F0A6
:101BB00093F830448245CBD2DBF810000DF12C0CA9
:101BC00000EB07119CE84C103C31204481E84C109C
:101BD00080F83C82BCE7DBF8100090F8391001294E
:101BE00040F0CC800CF0F0F9002800F0C780DBF862
:101BF000100000F5197000F005FE002840F0BE80CE
:101C0000DBF810403A21204600220CF0F7F9E16A97
:101C100011B12046884702E0206B0028FCD100204B
:101C2000606320463B2100220CF0E8F9DBF810004D
:101C3000C569446AAC4208BF056A0CF033F9DBF8A9
:101C40001010804608460CF0A7F90BAE0746304648
:101C50004021FEF7FCFBDBF81000CDE90454D0F87E
:101C60005C12CDE90278002959D0A6F110014FF09D
:101C7000000A4FF0000906910AE000BFDBF81000EF
:101C800009F10109D0F85C121FFA89FA514546D9C9
:101C900000EB0A0191F83C120029EFD100F5197010
:101CA00000F01CFD0028E9D007460CE0DBF810002E
:101CB000394600F5197000F00DFE384619F042FF64
:101CC000002C2746DAD0DBF81000394600F51970F1
:101CD00000F01CFDDBF81010044601EB0A1000F1C7
:101CE0003C0230463946FFF7D7FC411CE8D00128BA
:101CF000DCDBDDF81880C5B2DBF81000394600F5F2
:101D0000197000F033FD58F8101F013D016008F113
:101D100004030ECBC360C0E90112EDD1C6E7002178
:101D2000CDE90711039900F519700139099102995C
:101D300001390A9100F0D2FCDDE90475B8B104461E
:101D400007AE00BF204621463246FFF721FD284658
:101D500021463A4623460CF0C3FDDBF8100021462D
:101D600000F5197000F0D2FC04460028EAD1DBF837
:101D70001000002100F5197000F070FCDBF8100075
:101D8000D0F85C12002900F0708100BF4C1E06D410
:101D9000014491F83B1200292146F7D100E00024CC
:101DA000362100220CF02AF9DBF8100090F83810E8
:101DB00090F83A2001F0FE0180F8381090F83810C1
:101DC00042F0020201F0FD0180F83810D0F85C12F8
:101DD00080F83A200129C0F242810DF12C094FF020
:101DE000000802941DE090F8381090F8382001F0B7
:101DF000010102F0FD0242EA410180F83810069B21
:101E00000FCB05F1180C8CE80F00284628F0C8FC11
:101E1000DBF8100008F10108D0F85C12884580F268
:101E20001E8100EB080191F83C120029F0D1A04579
:101E300005D190F8381041F0010180F8381090F881
:101E4000381000EB081201F0FD0180F83810D0F8CE
:101E5000A052416A02F13C0A296090F83910CDF88D
:101E600018A000293FD04FF0000AC5E901AA0CF0E4
:101E700019F80138E860DBF810000CF08DF8D5E9AE
:101E80000062D5E90273411E2961297D9A1A013247
:101E9000C31B3046CDF800A00DF052F8002800F02A
:101EA000DB80DBF810000BF0FDFFDBF81010461EA6
:101EB00008460CF071F8471E4846002100223346C0
:101EC000009708F03FFFDBF8100090F83910012967
:101ED00089D002299CD190F838104B4641F002017C
:101EE00080F838108CE752F8409FDAF8004011462D
:101EF00051F8047F164656F808AF049103920CF08F
:101F00004BF8824501DA306804E0DBF810000CF091
:101F100043F80138DBF81060059096F83B000BF0B1
:101F2000F9FD0028A7EB04000CBF96F83B10102128
:101F30000130AAEB090202F1010A0DF051F8716AB1
:101F40000BAFC968B1FBF0F05045B8BF8246002026
:101F500054460D90CDE90B00DBF81000A4F1010907
:101F600030213A46CDF838900CF048F80E980C998C
:101F7000461C701A504503DD012C4C46ECDC00E099
:101F8000A14603984FF0000A0368B9F1000FD8BFCB
:101F900056469819059F0138B84236DC5C1EA7EBFF
:101FA000060908E0284628F0FBFB059F06EB0A001F
:101FB000B842544627DCDBF81000069A049B1268EE
:101FC000406A1B68611C05F1080C06EB040AC5E9B0
:101FD00000028CE80A04C5E90621297D9A1AC5E9A0
:101FE000083A01323346002700970CF0A9FF88B366
:101FF000A145D7D1DBF8100090F8381041F002016C
:1020000080F83810CEE70AF10103029C57450DF124
:102010002C093FF4FDAE0699DBF810000A6804991C
:10202000406A0E6805F1180185E8CD00CCC1297D14
:10203000B21AFB1A01320133002700970CF080FF1F
:1020400060B1DBF8100090F8381041F0020180F820
:102050003810DAE6FEE700BFFEE700BFFEE790F8C3
:102060003A1001F0FD0180F83A10DBF81000D0F8CA
:102070005C1200294AD0372100220BF0BFFFDBF8A9
:1020800010000BF0A1FF60B3DBF8100090F83910DE
:10209000012926D130F076FDDBF81000D0F85C1273
:1020A000F9B100243C2507E0DBF810000134D0F83A
:1020B0005C1210358C4214D2011991F83C1200299F
:1020C000F2D100F5197000F083FBDBF810104A59CB
:1020D00029440260D1E90123C968C0E90123C16034
:1020E000E2E7DBF8100000213C304FF400721DF0F5
:1020F000C5F8DBF81000002100F50F7020221DF05C
:10210000BDF8DBF810000021C0F85C1200F010F9F7
:10211000DBF81000352100220BF070FF1BB0BDE88A
:10212000F08F00002DE9F04381B040F20C14C2F2B0
:10213000000404F1C8000021182200251DF09EF8BB
:1021400044F2D936C0F6000644F2D53744F2C93815
:1021500042F6B53904F1C800C0F60007C0F6000821
:10216000C0F6030980E8C00104F1E0000021182254
:10217000C4E93555C4F8DC901DF080F804F1E000A6
:1021800080E8C001C4E93B55C4F8F49001B0BDE853
:10219000F0830000002B08BF70472DE9F0479CB08A
:1021A0000D469A46EB6A17468146D2E90010D2E9FD
:1021B0000262CDE918101A961B923BB92C6BB4F54C
:1021C000807F03D16C6BB4F5807F1AD0101A711A1E
:1021D000421C288EAE8E013105F14004CDE9000687
:1021E00018A8029400F0F4F818AED7E900014CCE1C
:1021F0001B9C0244304418925A181A906018199285
:102200001B90D9F808200DF1500818A94046FFF797
:10221000BFFAA0B1E96904A800221AF0E9F901287F
:102220000DD1CDE9007804AF484629463A4600234F
:10223000CDF808A006F0B2FE38461AF0A3F91CB09B
:10224000BDE8F04770470000002B08BF70472DE93C
:10225000F04FA3B08B46C9691546824613A80022E9
:1022600098461AF0C5F9012826D1DBF860200BF159
:102270005403BBF824400BCB12920FAA0FAFBBF84C
:1022800026600BC23846214608F068FD38463146C4
:10229000059608F05DFD1098E9680F9A884240F2B3
:1022A0000100CEF200000692CDE90D00CDE90B0051
:1022B00006DD13A81AF066F923B0BDE8F04F7047A9
:1022C000069807AE204401380DF12C0904900DE06A
:1022D0001299059A109811441291E96810441090CF
:1022E000069A884204980F921190E2DC0F98A96830
:1022F00088420BDDECE700BF0F98A96820448842B4
:1023000011990F9001EB04001190E1DC3046394641
:102310002A46FFF73DFA0028EED05046594613AA48
:102320004B46CDE90076CDF8088006F037FEE3E7AE
:1023300070B540F20C150024C2F200052E19D6F833
:102340002001002818BF19F0FDFB06F59070002150
:102350001C221CF093FF1C34702C08BF70BDEDE7ED
:1023600040F20C11C2F20001C96E04E00A7E42F094
:1023700001020A764969002908BF70474A6882420B
:10238000F4D00A688242F5D1F0E70000406940F2DB
:102390000C11C2F20001C8667047000040F20C1137
:1023A000C2F20001CA6EC8664261704740F20C106A
:1023B000C2F2000000F5DA70042100F0B5B90000A7
:1023C00040F20C10C2F200003430202100F0ACB911
:1023D0002DE9F04F8BB0DDE914761D46002B8346C6
:1023E00008BFB7F5807F73D0002303A8169CCDE902
:1023F0000333CDE90513CDE9073200F11803029349
:10240000CDE909124FF0010829463A46334600F15A
:10241000080A00F110090094CDF8048022F0DAFDDA
:10242000504629463A4633460094CDF8048022F0BF
:10243000D1FD484629463A4633460094CDF80480FB
:1024400022F0C8FD029829463A4633460094CDF85A
:10245000048022F0BFFDDDE90321DDE90530079EA0
:10246000099D9A421F46B8BF1746AE422C46B8BFD8
:102470003446A742B8BF3C469A42CBF80040C8BF9A
:102480001346AE42C8BF3546AB42C8BF1D466A1EA2
:10249000089B0A9FCBF8082081420246B8BF0A4633
:1024A000BB423E46B8BF1E46B242B8BF1646814246
:1024B000CBF80460C8BF0846BB42C8BF1F46B8423D
:1024C000C8BF0746781ECBF80C000BB0BDE8F08FF4
:1024D000B6F5807F88D100200139013ACBE90000B0
:1024E000CBE902120BB0BDE8F08F0000B0B5054695
:1024F00040F20C10C2F200000C46F830182100F037
:1025000013F9284619F09CFF2046BDE8B0401AF0A8
:1025100023BC000070B588B004460D4610B134B934
:1025200008B070BD0BF0AAFC0446002CF8D0204681
:102530000BF050FD0028F3D094F83A00800721D426
:10254000002005B3CDE9040020460BF0ABFC0138B8
:10255000069020460BF020FD01380790684604AA3B
:102560002946FFF715F90028DAD094F83900022837
:102570000DD104AB0FCB04F13C0C8CE80F00012013
:1025800037E000BFFEE7C4F85C0208B070BD6A46E1
:10259000204630210BF032FD0128C1D1D4F85C1265
:1025A00091B100206D46002604EB001000F13C01C3
:1025B00028460022FFF70EF90028B1D10136D4F8E1
:1025C0005C12B0B28142EFD8202931BF68460020AA
:1025D000C4F85C020DF11000D4F85C12D0E90036AA
:1025E000D0E9025004EB0112C2E91150481CC2E9C3
:1025F0000F36C4F85C022046332100220BF0FEFCAB
:1026000008B070BD10B50021162204461FF006FE6A
:10261000C0B2002808BF10BD40F20C11C2F2000188
:102620008A6D824209D3CA6D02EBC001496852F833
:1026300030202046BDE81040104710BD10B540F2D4
:102640000C14C2F20004A06DC0001CF0C5FCE065D3
:1026500018F0E2FFBDE8104019F02EBD2DE9F04161
:10266000002804460D4614BF60680020002808BFFB
:10267000BDE8F0814FF0000803E000BFA8473846EE
:102680004FB32168002D01F104028758F6D1636829
:1026900083420CD0A6684358864212D0002B18BF44
:1026A0009F50002F18BF7B5019F04CFAE7E7002F1E
:1026B000676014BF47F80180C4F8088019F042FA37
:1026C000DDE7002BA36014BF43F80280C4F8048048
:1026D00019F038FAD3E7BDE8F0810000002814BFF4
:1026E0004068002070470000002814BF41680021A6
:1026F000002904BF002070470068021D002000BFB1
:10270000895801300029FBD1704700000068084457
:10271000406870470068085870470000002814BFE0
:1027200080680020704700000331002221F003017F
:10273000C0E900128260704710B504460068083096
:102740001CF04AFC002808BF10BD2168002242503E
:10275000626801444A60616800291CBF2268885091
:10276000A1686060002908BFA06010BD70B5044674
:1027700000284FF0000013D00D4689B1D4E90006BF
:1027800008301CF029FCAE420BD0F0B121686A5829
:10279000002A1CBF8B1858604318425068505D6077
:1027A00070BD4FF0000280B121684250626843184A
:1027B0005A606268002A18BF5050A1686060002902
:1027C00008BFA060002818BF70BD002070BD0000C9
:1027D00010B50446006808301CF0FEFB002808BF56
:1027E00010BD2168002342185360A2684250A168BE
:1027F00011B12268114448606168A060002908BFD7
:10280000606010BD28B1416809B9806808B1002036
:102810007047012070470000B0B5914251D012B10D
:102820000368134403E000284CD000F108031B6840
:102830008B4208BFB0BD70B345688D4214D0D0F84C
:1028400000C0846851F80CE08C421BD00CF10405E8
:102850004C59BEF1000F18BF4EF80540002C18BFB0
:1028600044F80CE0C3B91AE0D0F800C00CEB010545
:102870006C680025002C446014BF44F80C5085603F
:1028800053B90CE0BEF1000FC0F808E01CD00CEB0F
:102890000E0500246C6013B105681D4469600029B1
:1028A0001CBF05684B51002A1CBF0568515111B16E
:1028B00005680D446A60002A08BF8160002B08BFCC
:1028C0004160B0BD0023B3E700254560002BE3D194
:1028D000E5E7000080B5002808BF80BD42688A4255
:1028E00013D0D0F800E0826851F80E308A4217D039
:1028F0000EF1040C51F80C00002B18BF43F80C002B
:10290000002818BF40F80E3080BD026811444968A5
:102910000029416007BF002181600020885080BDF0
:102920000021002B836018BF0EEB0300416080BDC7
:1029300010B5044606E000BF20680068002808BF04
:1029400010BD206020688268002AF5D0214690479B
:10295000F2E700008068002814BF406A002070473A
:10296000806800280EBF0020408DC0F38120704792
:102970002DE9F04782B090460028154648D006461B
:10298000008D0C460143002000906B4630466122CA
:1029900004F47F0A05F0A6F8012802D1009FFFB9D0
:1029A00036E042F65C40C0F6030090F86100C007D4
:1029B00011D0BAF1000F374608BF77685FB1E9461A
:1029C000398D384661224B4605F08CF80128E5D058
:1029D0007F68002FF4D1612024F080FA0746BFB150
:1029E0003868A8B1308D01AB40EA040100200190A5
:1029F0003046622205F076F8012811D101980106CF
:102A000006D03B6828F07F41C2B238469847054659
:102A10004FEA186060F31F65284602B0BDE8F087F2
:102A200042F65C40C0F6030090F86200C00710D088
:102A3000BAF1000F08BF76685EB101AC318D304647
:102A40006222234605F04EF80128D7D07668002E82
:102A5000F4D1622024F042FA0106D2D1D8E7000076
:102A60002DE9F04F97B00546408D40F0080068858D
:102A70002A859DB1209F42EA010A3E7A00209B46AA
:102A800014468846019001AB28465146324605F06F
:102A9000DFF9012803D1019E05E000BFFEE73046C3
:102AA00024F01CFA0646A5F828B03F7A00204BEA2D
:102AB0000801019001AB28463A4605F0C9F9012802
:102AC00002D1DDF8049003E0384624F007FA81468D
:102AD000688D209F20F008004E45688506D104BF10
:102AE00089EA06005FEA002000F081802C853C7AAC
:102AF0000020019001AB28465146224605F0A8F976
:102B0000012801D1019C03E0204624F0E7F90446A6
:102B100028464146A5F828B005F0E2F90068397A60
:102B2000224624F00DFB79683A7A284621F0B2F962
:102B3000387A0C281ED147F6FF76B44218BFB1454B
:102B400018D128461FF032FC00EBD07728461EF043
:102B5000D7FC00EBD070012101EB670201EB6000B4
:102B6000209F8242B8BF1046B44208BF0446B14518
:102B700008BF814640F20C10C2F200001830FFF787
:102B8000DBFDB8B3C0E9034905600646387A01ACFD
:102B900030712046C6F8088007F030F941F20D4048
:102BA000C0F60300029041F2DD60C0F6030004901D
:102BB00041F22160C0F60300059000200A904FF01A
:102BC00000400B90FF200C90388879880D90484287
:102BD000F9680E909DF858000991396900F0F700E6
:102BE0008DF8580020460196089107F0B5F917B006
:102BF000BDE8F08FFEE7000040F20C10C2F20000CA
:102C000018301421FFF790BD2DE9F04F81B0044634
:102C1000408D10F47C7F00F011816FEA01096FEAAA
:102C2000020B4FF0000AE84600250AE001200028C8
:102C300000F00781608D0135C0F30510854280F0FA
:102C40000281E06800EBC50149688A01F2D489B2CB
:102C500011EA090201EA0B01B1FA81F14FEA5111BF
:102C600018BF01224A40E1D150F8356010213046AA
:102C7000424624F0D9F888BB30461121424624F060
:102C8000D3F858BB30461221424624F0CDF828BB79
:102C900030461321424624F0C7F8F8B930461521D2
:102CA000424624F0C1F8C8B930461421424624F007
:102CB000BBF898B930461621424624F0B5F868B9F9
:102CC00030466A21424624F0AFF838B930466B21CD
:102CD000424624F0A9F8002861D000BF0127002F48
:102CE00067D130466821424624F09EF8002850D132
:102CF00030466921424624F097F8002849D13046F1
:102D00006E21424624F090F8002842D130466C21D2
:102D1000424624F089F8E0BB30466D21424624F05B
:102D200083F8B0BB30463A21424624F07DF880BBA0
:102D300030463B21424624F077F850BB30463821DC
:102D4000424624F071F820BB30463C21424624F034
:102D50006BF8F0B930463E21424624F065F8C0B920
:102D600030464021424624F05FF890B93046412178
:102D7000424624F059F860B930464221424624F0D8
:102D800053F830B930464821424624F04DF8002827
:102D90004BD04FF0020A002F3FF448AF0CE0304612
:102DA00001214246012724F03FF850B1002F3FF4A3
:102DB00098AF002F3FF43AAF002000287FF43AAFDD
:102DC0003FE030460221424624F02EF800287FF4EE
:102DD00085AF30460421424624F026F800287FF4CF
:102DE0007DAF30460521424624F01EF800287FF4CE
:102DF00075AF30460621424624F016F800287FF4CD
:102E00006DAF30460721424624F00EF800287FF4CB
:102E100065AF30463021424624F006F807460028C8
:102E200018BF0127002FC4D15BE7BAF1000F08BF1C
:102E30004FF0010A002F3FF4F9AEBDE74FF0000A52
:102E400001E04FF0030A5FFA8AF001B0BDE8F08FAD
:102E500090B170B582B00446018D0020019001ABA5
:102E600020466E2204F03EFE012806D1019800287B
:102E700040F0C5801DE000BFFEE742F65C40C0F6B2
:102E8000030090F86E00C0070DD065685DB101AE1B
:102E9000298D28466E22334604F024FE0128E5D011
:102EA0006D68002DF4D16E2024F018F8002840F051
:102EB000A680218D0020019001AB20466C2204F0F9
:102EC00011FE012805D10198B0F5807F40F0978070
:102ED0001BE042F65C40C0F6030090F86C00C007AF
:102EE0000DD065685DB101AE298D28466C22334650
:102EF00004F0F8FD0128E6D06D68002DF4D16C20B7
:102F000023F0ECFFB0F5807F79D1218D0020019076
:102F100001AB20466D2204F0E5FD012804D10198A3
:102F2000B0F5807F6BD11CE042F65C40C0F6030038
:102F300090F86D00C0070ED0656865B101AE00BFA6
:102F4000298D28466D22334604F0CCFD0128E6D0B9
:102F50006D68002DF4D16D2023F0C0FFB0F5807FA7
:102F60004DD1218D0020019001AB2046712204F04B
:102F7000B9FD012803D10198002840D119E042F69B
:102F80005C40C0F6030090F87100C0070DD0656882
:102F90005DB101AE298D28467122334604F0A2FDB1
:102FA0000128E8D06D68002DF4D1712023F096FF40
:102FB00028BB218D0020019001AB2046722204F035
:102FC00091FD012801D1019818E042F65C40C0F65D
:102FD000030090F87200C0070DD065685DB101AEC6
:102FE000298D28467222334604F07CFD0128EAD060
:102FF0006D68002DF4D1722023F070FF78B10225A6
:10300000A06820B94DB120461DF050F9A068418D4F
:1030100021F4406141EA8521418502B070BD218DD6
:103020000020019001AB2046602204F05BFD0128E6
:1030300002D19DF8040018E042F65C40C0F603009F
:1030400090F86000C0070DD065685DB101AE298DB4
:1030500028466022334604F045FD0128E9D06D681A
:10306000002DF4D1602023F039FFC0B2FF2825D114
:10307000218D0020019001AB2046732204F032FD27
:10308000012801D1019818E042F65C40C0F6030027
:1030900090F87300C0070DD065685DB101AE298D51
:1030A00028467322334604F01DFD0128EAD06D68DE
:1030B000002DF4D1732023F011FF08B101259FE703
:1030C000218D0020019001AB2046672204F00AFD0B
:1030D000012802D19DF8040018E042F65C40C0F6D9
:1030E000030090F86700C0070DD065685DB101AEC0
:1030F000298D28466722334604F0F4FC0128E9D0E4
:103100006D68002DF4D1672023F0E8FEC5B2002DD4
:1031100018BF012574E7000040F20C10C2F2000055
:103120000069704770470000FF2804BF3F207047C8
:10313000002804BF002070478C2805D842F65C4167
:10314000C0F60301085C704740F20C12C2F20002A4
:10315000116B31B17330926AC0B2824284BF085C95
:10316000704700207047000010B540F20C14C2F206
:10317000000404F174001821FFF7D6FAD4F89C106B
:10318000012084F8800000200029C4F8840008BFD2
:1031900010BDD4F8A000BDE8104008472DE9F04765
:1031A00002B3DDF820909A4614460F46804606E0AA
:1031B00064F001003044441C05EB0A0774B1660852
:1031C00006FB0A7540462946C8470128F0DAB0F1E7
:1031D000FF3F3446F2DD2846BDE8F087002528464B
:1031E000BDE8F0870020BDE8F08700002DE9F04F32
:1031F00097B00D46209943F67D381C461746C0F619
:1032000000084FF0000A0E91002D18BF80460026DE
:10321000A05D0AEB060B002800F0C183252805D02D
:1032200029465A463B46C0470136F1E7A0190B959F
:10323000451C4FF000090D9704E000BF0135002048
:10324000002821D12878A0F1200110294FF0010099
:10325000F6D8DFE801F00D0C0C090C0C0C0C0C0C72
:103260000C100C130C0C160049F01009E6E7E7E708
:1032700049F00809E2E749F00409DFE749F00209EB
:10328000DCE749F00109D9E72878CDF83080A0F1D2
:103290003001092912D8681E4FF0000810F8011FEC
:1032A00008EB8802437801EB4201A3F130020A2ABD
:1032B000A1F13008F2D3451C13E000BF2A280ED13B
:1032C0000E99013551F8040B002880460E9148BF35
:1032D000C0F10008002848BF49F0020901E04FF0A2
:1032E000000828782E281BD1284610F8011F49F421
:1032F0008069A1F13002092A23D8681E002700BF87
:10330000827807EB8701C37802EB4101A1F1300716
:10331000A3F130010A2900F10100F1D3851C00E07E
:103320000027287868384FEA7000092821D8DFE89C
:1033300000F0131D812020200520200549F480790C
:1033400016E02A2940F089800E99023551F8040BC5
:1033500020EAE0770E91E4E7284610F8011F68297B
:1033600040F07E8049F0C009023502E049F400795E
:1033700001352878A0F12501532900F2C3801024DB
:10338000DFE811F0BB00C000C000C000C000C000FA
:10339000C000C000C000C000C000C000C000C0002D
:1033A000C000C000C000C000C000C000C000C0001D
:1033B000C000C000C000C000C000C000C000C0000D
:1033C000C000C000C000C000C000C000C000C000FD
:1033D000C000C000C000C000C0006100C000C0004C
:1033E000C000C000C000C000C000CE00C000C000CF
:1033F000C000C000C000C000C000C000C000CC00C1
:103400009A015400C000C000C000C0005400C000B9
:10341000C000C000C000C00076006100C000C00055
:103420007800C0005400C000C000CE0029F0100990
:103430000A2475E0284610F8011F6C2914D149F4BC
:103440004079023595E7284610F8011F49F488793C
:10345000562908BF0546102462E00027054660E7AC
:1034600049F08009054684E749F48079054680E7FC
:10347000082455E00E98002650F804AB0E909AF8F8
:103480000000002850460FD03846002F08BF4FF0EC
:10349000FF304142504600BF10F8013F013146F174
:1034A00000020BB1002AF7D0A0EB0A0009F48066F5
:1034B000B842394638BF0146002E08BF014619F010
:1034C0000200CDE9095040F01282414580F00E82A1
:1034D0000797DDE90B590D9F08F10100A8EB0104E6
:1034E000089000BF5A46202029463B460BF1010BAD
:1034F000C847013CF6D1079FFAE109950BF1010A93
:10350000252002E00BF1010A09950B9D0D9FDDF8C6
:10351000308029465A463B46C047E3E1022400BFBB
:10352000287840F00801582908BF49F0200964288C
:1035300003D0692818BF29F00C095FEA495148BF38
:1035400029F001095628099517D0692801D0642867
:103550002DD15FEA89503ED45FEAC95050D45FEA6A
:10356000496000F1C780DDF838E05FEA0960DEF805
:1035700000C048BF0FFA8CFCC0E00E990B9D51F8BB
:10358000040B0D9F0E914168DDF830800C6805EB4F
:103590000A010F94A7EB0A0203683144921B4046CC
:1035A0000094FFF723FE504400EB060A9AE15FEA1D
:1035B000895038D45FEAC95000F1AD805FEA4960B4
:1035C00000F13081DDF838C05FEA0960DCF80060A6
:1035D00048BFB6B22AE10E98073020F00700024635
:1035E000436852F8080B50EA030108BF29F010099C
:1035F0000E92089371BB19F480612BD0002255E024
:10360000DDF838E05EF804CBBCF1000F08BF29F00C
:103610001009BCF1000F40F08F8019F4806000F0B9
:103620008B800026F0E00E98073020F0070001465E
:10363000456851F8086B56EA050008BF29F01009E3
:1036400000280E9140F0998019F4806000F0958078
:10365000002211E180EAE370B0EBE37509F020008D
:1036600083EAE37180F0610061EBE376F6304FF0BE
:10367000000A0A902846314622460023FCF7F3FD53
:1036800000FB14520A9B0A2A38BF30232D1B76F107
:10369000000613440AF101020FAE06F80A3005D302
:1036A000BAF11F0F924605460E46E3D308980FA9BC
:1036B000C00FCDE9001205E119F00204099540F0B0
:1036C000AB80DDF838A0B8F1020FC0F041810BAF3C
:1036D000E0CF0A9408F10109C8F100045A462020FD
:1036E00029463B460BF1010BB0470134601CF5D174
:1036F0000A9C30E1DDF838E09EF800C0BCF1000F14
:1037000008BF29F01009BCF1000F5CD119F48060EA
:1037100059D0002676E0DDF838C05CF8046B002E46
:1037200008BF29F01009002E40F08A8019F480604B
:1037300000F0868000229DE009F0200181F0610107
:10374000604601F1F6050023BCF1000F48BFCCF143
:10375000000000BFB0FBF4F12A4601FB14060A2E5C
:1037600038BF302232445E1CA0420FA8C2544BD353
:103770001F2B33460846EDD346E009F0200080F0C9
:103780006100F6304FF0000A0A9000BF304629462B
:1037900022460023FCF767FD00FB14620A9B0A2AFD
:1037A00038BF3023361B75F1000613440AF10102BD
:1037B0000FAE06F80A305FD3BAF11F0F92460646E5
:1037C0000D46E3D358E009F0200181F06101604625
:1037D00001F1F6050022BCF1000F48BFCCF100005A
:1037E000B0FBF4F12B4601FB14060A2E38BF302340
:1037F0003344561CA0420FA8835403D31F2A3246D9
:103800000846EDD30EF1040E0FA9CDF838E04FEACB
:10381000DC70CDE9001655E00B9DDDF838A04FF0C7
:10382000010998E0DDF838C09CF80060002E08BF60
:1038300029F0100926BB19F4806021D0002139E05D
:1038400009F0200080F0610000F1F605002300BFC0
:10385000B6FBF4F0294600FB14620A2A38BF302177
:1038600011445A1CA6420FAEF15403D31F2B13462A
:103870000646EDD3CDF838C00FA8CDE9000220E010
:1038800009F0200080F0610000F1F605002300BF80
:10389000B6FBF4F02A4600FB14610A2938BF302237
:1038A0000A44591CA6420FAEF25403D31F2B0B46F9
:1038B0000646EDD30CF1040C0FA8CDF838C0CDE9C5
:1038C0000001002002A981E89101DDF830800B9D04
:1038D0000D9F404629465A463B46CDF8189000F0C9
:1038E0006BF882460998441CFFF791BC013108919E
:1038F0009AF80000A8B10AF101090DE03C460B99C5
:10390000DDE90C73C0B25A460BF1010AB84719F849
:10391000010BD346274628B1002EEFD00FB17C1EF5
:10392000EDE7DA460A9898B308980B9D0D9F40453D
:1039300032D2A8EB0004DDF8308000BF52462020D0
:1039400029463B460AF1010AC047013CF6D1C9E7C6
:103950000B9D4FF002091AF8040BDDE90C732946A0
:103960005A46CDF838A00BF1010AB8478CB1C145D1
:103970000FD2A8EB0904DDE90C8700BF52462020D6
:1039800029463B460AF1010AC047013CF6D1A9E7A6
:103990000B9DDDE90C87A5E7DDF83080A2E75A46EC
:1039A000002029463B46BB4528BF7A1EC0475846E3
:1039B00017B0BDE8F08F00002DE9F04F83B0129DE5
:1039C0001E468146DDE910700E9BDDE90C4B8A46F0
:1039D00015F0020190460091CDE901203BD148B19C
:1039E000E80709D015F00C0018BF01201199184301
:1039F000081A00E000200290BB4517D2BBF11F0F50
:103A000014D86FEA0B013944CBF11F02914238BF41
:103A10000A4602F1010804EB0B0041463022FCF794
:103A200006FD0C9C0E9BC344DDF80480E80712D011
:103A3000029883450FD2BBF11F0F0CD8029A302198
:103A40000BF10100904204F80B1003D2BBF11F0FE1
:103A50008346F5D38346E80638D50F98690507D421
:103A6000BBF1000F04D0BB4512D002998B450FD09B
:103A7000102819D115F0200104D1BBF1200F01D27B
:103A8000782017E081B1BBF1200F0DD2582011E052
:103A9000BBF101010A4618BFABF10202102818BFA2
:103AA0000A4693461028E5D0022807D1BBF11F0F24
:103AB00004D8622004F80B000BF1010BBBF11F0FBF
:103AC0009EBF302004F80B000BF1010BBBF11F0F60
:103AD0000DD80BB12D2006E0680703D4280706D5C2
:103AE000202000E02B2004F80B000BF1010BA807AD
:103AF00044460FD10298444683450BD20298424671
:103B0000A0EB0B07202051463346541CC847013F09
:103B10002246F7D1BBF1000F10D00C98A0F101089C
:103B200018F80B00514622463346ABF10105671CDD
:103B3000C847002D3C46AB46F2D100E0274600982E
:103B400098B10199DDF80880781A40450BD24D42B2
:103B5000202051463A4633467C1CC8472819404528
:103B60002746F5D302E03C4600E03C46204603B041
:103B7000BDE8F08F9A4238BF885470477047000004
:103B8000704700002DE9F04182B078B30D4679B35B
:103B900000F1240604463046294621F0EFFA019050
:103BA00068B307696168384608F010FF62688046AC
:103BB000384629461BF090FA04F13000FEF7BCFDB0
:103BC0000090B0B101A904221BF086FA0198E16AC5
:103BD000006904220844043869461BF07DFA6268D3
:103BE0004046214608F000FF09E000BFFEE700BFA5
:103BF000FEE70199304621F077FA00200190019804
:103C000058B10069616808F0E1FEE16B064628469C
:103C10008847E1680844E06000E00026304602B0D2
:103C2000BDE8F08110B540201BF0D6F930B100217D
:103C3000402204461BF022FB204610BDFEE7000098
:103C40002DE9F04381B040F20C17C2F2000797F85B
:103C5000A50007F1AC0480F0010087F8A50020461C
:103C6000FEF73CFD002800F0BA8005464FF0000842
:103C70004FF0010908E000BF20462946FEF746FD47
:103C80000546002800F0AB80286D25F0B1FB696B7C
:103C90000844686325F0C4FB87F8A48095F85410A5
:103CA00097F8A520C1F340039342286500F08E8069
:103CB00001F0FD0040EA42004A0785F854001ED496
:103CC000686B00281BD4080709D4A96939B12846B4
:103CD0008847696AEA6A014410446962E8622846D2
:103CE00027F052FBE96809B12846884795F8540047
:103CF00040F0040085F85400284627F0ADFA686BC0
:103D0000002863D4296B8842C8BF6963296A2846A2
:103D10008847A96A88420FD06A680646A86212B12D
:103D200028683146904797F8A40028B9AA681AB1C4
:103D300028463146904700BF97F8A400002845D197
:103D4000D5E90C01814241DB95F8541011F00102D4
:103D500005D16B6C5E1C022E24BF013B6B646B6C47
:103D600013B9EB6BA3B19AB9D5E90F3676426E63FE
:103D700063B312B9AA6B52426A6381F0010185F8FC
:103D80005410E96A6A6A6962C5E90B23E8631DE0B9
:103D900020462946FEF79EFD204687F8A490FEF7B0
:103DA0009DFC0146D7F8A80011B125F001FD01E006
:103DB00025F0D4FC296909B128468847696909B109
:103DC00028468847284617F0BDFE00BF97F8A40094
:103DD00000283FF451AF2046FEF780FC50E701B0C9
:103DE000BDE8F083B0B5044640680D4610B12946E1
:103DF000FFF7F8FF2268002A08BFB0BD2046294619
:103E0000BDE8B0401047000070B50E680C46316840
:103E1000054641B196F82200C00604D52160284627
:103E20002146FFF7F1FF284621462660BDE8704095
:103E3000FFF7D8BF06F0DABC06F03CBDB0B596B0CF
:103E40000446406C08B36D46284605F0D7FF4AF299
:103E5000C150C0F602000190002009904FF00040D0
:103E60000A9001200B9049F6E560C0F6000008902A
:103E70004AF2C550616CC0F60200049028460094D6
:103E80000C9106F069F816B0B0BD204616B0BDE83A
:103E9000B04026F039BB000070B5032A0CD0022ACE
:103EA00010D0012A65D1027852FA81FEBEF1FF0FCF
:103EB00028BF4FF0FF0E0AE00278CCB262434FEA0F
:103EC000122E04E00278CCB2121B22EAE27E01F448
:103ED0007F42B2F57C4FC1F3072102D84478022C0F
:103EE00003D880F800E0417070BDB2F5407F38BF64
:103EF00070BDFF2C5FFA8EFC08D1027881F0FF03C1
:103F00005A431CFB0121090A017070BDDD78AC42E7
:103F100002D15D788D420DD081F0FF0584F0FF0461
:103F20006C436FEA1424E5B2C1EB0126B6FBF5F54C
:103F30009C71DD7104885D88A54203D11C886244B0
:103F4000944214D083F800E059700188DE795980DA
:103F5000028886F0FF04D5B265431CFB06569979AA
:103F600022F0FF02B6B242EA16229A80597199886D
:103F7000018070BD70B50C0A032A4FEA114E19D0AA
:103F8000022A26D0012A5AD102784578867852FA38
:103F900081FCBCF1FF0F55FA84F24FF0FF0328BFFC
:103FA0009C46FF2A56FA8EF628BF1A46FF2E38BFC7
:103FB00033461EE00378CAB2457886785A434FEA02
:103FC000122CE2B25FFA8EF36A437343120A1B0AA1
:103FD0000FE00378CAB2457886789A1A22EAE27C22
:103FE000E2B25FFA8EF3AA1AF31A22EAE27223EA25
:103FF000E373090E08BF70BDFD2904D380F800C02B
:104000004270837070BD047881F0FF065FFA8CF512
:1040100090F801C0744315FB0144D2B206FB0CF5C5
:1040200090F802E012FB0152120A4270DAB206FB6B
:104030000EF312FB0131240A090A0470817070BD6D
:10404000B0B5B9B180290A4609D3B1FA81F2C2F1FB
:104050001A024FF0FF3303FA02F2D2430A447F2AD6
:104060000CD8D31702EB93724FEAA20C00240A2C4F
:104070000FDD3AE000244FF0000C36E0B2FA82F394
:10408000C3F11A04E24082F0200CC3F119040A2C97
:104090002BDC00EB840252694FF0FF3E0EFA0CF36A
:1040A0001A400CD052B192FAA2F2B2FA82FC00EBA2
:1040B000C41202EB8C02126CCAB93BE0FEE7026943
:1040C000631C0EFA03F312EA030E0AD09EFAAEF254
:1040D000B2FA82F400EB84025269BEF1000FE1D122
:1040E00003E00022BEF1000FDCD1002212B35368BE
:1040F00023F003038B4200D2FEE7D368E3B191685B
:10410000E1B1CB60996000EBC41303EB8C0E5EF859
:10411000403F93420ED18142CEF800100AD100EB0D
:1041200084034FF0010E5D690EFA0CF125EA0101DE
:10413000596121B11046B0BDFEE700BFFEE701693D
:104140000EFA04F3994301611046B0BDF0B54A6818
:10415000032A09D922F003030E1D9B1906D05D68BE
:10416000EC0704D10846F0BDFEE700BFFEE7032AD6
:104170000CD925F003027F2A09D8D51702EB9572D6
:104180004FEAA20E4FF0000C0AE000BFFEE7B2FAC1
:1041900082F5C5F11A04E24082F0200EC5F1190C37
:1041A000DD686DB39A686AB300EBCC14D560AA6081
:1041B00004EB8E0555F8404F9C4211D182422A6093
:1041C0000ED100EB8C040127656907FA0EF225EA8F
:1041D0000202626122B9026907FA0CF7BA4302616E
:1041E0004868032810D95A6822F0030210440430AA
:1041F000032848600AD920F0030081510846F0BD29
:10420000FEE700BFFEE700BFFEE700BFFEE70000DD
:10421000B0B531B122B14B68DC0704D1FEE700BF75
:10422000FEE70020B0BD23F0030402F110039C421E
:1042300011D2486803280DD920F0030201F10800CB
:10424000835823F0020383504A6822F001024A6037
:10425000B0BD00BFFEE701F1040C0CEB020303F15B
:104260000B0503F1080E25F00305AE4501D000BF94
:10427000FEE75D68A41A043C05F0030525430B2CFA
:104280005D602DD94C6804F0030422434A605A68EB
:10429000032A27D922F003055EF8052042F0020226
:1042A0004EF805205A68754442F001045C604C6881
:1042B00045F8043C032C17D924F0030545F80C10ED
:1042C00042F0030522F003027F2A5D600DD8D51766
:1042D00002EB95724FEAA20C4FF0000E0EE000BF09
:1042E000FEE700BFFEE700BFFEE7B2FA82F5C5F1C8
:1042F0001A04E24082F0200CC5F1190E00EBCE1238
:1043000002EB8C0454F8402F92B19BB1C3E9022018
:10431000D36023600122036902FA0EF42343036190
:1043200000EB8E00436902FA0CF21A43426180E707
:10433000FEE700BFFEE70000B0B582B0044618F00B
:10434000B3FF054618F0F4FF38B1606C20642046D6
:104350001EF0D0FB012002B0B0BDE06A01211EF0CA
:104360009FF818B1204616F013FF2AE020460121DD
:104370001FF0E2FE4FF6FF71E06AA16401211BF01D
:10438000F9F920462221002220F0B8F9D4E91001E1
:1043900081420BD06064019001AA20461E2120F0CA
:1043A000ADF90128D7D120461EF0A4FB284618F00D
:1043B000CFFF042805D120461DF09CF8002117F0FE
:1043C000F1FF012002B0B0BDC11C002818BF21F0D0
:1043D0000300704717F0B6BB03301AF0FDBD0000B4
:1043E0002DE9F041054600681446476A2846002238
:1043F00023468846B847012829D000BF02281ED18D
:1044000028682146026A2846904700B30746286874
:1044100039464369284622469847AE69384608F02F
:10442000CFFA2146B047384608F0C2FA286841461C
:10443000476A284600222346B8470228E0D0286869
:104440004146036928462246BDE8F041184700204E
:10445000BDE8F0812DE9F04F95B091468A460546BA
:10446000C8784AF651514AF65D52C0F60001C0F6CE
:104470000002109310F0010008BF0A464AF6ED4111
:1044800008924AF6C142C0F60001C0F600020B468F
:1044900008BF13460E93002808BF0A4642F2E50102
:1044A000C0F602010C9242F2F5020B46C0F602027F
:1044B00008BF1346002842F2ED00DDF888800D9316
:1044C00042F2DD03C0F60200C0F6020308BF0A464E
:1044D00001460B9208BF1946099108BF03460A938B
:1044E0000F9505E04FF0000C0F9D5FEACC7052D0A5
:1044F000D8F81420002A4ED0D8E90101D8F810309D
:10450000A0EB010E0C33002107E000BF1F68AEEBEB
:10451000070E013A03F1180306D01F7AFF07F5D101
:104520005F683944F5E700BFD8F81420002AD9D0D5
:10453000002200244FF0000C07E000BFD8F8140060
:104540000134844202F11802CED2D8F81070BE189D
:10455000357DEF07F2D1E9B19EFBF1F3D6F810B04B
:10456000D6E901070BFB03F3BB42B8BF1F46B842B5
:10457000C8BF07469F421EBF45F0010030754FF08F
:10458000010CD8F81000AEEB070E10440369C760A9
:10459000C91AD3E7FEE72846002127224FF0000B77
:1045A0001DF03CFE9AF80070D8F80C10FB1EDBB230
:1045B00002293A46B8BF0222022B4FF0FF3328BF30
:1045C0003A4653FA82F3042B2FD8D8F80420DFE8B8
:1045D00003F003081017200020990024A1EB020B20
:1045E00024E020990024891A01EBD1714FEA610B74
:1045F0001CE0209B01319A1A92FBF1FB5C4615E00E
:10460000209B9A1A92FBF1F404EBD4714FEA610BF0
:104610000CE0022907DB209B01399A1A92FBF1F486
:104620004FF0000B02E04FF0000B00249AF803104B
:10463000C6B2C90705D0012E03D128461CF0D6FE0C
:104640008344284649461CF0B1FD002800F08881CB
:1046500007461098814500F08381219807962044F1
:104660000124C0F206040490384621461DF020FFC4
:1046700060B19AF80300400700F16281A86809F16F
:104680000109018D8945C0F25F8163E1384600214F
:1046900081221DF0C3FD000612D0D8F8140058B1D5
:1046A000D8F810100C3100BF51F80C2CBA420DD0C4
:1046B000013801F11801F7D15E464FF0000B08E018
:1046C000788D5E4620F44060788533E05E46D1F810
:1046D00000B09AF80310788DC9074FF4006120F4F8
:1046E000406008BF4FF48061084407F114040E993C
:1046F00078852046884783451CD038461EF0FAF955
:1047000007F114030FCB0DF1440C8CE80F00089A4D
:1047100020465946904738462C2111AA1FF0EEFF3B
:1047200038461CF027FF25213A461FF0E7FF3846A0
:104730001EF0E0F99AF8010001281DD0022829D1C5
:10474000D8F800000C99013020F0010407F11400A2
:104750008847201A0B9A00EBD07538460021904705
:104760000A9A0446384600219047201A00EBD07080
:10477000401000EB650011E00C99D8F8005007F1EB
:10478000140088470A9A044638460021904720447E
:10479000281A03E00B9A3846002190479AF8032024
:1047A0000799D207039006D0012904D10E9907F189
:1047B00014008847361A0F9D384600216A22069653
:1047C0001DF02CFD0446384600216B221DF026FD0D
:1047D000834638461DF0EAFD064638461CF090FE3A
:1047E00004F0C041B1F1005F19D124F0C0416FF075
:1047F0006042DDF80CC091425B4613D06FF070420E
:10480000B1F1805FA8BF511A48F21F527143C5F23F
:10481000EB1251FB02F14A1102EBD17402E0DDF818
:104820000CC05B4603F0C041B1F1005F059415D1A7
:1048300023F0C0416FF0604291420FD0B1F1805F30
:104840006FF07042A8BF511A484348F21F51C5F299
:10485000EB1150FB01F0411101EBD073394651F8D7
:10486000144F9AF803004A68C00766460191029205
:104870000AD00D9A3846002166469B469047069915
:10488000029A5B46B44646189AF80300C00709D15D
:104890000D9A384600219B4690470699029A5B463E
:1048A00000EB010C1E9805990844001B00EB060B59
:1048B0001F981844801A00EB0C045BEA040016D021
:1048C00038461EF017F907F114030FCB07F1140C4B
:1048D00058445A44214423448CE80F0038461EF0C3
:1048E00009F938465946224600231EF095F99AF8F0
:1048F0000300C007DDE906B005D0012803D1049804
:10490000ABEB000B13E001980E9988470D9A5E46B9
:104910008346384600219047099A044638460021CC
:104920009047049931445944214401EB000B9AF813
:1049300003000124C0F2060440077FF59FAE00BFCC
:10494000B9F1010906DBA868006850F829701FB9A1
:1049500006E000BF00271FB1109881457FF484AEA8
:1049600015B0BDE8F08F00000120704770B582B02F
:10497000044616F0A7FD0546204616F09FFD0646A4
:1049800028461CF0F7FD0B2E044609D02E2E49D1E7
:10499000E16A2046002202B0BDE8704022F0BCBFB0
:1049A00018F082FC10B1007A01283BD069462846F5
:1049B0001CF07AFE94F8300010F00C0F14D028464A
:1049C0001CF014FD05462046002127221DF026FC80
:1049D000C0B2009905EBD572012808BF494201EB2E
:1049E000620090FBF5F009E028461CF0C9FC019933
:1049F00000EBD07201EB620191FBF0F0E66A20EA75
:104A0000E07518F051FC024600282046294618BFE0
:104A1000012222F081FFB54204D020461E2100224F
:104A20001FF06CFE02B070BD41F20401C4F202013D
:104A30000A6800F00F0022F0F00242EA001008605D
:104A40007047000041F20401C4F202010A6800F05C
:104A5000070022F4E06242EA00200860704700008C
:104A600041F20401C4F202010A6800F0070022F4D6
:104A7000605242EAC02008607047000041F25401D1
:104A8000C4F202010A68012822F0300208BF303265
:104A90000A607047042888BF7047DFE800F0030C05
:104AA00019262F0041F20000C4F20200026861F3EF
:104AB00000020260704741F20000C4F20200026886
:104AC00001F0010122F4803242EA014101607047A5
:104AD00041F20000C4F20200026801F0010122F07C
:104AE000807242EA01610160704741F20000C4F245
:104AF0000200026A61F300020262704741F20000A4
:104B0000C4F20200426A61F3000242627047000090
:104B1000B0B541F20401C4F202010A68C2F3810394
:104B200041F20022022BC0F27A020BD0A3BB0B6D24
:104B30009B0531D5CB6A9B0144BF46F60042C0F2CB
:104B4000DC2229E0D1F800C0D1F800E00C68CEF3F7
:104B5000834EC4F3417423010133BEF10F0F1D4690
:104B600018BF0225002C18BF1D465FEACC3305EBA9
:104B70000E0305D440F60012C0F23D025A430BE08A
:104B80000D68AD0301D45A4306E00D6DC5F3013540
:104B90000235B2FBF5F25A4302600A6813A3C2F36E
:104BA00003129A5C036842F6505523FA02F24260FF
:104BB0000B68C0F60305C3F30223EB5C22FA03F390
:104BC000C3600B68C3F3C223EB5C0425DA40826048
:104BD0000B68096805EA9363C1F38131194407A39F
:104BE000595CB2FBF1F10161B0BD00BF00000000F3
:104BF0000000000001020304060708090204060879
:104C0000020C081041F20002010CC4F202028958A1
:104C100000F01F0021FA00F000F0010070470000D2
:104C200041F25401C4F202010A6800F0030022F4C8
:104C3000405242EA003008607047000041F2000133
:104C40000020C4F2020100BF0A68920304D4B0F548
:104C5000405F00F10100F7D30868C0F3404070479F
:104C600041F2000200F01F034FF0010CC4F20202F7
:104C700001290CFA03F14FEA1040835814BF23EACC
:104C8000010119438150704780B541F2040EC4F20E
:104C9000020EDEF800C060B14CF48033CEF8003074
:104CA000DEF800C0012814BF4CF400302CF40030B2
:104CB00001E02CF48030CEF80000DEF8000061F353
:104CC0009540CEF80000DEF80000090961F35E703F
:104CD000CEF80000DEF8000020F0004040EAC2708C
:104CE000CEF8000080BD000041F20000C4F20200D6
:104CF000016841F00101016001688907FCD5416844
:104D000021F00301416000BF416811F00C0FFBD19D
:104D10000021416002684FF6FF73CFF6F2631A403C
:104D2000026001634FF41F018160704741F204018A
:104D3000C4F202010A6860F301020A6070470000D1
:104D400041F20400C4F202000068C0F38100704721
:104D500010B584B090F8642002F001038B421AD0A1
:104D6000002918BF012102F0FE02114480F86410EE
:104D7000C16A00F1500E9EE80C50D1E90541224471
:104D80000092CA187144019204EB0C020391694627
:104D900002921DF0C7FE04B010BD000080B521F0E6
:104DA0007F40114608F08AFE20F07F4080BD000061
:104DB0002DE9F04F83B08346C56B407D08F098FE27
:104DC000BBF81C408246E000B0FBFAF7BBF81A6063
:104DD000BBF8180031460E223B4609F075FE20B3A1
:104DE000BBF81610D0F81090090706FB04F40190E8
:104DF0001FD49BF81000F0B1012824D1D5F8008011
:104E00000020029040460C21002217F047F828B9F4
:104E100002AB40464946224616F064FF10B902989C
:104E2000A04210D0019809F0CFFE002003B0BDE8E9
:104E3000F08F286A01E0DBF80C001030016848466A
:104E400022461AF049F99BF8150000950E2840D02B
:104E500007FB06FEBEF1000F3BD04FF0FF3000FA1B
:104E60000AF009EB040209EB0E01013A6FEA0009AE
:104E70004FF0000C0026002010E000BF074604EBB6
:104E80000A00013910F0F80306F101060F701CBF8B
:104E9000012360467645A2EB03021AD01578C4B20E
:104EA00025FA04F010EA0900E8D0BAF1070FE5D8B6
:104EB00055460746EBB2C3F10803554400FA03F325
:104EC0005FFA85F8DBB2B8F1080F47EA0307F1D3C0
:104ED000D5E7DDE90001C161CBF82010012003B066
:104EE000BDE8F08F2DE9F04381B0C66B457DD6F863
:104EF00000800446072D02D14FF0080910E0082D6C
:104F000004D0092D05D14FF0400909E04FF01009F8
:104F100006E0A5F10A00B0FA80F040094FEA8029C6
:104F2000E08A00071DD4207CE8B1012838D148462A
:104F30001AF052F8A0B107460020009040460C211C
:104F4000002216F0ABFF28B96B46404639464A4668
:104F500016F0C8FE08BB009848451ED1776004E0F3
:104F6000FEE7306A00E0E0680769072D676201D15B
:104F700002200DE0082D03D0092D03D1102007E0F9
:104F8000042005E0A5F10A00B0FA80F04009000213
:104F9000A062012001B0BDE8F083384616F0D2FDD2
:104FA000002001B0BDE8F08380B504202BF058FA52
:104FB00040F27000C2F2000000684DF68361C4F256
:104FC0001B31A0FB0101880C40F20811C2F2000164
:104FD000086008684FF47A71484340F20411C2F245
:104FE0000001086080BD000080B5002808BF80BDBA
:104FF0004EF2100140F2041ECEF20001C2F2000E89
:105000004FF0320C002300BF82B2332A06D3DEF801
:105010000020323802FB0CF24A6004E0DEF80000A7
:105020005043486000208B600A6842F001020A6029
:105030000A6802F00112012AFAD00A6822F001027D
:105040000A6002048B60DFD180BD000010B10268ED
:10505000D2691047FEE70000B0B5044616F02EFAFC
:105060000546204616F062FA332D18BFB0BDD0F8C1
:10507000F00218B1BDE8B04024F09ABBB0BD00000A
:10508000F0B585B040F20000C2F2000000780028C0
:1050900048D0144691E84D00B11A1D1A4F1C80B239
:1050A00091B29AB2B3B2FBF783FA40F60040C4F271
:1050B0000100042102F0A0FF022000EB450000FBEC
:1050C00007F620463146FBF743FA4FF4A0100121C2
:1050D000FFF7C6FD3025C4F20205284600F008F9A6
:1050E0001020ADF8080043F20C00C4F2010000905B
:1050F0004FF480700390ADF8100069462846ADF873
:105100000A60019400F0AEF828460221012200F066
:10511000E7F80D200021002225F004F8284601219F
:1051200000F074F805B0F0BD70B504468069002841
:105130001CBF002070BD0E460846002101220AF067
:10514000D1F8E0B1054630460AF040FDB8B1022082
:10515000A86405F13800A060287966600928A56177
:105160004AD8DFE800F0050F161D242B32373E43E6
:10517000E96C05F10802204613F092FA3CE04FF08A
:10518000FF3070BDE96C05F10802204612F01CFAF0
:1051900032E0E96C05F10802204612F0C1FC2BE078
:1051A000E96C05F10802204613F080FC24E0E96C6C
:1051B00005F10802204613F055FC1DE0E96C05F1ED
:1051C0000802204613F07EFC16E0E96C204613F03E
:1051D00099FC11E0E96C05F1080220460BF0B6FDE0
:1051E0000AE0E96C204615F07BFB05E0E96C05F16F
:1051F0000802204614F05EFBA069032181640020B0
:10520000A06109F0E7FF012070BD0000026861F3B2
:105210000002026070470000406880B270470000E2
:1052200000210182C0E90011C0E9021170470000AD
:105230000421B0F1805FC4F2020192BF086020F047
:105240007040C1F8000470470021C4F20201B0F1BF
:10525000805F88BF01F580610968084018BF0120A0
:105260007047000002684BF6EF731A4002600A892B
:1052700003681A4302604A7C036802F0030223F4C5
:10528000405343EA02320260CA7B036802F0030221
:1052900023F4406343EA822202608A7B036802F0BF
:1052A000030223F4407343EA022202604A7B03684C
:1052B00002F0010223F0800343EAC21202600A7B7B
:1052C000036862F3861303600A7C036862F3451384
:1052D00003604A8942600A6882604968C160704719
:1052E000002A02680CBF22EA0101114301607047E5
:1052F000016821F0010101600021016041608160CD
:10530000C16040F2FF4100EA01020421B2F5816F61
:10531000C4F2020105D3D208902A88BF704701F574
:10532000806100F0FC004CF6CD420838CCF6CC424F
:10533000A0FB02026FF0030000EA92000F220B684C
:1053400002FA00F018430860704700002DE9F047AA
:10535000A0B088464FF6FF718A4248D0C46A17460B
:10536000B4F828900646994504D0608D238540F016
:105370000800608520464FF480215A221CF04EFF21
:10538000054620464FF480215C221CF047FFF16A5D
:10539000D5F80CA00546084600211BF007FF0AEBD4
:1053A0000501806901FB07F205EBD573A2EB6302EF
:1053B00010441D900844F16A01381F904869C9697A
:1053C0006D461C9028461E910BF088FC20464FF439
:1053D00080212A461DF0E0F91CAA404629460BF020
:1053E000F9F9608DA4F8289020F00800608520B0BD
:1053F000BDE8F0872DE9F043A1B088464FF6FF7174
:105400008A4224D0C46A1646B4F8289007469945C3
:1054100004D0608D238540F0080060850CAD2846DF
:105420000AF074F820464FF480212A461DF0ECF86B
:1054300020464FF480215C221CF0F0FEF96A1A909D
:1054400041B1084600211BF0B1FE07462FB921B03B
:10545000BDE8F0830027002FF9D014981A99C0688E
:10546000BA69084401EBD171A2EB610100FB06119E
:1054700008F118060844013809910B906069E16948
:1054800008900A9104A808AA3146FCF781F9B8B13E
:1054900096E80B00F2688DE80B0004AB03920FCB8B
:1054A00007F1140586E80F00384618F085FD1390C3
:1054B0000CA940462A4609F0F9FF9DE80F000FC6E7
:1054C000608DA4F8289020F00800608521B0BDE828
:1054D000F08300002DE9F0438FB01C4615460029EB
:1054E000814650D008790F4608284CD801218140C8
:1054F00011F48B7F31D0B868D0E90061D0E9022087
:10550000CDE90061CDE90220901B01300E2109F0A8
:1055100067FD304401380DF110080290404600212B
:105520002C2219F0ABFEB87DB98A8DF82700F87DE2
:10553000ADF8251039688DF8240008690A9068468E
:105540000C900889B9680D90022004918DF82C0008
:10555000484641460BF0D4FE15E0A0B90DF1100805
:10556000404609F0A1F8F87DB97D8DF83800B88A79
:10557000FA68ADF8300001208DF832100D904846E1
:10558000414612F021F8002D18BF002C02D10FB0B7
:10559000BDE8F08348462946224613F081F80FB053
:1055A000BDE8F0832DE9F04FF7B0054615F08AFF0E
:1055B0000446806B002800F06D81284615F0A0FF9E
:1055C000618D824641F00800608573A920461BF07A
:1055D00043FF608D22AE40F00800258D4FF0000B98
:1055E00060853046A4F828B00BF078FB0DAF384644
:1055F00009F08CFF20464FF4A02132461DF0CCF874
:1056000020464FF4A0213A461CF0FEFF608D002199
:1056100020F00800608520461022099525851CF0A1
:10562000FDFD07902046002111221CF0F7FD069099
:105630002046002112221CF0F1FD05902046002199
:1056400013221CF0EBFDA16B0490002900F01E81D9
:105650004EF24E06C0F603064FF00009CDF820A02A
:1056600016E09DF84401CDF814A1DDF820A040F02B
:1056700040008DF8440150463EA96FAACDF800B114
:1056800009F014FFA06B0BF1010B834580F0FE8045
:10569000E06A314650F8290021F090FB002809F11A
:1056A0000109F5D0606B50F82B00C106EAD4410621
:1056B00008D4216C4FF000088B45099908BF01F010
:1056C0002E0801E04FF08008216BC0F300204FEA64
:1056D0000B1350EA080C01EB0B12C958DDE973708B
:1056E000D2E90135D26839446F9100EB0301709122
:1056F00007EB050110447191729020D0608D53AD7D
:1057000040F0080060852846A4F828C00BF0E6FAAF
:105710003EAF384609F0FAFE20464FF4A0212A4653
:105720001DF03AF820464FF4A0213A461CF06CFFD9
:10573000608D099920F008002185608509E053A853
:1057400022A9702219F0C8FC3EA80DA9542219F014
:10575000C3FC9DF89501CDF854B1C10633D500F0D6
:10576000E00000F10F018DF895116169059B6F9ABA
:1057700019448A4204BF40F00B008DF89501E0699E
:10578000049A7199801A814205D19DF8950100F023
:10579000F7008DF89501A069079A7099104481422D
:1057A00005D19DF8950100F0FD008DF89501206A66
:1057B000069A7299801A814205D19DF8950100F0F0
:1057C000FE008DF895017098729918F02008A1EBF1
:1057D000000101F1010207D0616B01EB8B014978F7
:1057E000490744BF801A70900A92504653A96FAA85
:1057F0000AF0F0FFE06A759D00EB890050F804ACF8
:1058000073984C99281A469A4D9B9DF84351013044
:10581000CDE900100BA85146029522F051FB0DF581
:10582000DE7C9CE80710DDE90B57B8F1000F00EBB8
:105830000503A2EB030202F1010202EBD27200EBBC
:10584000620201EB0700ACEB000000F1010000EB8D
:10585000D07001EB600002EB0501719100EB0701D4
:105860006F92709072913FF4FCAE626B02EB8B0210
:10587000527852077FF5F5AE0A9A02EBD272A0EB8E
:1058800062007090A1EB62007290EAE6608D20F0F9
:105890000800608577B0BDE8F08F00002DE9F04F7B
:1058A000DDB0044615F00EFE0546204615F028FE34
:1058B00080462846002130221CF0B0FC07462846CE
:1058C000002112221CF0AAFC814628460021132246
:1058D0001CF0A4FC82462846002110221CF09EFCED
:1058E00048AE0446304609F011FE28464FF4003118
:1058F00032461CF089FED5F830B0BBF1000F32D132
:10590000A86B88B121F088FAA0B16A6C002100234D
:10591000934210D0AE6B765C01310A2E08BF013382
:105920008842F5D1014606E000208DF8A0000DF177
:10593000A00B18E000214FF0000C88424FF000034C
:105940000DD9401A002328AEAA6B0A44D25C0A2A59
:1059500005D07E2B03D8F25401339842F4D10DF1D7
:10596000A00B0BF803C009EB0700069095F84C005C
:10597000E61900F00F000138B0FA80F0440928461B
:1059800000212722BA441CF049FC4FF0FF3151FAA4
:1059900080F0B0FA80F1686B4909002841EA0401FF
:1059A00007917ED0CDE9046817F070FC0446022808
:1059B00011D19DF86B01696B509ADDE956C36FF008
:1059C0006046CDE901600AA8CDF800C022F078FA5F
:1059D000DDE90A980DE0686B0AA916F001FEBDF832
:1059E0002C90BDF82E804FF0FF3101281CBF894656
:1059F0008846079830B1686906995746084424904C
:105A0000484406E0E8695746A0EB0A00A0EB09010C
:105A10002491D5F818A00138022C269010D1049EAC
:105A2000696B0AEB060025904044DDF814800138CC
:105A300027904F9148A924AA404609F037FD2FE04E
:105A400028461BF05DFDA0EB080000EBD0700AEBD0
:105A500060002590404401380AAC2790204609F0A8
:105A600003FD28464FF4003122461CF071FD09EB7E
:105A7000D97008EBD87140104910CDE91A012846B9
:105A80004FF400316E221CF0C9FB696BDDF8148005
:105A90001590119124AA4046214609F097FC049ED6
:105AA000BA460AAC204609F031FD284600212246BC
:105AB0001CF0AAFD9DF87300129ADDE918736FF0CF
:105AC0006041CDE9011008A85946009722F0F8F985
:105AD000A869696B099A304425901044279041B118
