:020000040800F2
:10000000C8C80220250200082D150008B9050008FF
:1000100029150008590500083916000800000000DD
:10002000000000000000000000000000351500087E
:10003000B50500080000000031150008391500085A
:100040003F0200083F0200083F0200083F0200088C
:100050003F0200083F0200083F0200083F0200087C
:100060003F0200083F0200083F0200083F0200086C
:100070003F0200087D0500083F0200083F0200081B
:100080003F0200083F0200083F0200083F0200084C
:100090003F0200083F0200083F0200083F0200083C
:1000A0003F020008091600083F0200083F0200084E
:1000B0003F0200083F0200083F0200083F0200081C
:1000C0003F0200083F0200083F0200083F0200080C
:1000D0003F0200083F0200083F0200083F020008FC
:1000E0003F0200083F0200083F0200083F020008EC
:1000F0003F0200083F0200083F0200083F020008DC
:100100003F0200083F0200083F0200083F020008CB
:100110003F0200083F0200083F0200083F020008BB
:100120003F0200083F0200083F0200083F020008AB
:100130003F0200083F0200083F0200083F0200089B
:1001400000000000000000000000000000000000AF
:100150003F0200083F0200083F0200083F0200087B
:100160003F0200083F0200083F0200083F0200086B
:100170003F0200083F0200083F0200083F0200085B
:100180003F02000800F002F800F03CF80AA090E8F6
:10019000000C82448344AAF10107DA4501D100F042
:1001A00031F8AFF2090EBAE80F0013F0010F18BFD3
:1001B000FB1A43F0010318479CDF0300BCDF030078
:1001C000103A24BF78C878C1FAD8520724BF30C883
:1001D00030C144BF04680C60704700000023002455
:1001E00000250026103A28BF78C1FBD8520728BF47
:1001F00030C148BF0B6070471FB532F05AFA1FBDBF
:1002000010B510BD00F06EF91146FFF7F5FF29F0AB
:1002100057FD00F08CF903B4FFF7F2FF03BC00F0C8
:1002200093F900000948804709480047FEE7FEE7C8
:10023000FEE7FEE7FEE7FEE7FEE7FEE7FEE7FEE796
:1002400004480549054A064B704700003D15000863
:1002500085010008C8C20220C8C80220C8C4022004
:10026000C8C4022053EA020C00F069802DE9F04B6B
:100270004FF00006002B1FBFB3FA83F503FA05F415
:1002800024FA05F65E4012BF1643B2FA82F502FA6E
:1002900005F4C5F120051EBF22FA05FC44EA0C0452
:1002A000203556EA044C4FEA144418BF641C4FF042
:1002B00000084FF00009904271EB030C39D300297C
:1002C00019BFB1FA81F701FA07F6B0FA80F700FA20
:1002D00007F6C7F120071EBF20FA07FC46EA0C0606
:1002E0002037B6FBF4FCA7EB0507103F07F01F0B08
:1002F000CBF120062CFA06F60CFA0BFB44BFB346F2
:100300000026202FA4BF5E464FF0000B5BEA060CD0
:1003100008BF4FF0010B19EB0B0948EB0608ABFBCC
:10032000027C06FB02CC0BFB03CCC01B71EB0C0167
:10033000C1E70B46024641464846BDE8F08B13B57F
:10034000084318BF4FF0FF300146AFF30080BDE80F
:100350001C40704753EA020C23D010B54C1084EABD
:10036000530404D54042C1F1000138BF491E1B426D
:1003700004D55242C3F1000338BF5B1EFFF772FF82
:1003800014F0804F04D04042C1F1000138BF491E33
:1003900014F0004F04D05242C3F1000338BF5B1E7B
:1003A00010BD13B540424FF0000070EB0104B8BF20
:1003B000012001F0004100281CBF6FF000414FF008
:1003C000FF30AFF300801CBD10B5203AC0F00B80A9
:1003D000B1E81850A0E81850B1E81850A0E818503B
:1003E000203ABFF4F5AF5FEA027C24BFB1E81850B1
:1003F000A0E8185044BF18C918C0BDE810405FEA13
:10040000827C24BF51F8043B40F8043B08BF70478E
:10041000D20728BF31F8023B48BF11F8012B28BF93
:1004200020F8023B48BF00F8012B704702F0FF03A1
:1004300043EA032242EA024200F034B802F0FF032A
:1004400043EA032242EA024200F002B84FF00002FF
:1004500000B5134694469646203922BFA0E80C50BA
:10046000A0E80C50B1F12001BFF4F7AF090728BF95
:10047000A0E80C5048BF0CC05DF804EB890028BF11
:1004800040F8042B08BF704748BF20F8022B11F03A
:10049000804F18BF00F8012B7047704770477047B6
:1004A0004FF000020429C0F0128010F0030C3FF45A
:1004B000CFAFCCF1040CBCF1020F18BF00F8012B38
:1004C000A8BF20F8022BA1EB0C01FFF7C1BF5FEA28
:1004D000C17C24BF00F8012B00F8012B48BF00F8B5
:1004E000012B7047754600F02BF8AE4605006946B3
:1004F000534620F00700854618B020B5FFF7A0FE50
:10050000BDE820404FF000064FF000074FF0000814
:100510004FF0000BAC46ACE8C009ACE8C009ACE851
:10052000C009ACE8C00921F007018D46704710B53D
:100530000446AFF300802046BDE81040FFF76BBED5
:10054000004870477800002001491820ABBEFEE744
:100550002600020070470000FEE700000129B8BF36
:1005600070470238023100BF10F8022F0239437879
:10057000022942700370F7DC7047000080B54FF429
:10058000007004F04DFE002808BF80BD4FF40070DD
:1005900004F03AFE40F60040C4F20100042107F0E6
:1005A000DDFC40F2DC00C2F200000068BDE88040E3
:1005B0000DF0E2BB70470000FEE700002DE9F047B8
:1005C00040F60004C4F20104894607462046402153
:1005D0009846924607F0C0FC04F580652846042141
:1005E00007F0BAFC04F5205630462A212DF050FDC4
:1005F000304680212DF058FD0028F9D128460421ED
:1006000007F0ACFC2046402107F0A8FC384600F07B
:1006100059FF504600F056FF2046402107F09CFC51
:100620002846042107F098FC30462B212DF030FDA0
:10063000304680212DF038FD0028F9D128460421CC
:1006400007F08CFC2046402107F088FC484600F06B
:1006500039FF404600F036FF2046402107F07CFC81
:100660002846042107F078FC30462C212DF010FD9F
:10067000304680212DF018FD0028F9D128460421AC
:1006800007F06CFC20464021BDE8F04707F066BC4F
:100690002DE9F04184B040F2D8000226C2F20000F9
:1006A0000125C0F2180640F60044057030460121CD
:1006B000C4F2010404F0CCFA701C012104F0C8FA61
:1006C00002AF384607F04CFC029541F60005C0F237
:1006D000101520463946039507F04CFC384607F0C4
:1006E0003FFC4020A4F58068CDE90205404639462C
:1006F00007F040FC384607F033FC0420CDE9020542
:100700002046394607F036FC384607F029FC082019
:10071000CDE902054046394607F02CFC2046012170
:1007200007F01CFC4046402107F018FC204604213D
:1007300007F014FC4046082107F00EFC304601216A
:1007400004F086FA06F10A00012104F081FA02AEF3
:10075000304607F005FC802040F200450290C0F2D0
:10076000081540463146039507F004FC304607F073
:10077000F7FB2020CDE902054046314607F0FAFBA1
:100780006F4638462DF072FC4FF48070009040F2B6
:100790000010C0F2011004F51056019030463946A1
:1007A0002DF088FC304601212DF074FC30460121EB
:1007B0002DF064FC2046012107F0D0FB0A2004F054
:1007C0000BFC2046012107F0C7FB0A2004F004FCC3
:1007D0002046012107F0C2FB782004F0FDFB4046D3
:1007E000082107F0BBFB4046402107F0B5FB20463F
:1007F000042107F0B1FB3046FE212DF049FC00BF7B
:10080000304680212DF050FC0028F9D120460421EB
:1008100007F0A4FB4046402107F0A0FB40464021E2
:1008200007F09AFB2046042107F096FB3046EF21A3
:100830002DF02EFC304680212DF036FC0028F9D119
:100840002046042107F08AFB4046402107F086FB42
:100850004046402107F080FB2046042107F07CFB46
:100860003046B0212DF014FC304680212DF01CFCC8
:100870000028F9D12046042107F070FB40464021B2
:1008800007F06CFB2046042107F066FB3046C021D0
:100890002DF0FEFB304680212DF006FC0028F9D11A
:1008A0002046042107F05AFB4046402107F054FB44
:1008B0002046042107F050FB3046B1212DF0E8FB23
:1008C000304680212DF0F0FB0028F9D1204604218C
:1008D00007F044FB4046402107F040FB204604213E
:1008E00007F03AFB304680212DF0D2FB30468021C4
:1008F0002DF0DAFB0028F9D12046042107F02EFB69
:100900004046402107F028FB2046042107F024FB45
:100910003046B2212DF0BCFB304680212DF0C4FBC7
:100920000028F9D12046042107F018FB4046402159
:1009300007F014FB2046042107F00EFB3046272168
:100940002DF0A6FB304680212DF0AEFB0028F9D11A
:100950002046042107F002FB4046402107F0FCFA44
:100960002046042107F0F8FA3046B3212DF090FB21
:10097000304680212DF098FB0028F9D12046042133
:1009800007F0ECFA4046402107F0E8FA204604213F
:1009900007F0E2FA304613212DF07AFB3046802131
:1009A0002DF082FB0028F9D12046042107F0D6FA69
:1009B0004046402107F0D0FA2046042107F0CCFA47
:1009C0003046B6212DF064FB304680212DF06CFBC3
:1009D0000028F9D12046042107F0C0FA4046402102
:1009E00007F0BCFA2046042107F0B6FA3046192178
:1009F0002DF04EFB304680212DF056FB0028F9D11A
:100A00002046042107F0AAFA4046402107F0A4FA44
:100A10002046042107F0A0FA3046B7212DF038FB1C
:100A2000304680212DF040FB0028F9D120460421DA
:100A300007F094FA4046402107F090FA204604213E
:100A400007F08AFA304605212DF022FB304680213E
:100A50002DF02AFB0028F9D12046042107F07EFA68
:100A60004046402107F078FA2046042107F074FA46
:100A70003046AC212DF00CFB304680212DF014FBCC
:100A80000028F9D12046042107F068FA40464021A9
:100A900007F064FA2046042107F05EFA3046C821C8
:100AA0002DF0F6FA304680212DF0FEFA0028F9D11B
:100AB0002046042107F052FA4046402107F04CFA44
:100AC0002046042107F048FA3046AB212DF0E0FA29
:100AD000304680212DF0E8FA0028F9D12046042183
:100AE00007F03CFA4046402107F038FA204604213E
:100AF00007F032FA30460F212DF0CAFA3046802135
:100B00002DF0D2FA0028F9D12046042107F026FA68
:100B10004046402107F020FA2046042107F01CFA45
:100B200030463A212DF0B4FA304680212DF0BCFA3F
:100B30000028F9D12046042107F010FA4046402150
:100B400007F00CFA2046042107F006FA304605218A
:100B50002DF09EFA304680212DF0A6FA0028F9D11A
:100B60002046042107F0FAF94046402107F0F4F945
:100B70002046042107F0F0F93046B4212DF088FA20
:100B8000304680212DF090FA0028F9D1204604212A
:100B900007F0E4F94046402107F0E0F9204604213F
:100BA00007F0DAF9304604212DF072FA3046802140
:100BB0002DF07AFA0028F9D12046042107F0CEF969
:100BC0004046402107F0C8F92046042107F0C4F947
:100BD0003046A8212DF05CFA304680212DF064FAD1
:100BE0000028F9D12046042107F0B8F940464021F9
:100BF00007F0B4F92046042107F0AEF93046082189
:100C00002DF046FA304680212DF04EFA0028F9D119
:100C10002046042107F0A2F94046402107F09CF944
:100C20002046042107F098F93046B8212DF030FA1B
:100C3000304680212DF038FA0028F9D120460421D1
:100C400007F08CF94046402107F088F9204604213E
:100C500007F082F9304608212DF01AFA304680213B
:100C60002DF022FA0028F9D12046042107F076F968
:100C70004046402107F070F92046042107F06CF946
:100C80003046EA212DF004FA304680212DF00CFA8E
:100C90000028F9D12046042107F060F940464021A0
:100CA00007F05CF92046042107F056F9304602218E
:100CB0002DF0EEF9304680212DF0F6F90028F9D11B
:100CC0002046042107F04AF94046402107F044F944
:100CD0002046042107F040F93046E8212DF0D8F9EC
:100CE000304680212DF0E0F90028F9D1204604217A
:100CF00007F034F94046402107F030F9204604213E
:100D000007F02AF930462A212DF0C2F93046802119
:100D10002DF0CAF90028F9D12046042107F01EF968
:100D20004046402107F018F92046042107F014F945
:100D30003046E9212DF0ACF9304680212DF0B4F990
:100D40000028F9D12046042107F008F94046402147
:100D500007F004F92046042107F0FEF83046472149
:100D60002DF096F9304680212DF09EF90028F9D11A
:100D70002046042107F0F2F84046402107F0ECF845
:100D80002046042107F0E8F83046E7212DF080F9ED
:100D9000304680212DF088F90028F9D12046042121
:100DA00007F0DCF84046402107F0D8F8204604213F
:100DB00007F0D2F830465F212DF06AF930468021E5
:100DC0002DF072F90028F9D12046042107F0C6F869
:100DD0004046402107F0C0F82046042107F0BCF847
:100DE0003046C6212DF054F9304680212DF05CF9B3
:100DF0000028F9D12046042107F0B0F840464021F0
:100E000007F0ACF82046042107F0A6F8304621216F
:100E10002DF03EF9304680212DF046F90028F9D119
:100E20002046042107F09AF84046402107F094F844
:100E30002046042107F090F83046C7212DF028F90C
:100E4000304680212DF030F90028F9D120460421C8
:100E500007F084F84046402107F080F8204604213E
:100E600007F07AF8304615212DF012F9304680212E
:100E70002DF01AF90028F9D12046042107F06EF868
:100E80004046402107F068F82046042107F064F846
:100E90003046F0212DF0FCF8304680212DF004F989
:100EA0000028F9D12046042107F058F84046402197
:100EB00007F054F82046042107F04EF830461D2173
:100EC0002DF0E6F8304680212DF0EEF80028F9D11B
:100ED0002046042107F042F82046042107F03CF8A0
:100EE000304638212DF0D4F8304680212DF0DCF842
:100EF0000028F9D12046042107F030F820460421CB
:100F000007F02AF8304609212DF0C2F8304680213A
:100F10002DF0CAF80028F9D12046042107F01EF868
:100F20002046042107F018F830464D212DF0B0F886
:100F3000304680212DF0B8F80028F9D12046042150
:100F400007F00CF82046042107F006F830469221FD
:100F50002DF09EF8304680212DF0A6F80028F9D11A
:100F60002046042106F0FAFF2046042106F0F4FF93
:100F700030462F212DF08CF8304680212DF094F84A
:100F80000028F9D12046042106F0E8FF204604217C
:100F900006F0E2FF304635212DF07AF83046802108
:100FA0002DF082F80028F9D12046042106F0D6FF62
:100FB0002046042106F0D0FF304652212DF068F87B
:100FC000304680212DF070F80028F9D12046042108
:100FD00006F0C4FF2046042106F0BEFF30461E2165
:100FE0002DF056F8304680212DF05EF80028F9D11A
:100FF0002046042106F0B2FF2046042106F0ACFF93
:1010000030460C212DF044F8304680212DF04CF86C
:101010000028F9D12046042106F0A0FF2046042133
:1010200006F09AFF304604212DF032F83046802138
:101030002DF03AF80028F9D12046042106F08EFF61
:101040002046042106F088FF304612212DF020F8BA
:10105000304680212DF028F80028F9D120460421BF
:1010600006F07CFF2046042106F076FF304614216E
:101070002DF00EF8304680212DF016F80028F9D119
:101080002046042106F06AFF2046042106F064FF92
:1010900030461F212CF0FCFF304680212DF004F853
:1010A0000028F9D12046042106F058FF404640218F
:1010B00006F052FF2046042106F04EFF3046F12193
:1010C0002CF0E6FF304680212CF0EEFF0028F9D10D
:1010D0002046042106F042FF4046402106F03EFF34
:1010E0002046042106F038FF304616212CF0D0FFB0
:1010F000304680212CF0D8FF0028F9D12046042169
:1011000006F02CFF2046042106F026FF3046402141
:101110002CF0BEFF304680212CF0C6FF0028F9D10C
:101120002046042106F01AFF2046042106F014FF91
:1011300030461C212CF0ACFF304680212CF0B4FF4F
:101140000028F9D12046042106F008FF204604219A
:1011500006F002FF304654212CF09AFF30468021E1
:101160002CF0A2FF0028F9D12046042106F0F6FE5B
:101170002046042106F0F0FE3046A9212CF088FF1D
:10118000304680212CF090FF0028F9D12046042120
:1011900006F0E4FE2046042106F0DEFE30462D2156
:1011A0002CF076FF304680212CF07EFF0028F9D10C
:1011B0002046042106F0D2FE2046042106F0CCFE93
:1011C00030462E212CF064FF304680212CF06CFF3D
:1011D0000028F9D12046042106F0C0FE2046042153
:1011E00006F0BAFE304656212CF052FF30468021E0
:1011F0002CF05AFF0028F9D12046042106F0AEFE5B
:101200002046042106F0A8FE304610212CF040FFB5
:10121000304680212CF048FF0028F9D120460421D7
:1012200006F09CFE2046042106F096FE30460D2175
:101230002CF02EFF304680212CF036FF0028F9D10B
:101240002046042106F08AFE2046042106F084FE92
:1012500030460C212CF01CFF304680212CF024FF5E
:101260000028F9D12046042106F078FE204604210A
:1012700006F072FE30461A212CF00AFF304680211B
:101280002CF012FF0028F9D12046042106F066FE5A
:101290002046042106F060FE304614212CF0F8FEB2
:1012A000304680212CF000FF0028F9D1204604218F
:1012B00006F054FE2046042106F04EFE30461E2164
:1012C0002CF0E6FE304680212CF0EEFE0028F9D10D
:1012D0002046042106F042FE4046402106F03CFE36
:1012E0002046042106F038FE3046F4212CF0D0FED2
:1012F000304680212CF0D8FE0028F9D12046042168
:1013000006F02CFE4046402106F028FE204604212F
:1013100006F022FE304600212CF0BAFE3046802135
:101320002CF0C2FE0028F9D12046042106F016FE5A
:101330002046042106F010FE304600212CF0A8FEC5
:10134000304680212CF0B0FE0028F9D1204604213F
:1013500006F004FE2046042106F0FEFD3046FF2183
:101360002CF096FE304680212CF09EFE0028F9D10C
:101370002046042106F0F2FD4046402106F0ECFD37
:101380002046042106F0E8FD3046BA212CF080FE0C
:10139000304680212CF088FE0028F9D12046042117
:1013A00006F0DCFD4046402106F0D8FD2046042131
:1013B00006F0D2FD3046FF212CF06AFE3046802137
:1013C0002CF072FE0028F9D12046042106F0C6FD5B
:1013D0002046042106F0C0FD3046FF212CF058FEC7
:1013E000304680212CF060FE0028F9D120460421EF
:1013F00006F0B4FD4046402106F0AEFD2046042133
:1014000006F0AAFD304636212CF042FE30468021FF
:101410002CF04AFE0028F9D12046042106F09EFD5A
:101420004046402106F09AFD2046042106F094FD36
:101430003046C0212CF02CFE304680212CF034FEAA
:101440000028F9D12046042106F088FD40464021BD
:1014500006F082FD2046042106F07EFD3046112173
:101460002CF016FE304680212CF01EFE0028F9D10B
:101470002046042106F072FD4046402106F06EFD34
:10148000782003F0A9FD4046402106F065FD204686
:10149000042106F061FD304629212CF0F9FD00BF42
:1014A000304680212CF000FE0028F9D1204604218E
:1014B00006F054FD4046402106F050FD04B0BDE862
:1014C000F0810000F0B581B040F60044C4F20104A0
:1014D0000646070A2046042106F03EFD04F5105595
:1014E000284639462CF0D4FD284680212CF0DCFD1E
:1014F0000028F9D12046042106F030FD20460421C1
:1015000006F02AFDF1B228462CF0C2FD28468021C3
:101510002CF0CAFD0028F9D12046042101B0BDE815
:10152000F04006F01BBD0000FEE700007047000021
:101530007047000070470000704700004EF6885C5E
:10154000CEF2000CDCF8002041F2000142F47002FF
:10155000C4F20201CCF800200A6842F001020A60DD
:101560000A689207FCD54A6822F003024A6000BF6D
:101570004A6812F00C0FFBD100224A600B684FF64C
:10158000FF70CFF6F260184008604FF41F000A6346
:1015900088604FF000604CF8800C70474CF2B0212E
:1015A000C2F202010870704710B586B000200590A5
:1015B000CDE90300CDE9010001A803F0A1FA0B2059
:1015C000C0F21800012103F043FB42F60044C4F2CC
:1015D00001042046092145F6BF522FF0F1FD2046B7
:1015E00000212FF0F5FD2046012101222FF00AFEF7
:1015F00019200021002228F0EFFC204601212FF0C5
:10160000F1FD06B010BD000010B542F60044C4F272
:101610000104204601212FF0EFFD002808BF10BD76
:10162000204601212FF0E4FD0120FFF7B7FF012044
:10163000BDE8104027F098BEFEE70000B0B540F2CC
:10164000E805C2F2000505F1AC042046582101F07E
:1016500065F843F63140C0F600002121002227F052
:10166000BFFEC5F8A800012085F8A400204601F0BF
:101670002FF80146D5F8A80011B127F0F9FF01E0D5
:1016800027F0CCFF0020A5F8A400B0BD2DE9F04361
:10169000D1F800C093689C450BDC8F681668B74290
:1016A00007DB4F68D668B74203DCCF685668B7429D
:1016B00003DAFF2358B2BDE8F0831768BC450ADBA4
:1016C0004F685668B74206DB8F689F4203DCCB68E1
:1016D000D768BB4252DDD1E9013E5568CC689D42D6
:1016E000A4EB0304D1BF0023C0E900C3C0E902E5B5
:1016F0000123D5684E68671B3744012F0FDBCF6885
:10170000BD420CDA0F6806EB040900EB03161C015E
:10171000D1F8088001330751341D84E82003D2E951
:1017200000874D68D668CC68AF42C8BF3D460F6899
:10173000A642B8BF3446B845AEEB0C0CC8BFAC42AD
:1017400009DD00EB03164FEA031E013340F80E706B
:10175000C6E90158F46092680968ACEB02070F44CF
:10176000012F08DB614400EB03171E010133825196
:10177000C7E90151FC6058B2BDE8F083002358B2BC
:10178000BDE8F08370B5034691E8015092E870001F
:10179000C968A042D268C8BF0446AC45C8BF654608
:1017A000B645B8BF76469142B8BF0A460020B4425B
:1017B0004FF0000183E87000D8BF01219542D8BFE7
:1017C00001200840DA6070BD2DE9F04383B00C467B
:1017D000076809688F4231DB466861688E422DDBFD
:1017E000D0F80890A168894528DCD0F80C80E06822
:1017F000804523DC15462AB301A920462A46CDE9B7
:10180000017600F07BF8C8B101A920462A46CDE94F
:10181000019600F073F888B101A920462A46CDE967
:10182000017800F06BF848B101A920462A46CDE9BD
:10183000019800F063F803B0BDE8F083002003B026
:10184000BDE8F083012003B0BDE8F08302688B6837
:101850009A420DDC82680B689A4209DB4268CB68C9
:101860009A4205DCC06849688842A4BF01207047DD
:10187000002070472DE9F04383B00C468668096864
:101880008E420DDBC76861688F4209DBD0F80080AB
:10189000A168884504DCD0F80490E068814503DD48
:1018A000012003B0BDE8F0831546BAB101A9204676
:1018B0002A46CDE9018900F021F878B901A920462E
:1018C0002A46CDE9016900F019F838B901A9204686
:1018D0002A46CDE9018700F011F818B1002003B0C5
:1018E000BDE8F08301A920462A46CDE9016700F052
:1018F00005F880F0010003B0BDE8F0832DE9F04168
:101900000B680568AB420BDBD0F808E0734507DCD9
:101910004968D0F804C0614502DBC068814202DD3D
:101920000020BDE8F081012A30DBAEEB0504013474
:1019300004EBD476A0EB0C04013404EBD4774FEA2B
:1019400066087C10B8EB670FB8BF74109442A8BF4C
:1019500014466619B34204EB0C02D8BF914218DD5D
:10196000B342A0EB040029DC814227DB670021445D
:1019700000EB670005EB6706081A44F31E029B1B89
:10198000404302FB02F103FB03024EE00120BDE8ED
:10199000F081620005EB62070CEB620244F31E006B
:1019A000891ADB1B00FB00F201FB01F003FB0301C2
:1019B0000020914298BF0120BDE8F081AEEB040504
:1019C000AB42A8BF81421EDAAB424FF0010018DBE8
:1019D0009142C8BFBDE8F081281BAEEB000202EBCC
:1019E000D272571000EB62000CEB6202891A181ACF
:1019F000494300FB001107FB07F20020914298BF0A
:101A00000120BDE8F0812A1BAEEB020707EBD77778
:101A1000214400EB670002EB6702081A7E109A1A55
:101A2000404306FB06F102FB020200208A4298BFF7
:101A30000120BDE8F081000070B591E8085092E8FF
:101A40007000C968A342D268B8BF1C46AC45B8BF95
:101A50006546B645C8BF76469142C8BF0A4680E88B
:101A60007000C26070BD00002DE9F04F9BB040F2E5
:101A7000E80BC2F2000B28B1C168CBF8101027F0B8
:101A8000CDFD03E00CF08AF9CBF81000DBF8100074
:101A9000002800F03D83416A002900F039830A697B
:101AA000002A00F03583C968002900F03183342111
:101AB00000220CF033FADBF81000D0F8B00223F06B
:101AC000D1F8DBF81000D0F8B402002818BF23F0DA
:101AD000C9F8DBF81000D0F8BC0223F0C3F8DBF83B
:101AE0001000D0F8C00223F0BDF8DBF81000D0F8E9
:101AF000C40223F0B7F8DBF81000D0F8B0120029C8
:101B000000F0FB82D0F85C1200295ED000270DF1B6
:101B10002C094FF0010806E0DBF810000137D0F87F
:101B20005C128F4251D2384490F83C020028F3D125
:101B3000DBF81010D1F85C020028EDD000243C2521
:101B400008E000BFDBF810100134D1F85C0210355A
:101B50008442E1D2081990F83C020028F2D1A74251
:101B6000F0D001EB07103C302944FFF76FFE00284E
:101B7000E8D0DBF8100000EB07113C314219484671
:101B8000FFF75AFF484609F037F8DBF81010824695
:101B900001EB07103C3009F02FF8DBF81010064677
:101BA000481909F029F830448245CBD2DBF81000FF
:101BB0000DF12C0C00EB07119CE84C103C3120443B
:101BC00081E84C1080F83C82BCE7DBF8100090F80C
:101BD0003910012940F0CC800CF086F9002800F083
:101BE000C780DBF8100000F5197000F005FE002832
:101BF00040F0BE80DBF810403A21204600220CF075
:101C00008DF9E16A11B12046884702E0206B002877
:101C1000FCD10020606320463B2100220CF07EF9BD
:101C2000DBF81000C569446AAC4208BF056A0CF0D5
:101C3000C9F8DBF81010804608460CF03DF90BAEF1
:101C4000074630464021FEF701FCDBF81000CDE9E5
:101C50000454D0F85C12CDE90278002959D0A6F1DD
:101C600010014FF0000A4FF0000906910AE000BF92
:101C7000DBF8100009F10109D0F85C121FFA89FAAB
:101C8000514546D900EB0A0191F83C120029EFD1E9
:101C900000F5197000F01CFD0028E9D007460CE0A3
:101CA000DBF81000394600F5197000F00DFE3846DB
:101CB00019F0D8FE002C2746DAD0DBF810003946A0
:101CC00000F5197000F01CFDDBF81010044601EB64
:101CD0000A1000F13C0230463946FFF7D7FC411CA0
:101CE000E8D00128DCDBDDF81880C5B2DBF8100095
:101CF000394600F5197000F033FD58F8101F013D0A
:101D0000016008F104030ECBC360C0E90112EDD1FC
:101D1000C6E70021CDE90711039900F519700139D3
:101D20000991029901390A9100F0D2FCDDE90475AC
:101D3000B8B1044607AE00BF204621463246FFF741
:101D400021FD284621463A4623460CF059FDDBF892
:101D50001000214600F5197000F0D2FC044600285E
:101D6000EAD1DBF81000002100F5197000F070FCDA
:101D7000DBF81000D0F85C12002900F0708100BF81
:101D80004C1E06D4014491F83B1200292146F7D19C
:101D900000E00024362100220CF0C0F8DBF810002F
:101DA00090F8381090F83A2001F0FE0180F83810D1
:101DB00090F8381042F0020201F0FD0180F838106E
:101DC000D0F85C1280F83A200129C0F242810DF16E
:101DD0002C094FF0000802941DE090F8381090F89C
:101DE000382001F0010102F0FD0242EA410180F8D1
:101DF0003810069B0FCB05F1180C8CE80F00284615
:101E000028F028FCDBF8100008F10108D0F85C127B
:101E1000884580F21E8100EB080191F83C120029F0
:101E2000F0D1A04505D190F8381041F0010180F8BB
:101E3000381090F8381000EB081201F0FD0180F81E
:101E40003810D0F8A052416A02F13C0A296090F89B
:101E50003910CDF818A000293FD04FF0000AC5E98D
:101E600001AA0BF0AFFF0138E860DBF810000CF0BE
:101E700023F8D5E90062D5E90273411E2961297D65
:101E80009A1A0132C31B3046CDF800A00CF0E8FFCF
:101E9000002800F0DB80DBF810000BF093FFDBF88C
:101EA0001010461E08460CF007F8471E4846002151
:101EB00000223346009708F0D5FEDBF8100090F8BA
:101EC0003910012989D002299CD190F838104B464D
:101ED00041F0020180F838108CE752F8409FDAF8A0
:101EE0000040114651F8047F164656F808AF049199
:101EF00003920BF0E1FF824501DA306804E0DBF881
:101F000010000BF0D9FF0138DBF81060059096F84F
:101F10003B000BF08FFD0028A7EB04000CBF96F8E8
:101F20003B1010210130AAEB090202F1010A0CF06A
:101F3000E7FF716A0BAFC968B1FBF0F05045B8BF5D
:101F40008246002054460D90CDE90B00DBF81000CE
:101F5000A4F1010930213A46CDF838900BF0DEFFAC
:101F60000E980C99461C701A504503DD012C4C4606
:101F7000ECDC00E0A14603984FF0000A0368B9F1D9
:101F8000000FD8BF56469819059F0138B84236DC75
:101F90005C1EA7EB060908E0284628F05BFB059FBE
:101FA00006EB0A00B842544627DCDBF81000069A1C
:101FB000049B1268406A1B68611C05F1080C06EB63
:101FC000040AC5E900028CE80A04C5E90621297D56
:101FD0009A1AC5E9083A01323346002700970CF0F7
:101FE0003FFF88B3A145D7D1DBF8100090F8381037
:101FF00041F0020180F83810CEE70AF10103029C9B
:1020000057450DF12C093FF4FDAE0699DBF81000A1
:102010000A680499406A0E6805F1180185E8CD0048
:10202000CCC1297DB21AFB1A013201330027009777
:102030000CF016FF60B1DBF8100090F8381041F09A
:10204000020180F83810DAE6FEE700BFFEE700BFC5
:10205000FEE790F83A1001F0FD0180F83A10DBF845
:102060001000D0F85C1200294AD0372100220BF072
:1020700055FFDBF810000BF037FF60B3DBF8100002
:1020800090F83910012926D130F0C0FADBF81000A1
:10209000D0F85C12F9B100243C2507E0DBF8100011
:1020A0000134D0F85C1210358C4214D2011991F829
:1020B0003C120029F2D100F5197000F083FBDBF827
:1020C00010104A5929440260D1E90123C968C0E9C6
:1020D0000123C160E2E7DBF8100000213C304FF43F
:1020E00000721DF05BF8DBF81000002100F50F70A6
:1020F00020221DF053F8DBF810000021C0F85C121C
:1021000000F010F9DBF81000352100220BF006FF7B
:102110001BB0BDE8F08F00002DE9F04381B040F224
:10212000E804C2F2000404F1C800002118220025CE
:102130001DF034F844F2C936C0F6000644F2C53743
:1021400044F2B93842F23D6904F1C800C0F6000714
:10215000C0F60008C0F6030980E8C00104F1E00001
:1021600000211822C4E93555C4F8DC901DF016F89A
:1021700004F1E00080E8C001C4E93B55C4F8F490E4
:1021800001B0BDE8F0830000002B08BF70472DE9C7
:10219000F0479CB00D469A46EB6A17468146D2E955
:1021A0000010D2E90262CDE918101A961B923BB9D1
:1021B0002C6BB4F5807F03D16C6BB4F5807F1AD0A3
:1021C000101A711A421C288EAE8E013105F140049E
:1021D000CDE9000618A8029400F0F4F818AED7E98B
:1021E00000014CCE1B9C0244304418925A181A909D
:1021F000601819921B90D9F808200DF1500818A901
:102200004046FFF7BFFAA0B1E96904A800221AF01E
:102210007FF901280DD1CDE9007804AF4846294661
:102220003A460023CDF808A006F048FE38461AF0DA
:1022300039F91CB0BDE8F04770470000002B08BF1B
:1022400070472DE9F04FA3B08B46C9691546824609
:1022500013A8002298461AF05BF9012826D1DBF872
:1022600060200BF15403BBF824400BCB12920FAA51
:102270000FAFBBF826600BC23846214608F0FEFCC3
:1022800038463146059608F0F3FC1098E9680F9A35
:10229000884240F20100CEF200000692CDE90D0026
:1022A000CDE90B0006DD13A81AF0FCF823B0BDE859
:1022B000F04F7047069807AE204401380DF12C0905
:1022C00004900DE01299059A109811441291E96852
:1022D00010441090069A884204980F921190E2DC04
:1022E0000F98A96888420BDDECE700BF0F98A9683A
:1022F0002044884211990F9001EB04001190E1DC19
:10230000304639462A46FFF73DFA0028EED05046BF
:10231000594613AA4B46CDE90076CDF8088006F061
:10232000CDFDE3E770B540F2E8050024C2F20005F8
:102330002E19D6F82001002818BF19F093FB06F5D6
:10234000907000211C221CF029FF1C34702C08BF47
:1023500070BDEDE740F2E801C2F20001C96E04E091
:102360000A7E42F001020A764969002908BF7047D7
:102370004A688242F4D00A688242F5D1F0E7000050
:10238000406940F2E801C2F20001C86670470000EF
:1023900040F2E801C2F20001CA6EC86642617047AD
:1023A00040F2E800C2F2000000F5DA70042100F00B
:1023B000B5B9000040F2E800C2F20000343020213C
:1023C00000F0ACB92DE9F04F8BB0DDE914761D4675
:1023D000002B834608BFB7F5807F73D0002303A886
:1023E000169CCDE90333CDE90513CDE9073200F1A1
:1023F00018030293CDE909124FF0010829463A4625
:10240000334600F1080A00F110090094CDF8048069
:1024100022F070FD504629463A4633460094CDF8E6
:10242000048022F067FD484629463A463346009428
:10243000CDF8048022F05EFD029829463A463346E4
:102440000094CDF8048022F055FDDDE90321DDE99B
:102450000530079E099D9A421F46B8BF1746AE42F7
:102460002C46B8BF3446A742B8BF3C469A42CBF888
:102470000040C8BF1346AE42C8BF3546AB42C8BFD6
:102480001D466A1E089B0A9FCBF80820814202461F
:10249000B8BF0A46BB423E46B8BF1E46B242B8BFAE
:1024A00016468142CBF80460C8BF0846BB42C8BF8D
:1024B0001F46B842C8BF0746781ECBF80C000BB0C9
:1024C000BDE8F08FB6F5807F88D100200139013A50
:1024D000CBE90000CBE902120BB0BDE8F08F0000A1
:1024E000B0B5054640F2E800C2F200000C46F830F4
:1024F000182100F013F9284619F032FF2046BDE8F4
:10250000B0401AF0B9BB000070B588B004460D4663
:1025100010B134B908B070BD0BF040FC0446002C7B
:10252000F8D020460BF0E6FC0028F3D094F83A00EF
:10253000800721D4002005B3CDE9040020460BF02C
:1025400041FC0138069020460BF0B6FC013807909C
:10255000684604AA2946FFF715F90028DAD094F84E
:10256000390002280DD104AB0FCB04F13C0C8CE8F0
:102570000F00012037E000BFFEE7C4F85C0208B09E
:1025800070BD6A46204630210BF0C8FC0128C1D13D
:10259000D4F85C1291B100206D46002604EB0010C7
:1025A00000F13C0128460022FFF70EF90028B1D1C6
:1025B0000136D4F85C12B0B28142EFD8202931BF85
:1025C00068460020C4F85C020DF11000D4F85C12DB
:1025D000D0E90036D0E9025004EB0112C2E91150F3
:1025E000481CC2E90F36C4F85C02204633210022A1
:1025F0000BF094FC08B070BD10B500211622044603
:102600001FF09CFDC0B2002808BF10BD40F2E801D9
:10261000C2F200018A6D824209D3CA6D02EBC00189
:10262000496852F830202046BDE81040104710BDE0
:1026300010B540F2E804C2F20004A06DC0001CF026
:102640005BFCE06518F078FFBDE8104019F0C4BCF1
:102650002DE9F041002804460D4614BF60680020B3
:10266000002808BFBDE8F0814FF0000803E000BF7C
:10267000A84738464FB32168002D01F1040287585E
:10268000F6D1636883420CD0A6684358864212D0C4
:10269000002B18BF9F50002F18BF7B5019F0E2F994
:1026A000E7E7002F676014BF47F80180C4F808808F
:1026B00019F0D8F9DDE7002BA36014BF43F80280BE
:1026C000C4F8048019F0CEF9D3E7BDE8F08100002A
:1026D000002814BF4068002070470000002814BF85
:1026E00041680021002904BF002070470068021DD6
:1026F000002000BF895801300029FBD1704700003D
:102700000068084440687047006808587047000037
:10271000002814BF806800207047000003310022A9
:1027200021F00301C0E900128260704710B5044631
:10273000006808301CF0E0FB002808BF10BD2168CD
:1027400000224250626801444A60616800291CBF4F
:1027500022688850A1686060002908BFA06010BD91
:1027600070B5044600284FF0000013D00D4689B123
:10277000D4E9000608301CF0BFFBAE420BD0F0B12C
:1027800021686A58002A1CBF8B18586043184250B1
:1027900068505D6070BD4FF0000280B1216842500A
:1027A000626843185A606268002A18BF5050A168D6
:1027B0006060002908BFA060002818BF70BD00201D
:1027C00070BD000010B50446006808301CF094FB92
:1027D000002808BF10BD2168002342185360A2687A
:1027E0004250A16811B12268114448606168A0603C
:1027F000002908BF606010BD28B1416809B9806830
:1028000008B100207047012070470000B0B5914228
:1028100051D012B10368134403E000284CD000F1FA
:1028200008031B688B4208BFB0BD70B345688D427A
:1028300014D0D0F800C0846851F80CE08C421BD052
:102840000CF104054C59BEF1000F18BF4EF80540BD
:10285000002C18BF44F80CE0C3B91AE0D0F800C04F
:102860000CEB01056C680025002C446014BF44F893
:102870000C50856053B90CE0BEF1000FC0F808E0C1
:102880001CD00CEB0E0500246C6013B105681D44D0
:10289000696000291CBF05684B51002A1CBF0568F0
:1028A000515111B105680D446A60002A08BF81606A
:1028B000002B08BF4160B0BD0023B3E70025456091
:1028C000002BE3D1E5E7000080B5002808BF80BDFC
:1028D00042688A4213D0D0F800E0826851F80E3086
:1028E0008A4217D00EF1040C51F80C00002B18BFCF
:1028F00043F80C00002818BF40F80E3080BD026875
:10290000114449680029416007BF0021816000200F
:10291000885080BD0021002B836018BF0EEB0300A0
:10292000416080BD10B5044606E000BF2068006825
:10293000002808BF10BD206020688268002AF5D0FA
:1029400021469047F2E700008068002814BF406AE3
:1029500000207047806800280EBF0020408DC0F323
:10296000812070472DE9F04782B090460028154637
:1029700048D00646008D0C460143002000906B466F
:102980003046612204F47F0A05F05CF8012802D188
:10299000009FFFB936E042F2E460C0F6030090F811
:1029A0006100C00711D0BAF1000F374608BF776841
:1029B0005FB1E946398D384661224B4605F042F851
:1029C0000128E5D07F68002FF4D1612024F016FAA9
:1029D0000746BFB13868A8B1308D01AB40EA0401A9
:1029E000002001903046622205F02CF8012811D118
:1029F0000198010606D03B6828F07F41C2B23846F4
:102A0000984705464FEA186060F31F65284602B0F4
:102A1000BDE8F08742F2E460C0F6030090F862007F
:102A2000C00710D0BAF1000F08BF76685EB101ACE4
:102A3000318D30466222234605F004F80128D7D0B4
:102A40007668002EF4D1622024F0D8F90106D2D1A4
:102A5000D8E700002DE9F04F97B00546408D40F0D3
:102A6000080068852A859DB1209F42EA010A3E7AC6
:102A700000209B4614468846019001AB28465146EB
:102A8000324605F095F9012803D1019E05E000BF0B
:102A9000FEE7304624F0B2F90646A5F828B03F7AA2
:102AA00000204BEA0801019001AB28463A4605F0A8
:102AB0007FF9012802D1DDF8049003E0384624F0C4
:102AC0009DF98146688D209F20F008004E4568855D
:102AD00006D104BF89EA06005FEA002000F0818089
:102AE0002C853C7A0020019001AB284651462246B5
:102AF00005F05EF9012801D1019C03E0204624F095
:102B00007DF9044628464146A5F828B005F098F915
:102B10000068397A224624F0A3FA79683A7A28467E
:102B200021F048F9387A0C281ED147F6FF76B442D6
:102B300018BFB14518D128461FF0C8FB00EBD0776D
:102B400028461EF06DFC00EBD070012101EB6702FE
:102B500001EB6000209F8242B8BF1046B44208BF1C
:102B60000446B14508BF814640F2E800C2F20000C9
:102B70001830FFF7DBFDB8B3C0E90349056006462E
:102B8000387A01AC30712046C6F8088007F0C6F8E4
:102B900041F22120C0F60300029041F2F140C0F65C
:102BA0000300049041F23540C0F603000590002078
:102BB0000A904FF000400B90FF200C9038887988E5
:102BC0000D904842F9680E909DF8580009913969B6
:102BD00000F0F7008DF8580020460196089107F0A4
:102BE0004BF917B0BDE8F08FFEE7000040F2E800B7
:102BF000C2F2000018301421FFF790BD2DE9F04F0C
:102C000081B00446408D10F47C7F00F011816FEAA2
:102C100001096FEA020B4FF0000AE84600250AE0BE
:102C20000120002800F00781608D0135C0F30510F8
:102C3000854280F00281E06800EBC50149688A01A5
:102C4000F2D489B211EA090201EA0B01B1FA81F169
:102C50004FEA511118BF01224A40E1D150F83560C6
:102C600010213046424624F06FF888BB30461121CF
:102C7000424624F069F858BB30461221424624F0FF
:102C800063F828BB30461321424624F05DF8F8B9BA
:102C900030461521424624F057F8C8B93046142171
:102CA000424624F051F898B930461621424624F0A5
:102CB0004BF868B930466A21424624F045F838B9E5
:102CC00030466B21424624F03FF8002861D000BF17
:102CD0000127002F67D130466821424624F034F89E
:102CE000002850D130466921424624F02DF80028B2
:102CF00049D130466E21424624F026F8002842D1C0
:102D000030466C21424624F01FF8E0BB30466D216E
:102D1000424624F019F8B0BB30463A21424624F02E
:102D200013F880BB30463B21424624F00DF850BBDF
:102D300030463821424624F007F820BB30463C217B
:102D4000424624F001F8F0B930463E21424623F0D5
:102D5000FBFFC0B930464021424623F0F5FF90B951
:102D600030464121424623F0EFFF60B93046422110
:102D7000424623F0E9FF30B930464821424623F06D
:102D8000E3FF00284BD04FF0020A002F3FF448AF7A
:102D90000CE0304601214246012723F0D5FF50B117
:102DA000002F3FF498AF002F3FF43AAF00200028E7
:102DB0007FF43AAF3FE030460221424623F0C4FFA1
:102DC00000287FF485AF30460421424623F0BCFF43
:102DD00000287FF47DAF30460521424623F0B4FF42
:102DE00000287FF475AF30460621424623F0ACFF41
:102DF00000287FF46DAF30460721424623F0A4FF40
:102E000000287FF465AF30463021424623F09CFF16
:102E10000746002818BF0127002FC4D15BE7BAF18D
:102E2000000F08BF4FF0010A002F3FF4F9AEBDE7D5
:102E30004FF0000A01E04FF0030A5FFA8AF001B098
:102E4000BDE8F08F90B170B582B00446018D0020CE
:102E5000019001AB20466E2204F0F4FD012806D15A
:102E60000198002840F0C5801DE000BFFEE742F257
:102E7000E460C0F6030090F86E00C0070DD06568EE
:102E80005DB101AE298D28466E22334604F0DAFD8D
:102E90000128E5D06D68002DF4D16E2023F0AEFF3F
:102EA000002840F0A680218D0020019001AB204633
:102EB0006C2204F0C7FD012805D10198B0F5807F90
:102EC00040F097801BE042F2E460C0F6030090F807
:102ED0006C00C0070DD065685DB101AE298D284634
:102EE0006C22334604F0AEFD0128E6D06D68002D5B
:102EF000F4D16C2023F082FFB0F5807F79D1218D51
:102F00000020019001AB20466D2204F09BFD0128BA
:102F100004D10198B0F5807F6BD11CE042F2E460EF
:102F2000C0F6030090F86D00C0070ED0656865B16B
:102F300001AE00BF298D28466D22334604F082FD84
:102F40000128E6D06D68002DF4D16D2023F056FFE6
:102F5000B0F5807F4DD1218D0020019001AB20463E
:102F6000712204F06FFD012803D10198002840D19F
:102F700019E042F2E460C0F6030090F87100C00767
:102F80000DD065685DB101AE298D284671223346AA
:102F900004F058FD0128E8D06D68002DF4D17120AF
:102FA00023F02CFF28BB218D0020019001AB20468F
:102FB000722204F047FD012801D1019818E042F285
:102FC000E460C0F6030090F87200C0070DD0656899
:102FD0005DB101AE298D28467222334604F032FDE0
:102FE0000128EAD06D68002DF4D1722023F006FF8D
:102FF00078B10225A06820B94DB120461DF0E6F851
:10300000A068418D21F4406141EA8521418502B0EB
:1030100070BD218D0020019001AB2046602204F09C
:1030200011FD012802D19DF8040018E042F2E4608D
:10303000C0F6030090F86000C0070DD065685DB170
:1030400001AE298D28466022334604F0FBFC01289E
:10305000E9D06D68002DF4D1602023F0CFFEC0B21E
:10306000FF2825D1218D0020019001AB204673223D
:1030700004F0E8FC012801D1019818E042F2E46074
:10308000C0F6030090F87300C0070DD065685DB10D
:1030900001AE298D28467322334604F0D3FC012863
:1030A000EAD06D68002DF4D1732023F0A7FE08B19B
:1030B00001259FE7218D0020019001AB204667226A
:1030C00004F0C0FC012802D19DF8040018E042F28F
:1030D000E460C0F6030090F86700C0070DD0656893
:1030E0005DB101AE298D28466722334604F0AAFC63
:1030F0000128E9D06D68002DF4D1672023F07EFE11
:10310000C5B2002D18BF012574E7000040F2E800A9
:10311000C2F200000069704770470000FF2804BF3A
:103120003F207047002804BF002070478C2805D836
:1031300042F2E461C0F60301085C704740F2E80225
:10314000C2F20002116B31B17330926AC0B2824296
:1031500084BF085C704700207047000010B540F243
:10316000E804C2F2000404F174001821FFF7D6FA53
:10317000D4F89C10012084F8800000200029C4F8B5
:10318000840008BF10BDD4F8A000BDE81040084777
:103190002DE9F04702B3DDF820909A4614460F4619
:1031A000804606E064F001003044441C05EB0A0749
:1031B00074B1660806FB0A7540462946C8470128CF
:1031C000F0DAB0F1FF3F3446F2DD2846BDE8F08783
:1031D00000252846BDE8F0870020BDE8F087000004
:1031E0002DE9F04F97B00D46209943F671381C46F3
:1031F0001746C0F600084FF0000A0E91002D18BFC8
:1032000080460026A05D0AEB060B002800F0C18373
:10321000252805D029465A463B46C0470136F1E7E6
:10322000A0190B95451C4FF000090D9704E000BF55
:1032300001350020002821D12878A0F12001102993
:103240004FF00100F6D8DFE801F00D0C0C090C0C72
:103250000C0C0C0C0C100C130C0C160049F0100983
:10326000E6E7E7E749F00809E2E749F00409DFE7A4
:1032700049F00209DCE749F00109D9E72878CDF8DF
:103280003080A0F13001092912D8681E4FF00008E3
:1032900010F8011F08EB8802437801EB4201A3F10B
:1032A00030020A2AA1F13008F2D3451C13E000BF16
:1032B0002A280ED10E99013551F8040B00288046BA
:1032C0000E9148BFC0F10008002848BF49F002092C
:1032D00001E04FF0000828782E281BD1284610F86E
:1032E000011F49F48069A1F13002092A23D8681E20
:1032F000002700BF827807EB8701C37802EB41010A
:10330000A1F13007A3F130010A2900F10100F1D346
:10331000851C00E00027287868384FEA70000928EB
:1033200021D8DFE800F0131D812020200520200592
:1033300049F4807916E02A2940F089800E990235F7
:1033400051F8040B20EAE0770E91E4E7284610F8E4
:10335000011F682940F07E8049F0C009023502E073
:1033600049F4007901352878A0F12501532900F2AC
:10337000C3801024DFE811F0BB00C000C000C00013
:10338000C000C000C000C000C000C000C000C0003D
:10339000C000C000C000C000C000C000C000C0002D
:1033A000C000C000C000C000C000C000C000C0001D
:1033B000C000C000C000C000C000C000C000C0000D
:1033C000C000C000C000C000C000C000C00061005C
:1033D000C000C000C000C000C000C000C000CE00DF
:1033E000C000C000C000C000C000C000C000C000DD
:1033F000C000CC009A015400C000C000C000C00052
:103400005400C000C000C000C000C00076006100D1
:10341000C000C0007800C0005400C000C000CE0052
:1034200029F010090A2475E0284610F8011F6C29BC
:1034300014D149F44079023595E7284610F8011F68
:1034400049F48879562908BF0546102462E0002710
:10345000054660E749F08009054684E749F480792C
:10346000054680E7082455E00E98002650F804AB86
:103470000E909AF80000002850460FD03846002FD2
:1034800008BF4FF0FF304142504600BF10F8013FE7
:10349000013146F100020BB1002AF7D0A0EB0A007F
:1034A00009F48066B842394638BF0146002E08BF8D
:1034B000014619F00200CDE9095040F01282414561
:1034C00080F00E820797DDE90B590D9F08F101008E
:1034D000A8EB0104089000BF5A46202029463B462D
:1034E0000BF1010BC847013CF6D1079FFAE10995A2
:1034F0000BF1010A252002E00BF1010A09950B9D51
:103500000D9FDDF8308029465A463B46C047E3E12F
:10351000022400BF287840F00801582908BF49F06C
:103520002009642803D0692818BF29F00C095FEA34
:10353000495148BF29F001095628099517D0692833
:1035400001D064282DD15FEA89503ED45FEAC9508A
:1035500050D45FEA496000F1C780DDF838E05FEAE7
:103560000960DEF800C048BF0FFA8CFCC0E00E997D
:103570000B9D51F8040B0D9F0E914168DDF83080D2
:103580000C6805EB0A010F94A7EB0A0203683144AB
:10359000921B40460094FFF723FE504400EB060ABE
:1035A0009AE15FEA895038D45FEAC95000F1AD80F2
:1035B0005FEA496000F13081DDF838C05FEA0960F8
:1035C000DCF8006048BFB6B22AE10E98073020F060
:1035D00007000246436852F8080B50EA030108BF8F
:1035E00029F010090E92089371BB19F480612BD059
:1035F000002255E0DDF838E05EF804CBBCF1000FA6
:1036000008BF29F01009BCF1000F40F08F8019F4B9
:10361000806000F08B800026F0E00E98073020F0EC
:1036200007000146456851F8086B56EA050008BFD7
:1036300029F0100900280E9140F0998019F480605B
:1036400000F09580002211E180EAE370B0EBE375B1
:1036500009F0200083EAE37180F0610061EBE3761A
:10366000F6304FF0000A0A902846314622460023E1
:10367000FCF7F8FD00FB14520A9B0A2A38BF3023DE
:103680002D1B76F1000613440AF101020FAE06F875
:103690000A3005D3BAF11F0F924605460E46E3D312
:1036A00008980FA9C00FCDE9001205E119F0020436
:1036B000099540F0AB80DDF838A0B8F1020FC0F0FA
:1036C00041810BAFE0CF0A9408F10109C8F1000471
:1036D0005A46202029463B460BF1010BB0470134E6
:1036E000601CF5D10A9C30E1DDF838E09EF800C09E
:1036F000BCF1000F08BF29F01009BCF1000F5CD12C
:1037000019F4806059D0002676E0DDF838C05CF806
:10371000046B002E08BF29F01009002E40F08A80AB
:1037200019F4806000F0868000229DE009F02001FD
:1037300081F06101604601F1F6050023BCF1000F44
:1037400048BFCCF1000000BFB0FBF4F12A4601FBFA
:1037500014060A2E38BF302232445E1CA0420FA845
:10376000C2544BD31F2B33460846EDD346E009F035
:10377000200080F06100F6304FF0000A0A9000BF90
:103780003046294622460023FCF76CFD00FB1462FC
:103790000A9B0A2A38BF3023361B75F100061344F2
:1037A0000AF101020FAE06F80A305FD3BAF11F0F1B
:1037B000924606460D46E3D358E009F0200181F019
:1037C0006101604601F1F6050022BCF1000F48BF1F
:1037D000CCF10000B0FBF4F12B4601FB14060A2EDD
:1037E00038BF30233344561CA0420FA8835403D360
:1037F0001F2A32460846EDD30EF1040E0FA9CDF86C
:1038000038E04FEADC70CDE9001655E00B9DDDF89D
:1038100038A04FF0010998E0DDF838C09CF800604E
:10382000002E08BF29F0100926BB19F4806021D0B2
:10383000002139E009F0200080F0610000F1F60578
:10384000002300BFB6FBF4F0294600FB14620A2AED
:1038500038BF302111445A1CA6420FAEF15403D395
:103860001F2B13460646EDD3CDF838C00FA8CDE97F
:10387000000220E009F0200080F0610000F1F60570
:10388000002300BFB6FBF4F02A4600FB14610A29AE
:1038900038BF30220A44591CA6420FAEF25403D35B
:1038A0001F2B0B460646EDD30CF1040C0FA8CDF8E8
:1038B00038C0CDE90001002002A981E89101DDF8BE
:1038C00030800B9D0D9F404629465A463B46CDF819
:1038D000189000F06BF882460998441CFFF791BCE1
:1038E000013108919AF80000A8B10AF101090DE030
:1038F0003C460B99DDE90C73C0B25A460BF1010A44
:10390000B84719F8010BD346274628B1002EEFD04F
:103910000FB17C1EEDE7DA460A9898B308980B9D24
:103920000D9F404532D2A8EB0004DDF8308000BF87
:103930005246202029463B460AF1010AC047013C75
:10394000F6D1C9E70B9D4FF002091AF8040BDDE927
:103950000C7329465A46CDF838A00BF1010AB84736
:103960008CB1C1450FD2A8EB0904DDE90C8700BF7B
:103970005246202029463B460AF1010AC047013C35
:10398000F6D1A9E70B9DDDE90C87A5E7DDF83080CE
:10399000A2E75A46002029463B46BB4528BF7A1E6F
:1039A000C047584617B0BDE8F08F00002DE9F04F32
:1039B00083B0129D1E468146DDE910700E9BDDE945
:1039C0000C4B8A4615F0020190460091CDE901208A
:1039D0003BD148B1E80709D015F00C0018BF012011
:1039E00011991843081A00E000200290BB4517D235
:1039F000BBF11F0F14D86FEA0B013944CBF11F0242
:103A0000914238BF0A4602F1010804EB0B0041461F
:103A10003022FCF70BFD0C9C0E9BC344DDF80480A8
:103A2000E80712D0029883450FD2BBF11F0F0CD8C4
:103A3000029A30210BF10100904204F80B1003D2DE
:103A4000BBF11F0F8346F5D38346E80638D50F98A0
:103A5000690507D4BBF1000F04D0BB4512D0029911
:103A60008B450FD0102819D115F0200104D1BBF1DE
:103A7000200F01D2782017E081B1BBF1200F0DD2C9
:103A8000582011E0BBF101010A4618BFABF1020258
:103A9000102818BF0A4693461028E5D0022807D1FF
:103AA000BBF11F0F04D8622004F80B000BF1010BCF
:103AB000BBF11F0F9EBF302004F80B000BF1010B70
:103AC000BBF11F0F0DD80BB12D2006E0680703D402
:103AD000280706D5202000E02B2004F80B000BF16E
:103AE000010BA80744460FD10298444683450BD2E8
:103AF00002984246A0EB0B07202051463346541C47
:103B0000C847013F2246F7D1BBF1000F10D00C98F7
:103B1000A0F1010818F80B00514622463346ABF1DC
:103B20000105671CC847002D3C46AB46F2D100E0BA
:103B30002746009898B10199DDF80880781A404529
:103B40000BD24D42202051463A4633467C1CC84792
:103B5000281940452746F5D302E03C4600E03C46A4
:103B6000204603B0BDE8F08F9A4238BF88547047B2
:103B7000704700002DE9F04182B078B30D4679B36B
:103B800000F1240604463046294621F087FA0190C8
:103B900068B307696168384608F0A8FE6268804625
:103BA000384629461BF028FA04F13000FEF7BEFD26
:103BB0000090B0B101A904221BF01EFA0198E16A3D
:103BC000006904220844043869461BF015FA62684B
:103BD0004046214608F098FE09E000BFFEE700BF1E
:103BE000FEE70199304621F00FFA0020019001987C
:103BF00058B10069616808F079FEE16B0646284615
:103C00008847E1680844E06000E00026304602B0E2
:103C1000BDE8F08110B540201BF06EF930B10021F5
:103C2000402204461BF0BAFA204610BDFEE7000011
:103C30002DE9F04381B040F2E807C2F2000797F89F
:103C4000A50007F1AC0480F0010087F8A50020462C
:103C5000FEF73EFD002800F0BA8005464FF0000850
:103C60004FF0010908E000BF20462946FEF748FD55
:103C70000546002800F0AB80286D25F049FB696BF4
:103C80000844686325F05CFB87F8A48095F854101D
:103C900097F8A520C1F340039342286500F08E8079
:103CA00001F0FD0040EA42004A0785F854001ED4A6
:103CB000686B00281BD4080709D4A96939B12846C4
:103CC0008847696AEA6A014410446962E8622846E2
:103CD00027F0B4FAE96809B12846884795F85400F6
:103CE00040F0040085F85400284627F00FFA686B6E
:103CF000002863D4296B8842C8BF6963296A2846B3
:103D00008847A96A88420FD06A680646A86212B13D
:103D100028683146904797F8A40028B9AA681AB1D4
:103D200028463146904700BF97F8A400002845D1A7
:103D3000D5E90C01814241DB95F8541011F00102E4
:103D400005D16B6C5E1C022E24BF013B6B646B6C57
:103D500013B9EB6BA3B19AB9D5E90F3676426E630E
:103D600063B312B9AA6B52426A6381F0010185F80C
:103D70005410E96A6A6A6962C5E90B23E8631DE0C9
:103D800020462946FEF7A0FD204687F8A490FEF7BE
:103D90009FFC0146D7F8A80011B125F069FC01E0AD
:103DA00025F03CFC296909B128468847696909B1B1
:103DB00028468847284617F055FE00BF97F8A4000C
:103DC00000283FF451AF2046FEF782FC50E701B0D7
:103DD000BDE8F083B0B5044640680D4610B12946F1
:103DE000FFF7F8FF2268002A08BFB0BD2046294629
:103DF000BDE8B0401047000070B50E680C46316851
:103E0000054641B196F82200C00604D52160284637
:103E10002146FFF7F1FF284621462660BDE87040A5
:103E2000FFF7D8BF06F072BC06F0D4BCB0B596B0B0
:103E30000446406C08B36D46284605F06FFF4AF211
:103E40007540C0F602000190002009904FF000403C
:103E50000A9001200B9049F60560C0F6000008901A
:103E60004AF27940616CC0F6020004902846009442
:103E70000C9106F001F816B0B0BD204616B0BDE8B2
:103E8000B04026F09BBA000070B5032A0CD0022A7D
:103E900010D0012A65D1027852FA81FEBEF1FF0FDF
:103EA00028BF4FF0FF0E0AE00278CCB262434FEA1F
:103EB000122E04E00278CCB2121B22EAE27E01F458
:103EC0007F42B2F57C4FC1F3072102D84478022C1F
:103ED00003D880F800E0417070BDB2F5407F38BF74
:103EE00070BDFF2C5FFA8EFC08D1027881F0FF03D1
:103EF0005A431CFB0121090A017070BDDD78AC42F8
:103F000002D15D788D420DD081F0FF0584F0FF0471
:103F10006C436FEA1424E5B2C1EB0126B6FBF5F55C
:103F20009C71DD7104885D88A54203D11C886244C0
:103F3000944214D083F800E059700188DE795980EA
:103F4000028886F0FF04D5B265431CFB06569979BA
:103F500022F0FF02B6B242EA16229A80597199887D
:103F6000018070BD70B50C0A032A4FEA114E19D0BA
:103F7000022A26D0012A5AD102784578867852FA48
:103F800081FCBCF1FF0F55FA84F24FF0FF0328BF0C
:103F90009C46FF2A56FA8EF628BF1A46FF2E38BFD7
:103FA00033461EE00378CAB2457886785A434FEA12
:103FB000122CE2B25FFA8EF36A437343120A1B0AB1
:103FC0000FE00378CAB2457886789A1A22EAE27C32
:103FD000E2B25FFA8EF3AA1AF31A22EAE27223EA35
:103FE000E373090E08BF70BDFD2904D380F800C03B
:103FF0004270837070BD047881F0FF065FFA8CF523
:1040000090F801C0744315FB0144D2B206FB0CF5D5
:1040100090F802E012FB0152120A4270DAB206FB7B
:104020000EF312FB0131240A090A0470817070BD7D
:10403000B0B5B9B180290A4609D3B1FA81F2C2F10B
:104040001A024FF0FF3303FA02F2D2430A447F2AE6
:104050000CD8D31702EB93724FEAA20C00240A2C5F
:104060000FDD3AE000244FF0000C36E0B2FA82F3A4
:10407000C3F11A04E24082F0200CC3F119040A2CA7
:104080002BDC00EB840252694FF0FF3E0EFA0CF37A
:104090001A400CD052B192FAA2F2B2FA82FC00EBB2
:1040A000C41202EB8C02126CCAB93BE0FEE7026953
:1040B000631C0EFA03F312EA030E0AD09EFAAEF264
:1040C000B2FA82F400EB84025269BEF1000FE1D132
:1040D00003E00022BEF1000FDCD1002212B35368CE
:1040E00023F003038B4200D2FEE7D368E3B191686B
:1040F000E1B1CB60996000EBC41303EB8C0E5EF86A
:10410000403F93420ED18142CEF800100AD100EB1D
:1041100084034FF0010E5D690EFA0CF125EA0101EE
:10412000596121B11046B0BDFEE700BFFEE701694D
:104130000EFA04F3994301611046B0BDF0B54A6828
:10414000032A09D922F003030E1D9B1906D05D68CE
:10415000EC0704D10846F0BDFEE700BFFEE7032AE6
:104160000CD925F003027F2A09D8D51702EB9572E6
:104170004FEAA20E4FF0000C0AE000BFFEE7B2FAD1
:1041800082F5C5F11A04E24082F0200EC5F1190C47
:10419000DD686DB39A686AB300EBCC14D560AA6091
:1041A00004EB8E0555F8404F9C4211D182422A60A3
:1041B0000ED100EB8C040127656907FA0EF225EA9F
:1041C0000202626122B9026907FA0CF7BA4302617E
:1041D0004868032810D95A6822F0030210440430BA
:1041E000032848600AD920F0030081510846F0BD39
:1041F000FEE700BFFEE700BFFEE700BFFEE70000EE
:10420000B0B531B122B14B68DC0704D1FEE700BF85
:10421000FEE70020B0BD23F0030402F110039C422E
:1042200011D2486803280DD920F0030201F10800DB
:10423000835823F0020383504A6822F001024A6047
:10424000B0BD00BFFEE701F1040C0CEB020303F16B
:104250000B0503F1080E25F00305AE4501D000BFA4
:10426000FEE75D68A41A043C05F0030525430B2C0A
:104270005D602DD94C6804F0030422434A605A68FB
:10428000032A27D922F003055EF8052042F0020236
:104290004EF805205A68754442F001045C604C6891
:1042A00045F8043C032C17D924F0030545F80C10FD
:1042B00042F0030522F003027F2A5D600DD8D51776
:1042C00002EB95724FEAA20C4FF0000E0EE000BF19
:1042D000FEE700BFFEE700BFFEE7B2FA82F5C5F1D8
:1042E0001A04E24082F0200CC5F1190E00EBCE1248
:1042F00002EB8C0454F8402F92B19BB1C3E9022029
:10430000D36023600122036902FA0EF423430361A0
:1043100000EB8E00436902FA0CF21A43426180E717
:10432000FEE700BFFEE70000B0B582B0044618F01B
:104330004BFF054618F08CFF38B1606C20642046B6
:104340001EF068FB012002B0B0BDE06A01211EF042
:1043500037F818B1204616F0ABFE2AE020460121BE
:104360001FF07AFE4FF6FF71E06AA16401211BF095
:1043700091F920462221002220F050F9D4E91001C1
:1043800081420BD06064019001AA20461E2120F0DA
:1043900045F90128D7D120461EF03CFB284618F0ED
:1043A00067FF042805D120461DF034F8002117F0DE
:1043B00089FF012002B0B0BDC11C002818BF21F048
:1043C0000300704717F04EBB03301AF095BD000094
:1043D0002DE9F041054600681446476A2846002248
:1043E00023468846B847012829D000BF02281ED19D
:1043F00028682146026A2846904700B30746286885
:1044000039464369284622469847AE69384608F03F
:1044100067FA2146B047384608F05AFA28684146FC
:10442000476A284600222346B8470228E0D0286879
:104430004146036928462246BDE8F041184700205E
:10444000BDE8F0812DE9F04F95B091468A460546CA
:10445000C8784AF671414AF67D42C0F60001C0F6BE
:104460000002109310F0010008BF0A464AF60D4101
:1044700008924AF6E132C0F60001C0F600020B468F
:1044800008BF13460E93002808BF0A4642F20501F2
:10449000C0F602010C9242F215020B46C0F602026F
:1044A00008BF1346002842F20D00DDF888800D9306
:1044B00041F6FD73C0F60200C0F6020308BF0A46CB
:1044C00001460B9208BF1946099108BF03460A939B
:1044D0000F9505E04FF0000C0F9D5FEACC7052D0B5
:1044E000D8F81420002A4ED0D8E90101D8F81030AD
:1044F000A0EB010E0C33002107E000BF1F68AEEBFC
:10450000070E013A03F1180306D01F7AFF07F5D111
:104510005F683944F5E700BFD8F81420002AD9D0E5
:10452000002200244FF0000C07E000BFD8F8140070
:104530000134844202F11802CED2D8F81070BE18AD
:10454000357DEF07F2D1E9B19EFBF1F3D6F810B05B
:10455000D6E901070BFB03F3BB42B8BF1F46B842C5
:10456000C8BF07469F421EBF45F0010030754FF09F
:10457000010CD8F81000AEEB070E10440369C760B9
:10458000C91AD3E7FEE72846002127224FF0000B87
:104590001DF0D4FD9AF80070D8F80C10FB1EDBB2A9
:1045A00002293A46B8BF0222022B4FF0FF3328BF40
:1045B0003A4653FA82F3042B2FD8D8F80420DFE8C8
:1045C00003F003081017200020990024A1EB020B30
:1045D00024E020990024891A01EBD1714FEA610B84
:1045E0001CE0209B01319A1A92FBF1FB5C4615E01E
:1045F000209B9A1A92FBF1F404EBD4714FEA610B01
:104600000CE0022907DB209B01399A1A92FBF1F496
:104610004FF0000B02E04FF0000B00249AF803105B
:10462000C6B2C90705D0012E03D128461CF06EFE84
:104630008344284649461CF049FD002800F0888143
:1046400007461098814500F0838121980796204401
:104650000124C0F206040490384621461DF0B8FE3D
:1046600060B19AF80300400700F16281A86809F17F
:104670000109018D8945C0F25F8163E1384600215F
:1046800081221DF05BFD000612D0D8F8140058B14D
:10469000D8F810100C3100BF51F80C2CBA420DD0D4
:1046A000013801F11801F7D15E464FF0000B08E028
:1046B000788D5E4620F44060788533E05E46D1F820
:1046C00000B09AF80310788DC9074FF4006120F408
:1046D000406008BF4FF48061084407F114040E994C
:1046E00078852046884783451CD038461EF092F9CD
:1046F00007F114030FCB0DF1440C8CE80F00089A5E
:1047000020465946904738462C2111AA1FF086FFB3
:1047100038461CF0BFFE25213A461FF07FFF384681
:104720001EF078F99AF8010001281DD0022829D13D
:10473000D8F800000C99013020F0010407F11400B2
:104740008847201A0B9A00EBD07538460021904715
:104750000A9A0446384600219047201A00EBD07090
:10476000401000EB650011E00C99D8F8005007F1FB
:10477000140088470A9A044638460021904720448E
:10478000281A03E00B9A3846002190479AF8032034
:104790000799D207039006D0012904D10E9907F199
:1047A00014008847361A0F9D384600216A22069663
:1047B0001DF0C4FC0446384600216B221DF0BEFCEF
:1047C000834638461DF082FD064638461CF028FE1A
:1047D00004F0C041B1F1005F19D124F0C0416FF085
:1047E0006042DDF80CC091425B4613D06FF070421E
:1047F000B1F1805FA8BF511A48F21F527143C5F250
:10480000EB1251FB02F14A1102EBD17402E0DDF828
:104810000CC05B4603F0C041B1F1005F059415D1B7
:1048200023F0C0416FF0604291420FD0B1F1805F40
:104830006FF07042A8BF511A484348F21F51C5F2A9
:10484000EB1150FB01F0411101EBD073394651F8E7
:10485000144F9AF803004A68C00766460191029215
:104860000AD00D9A3846002166469B469047069925
:10487000029A5B46B44646189AF80300C00709D16D
:104880000D9A384600219B4690470699029A5B464E
:1048900000EB010C1E9805990844001B00EB060B69
:1048A0001F981844801A00EB0C045BEA040016D031
:1048B00038461EF0AFF807F114030FCB07F1140CC4
:1048C00058445A44214423448CE80F0038461EF0D3
:1048D000A1F838465946224600231EF02DF99AF8D1
:1048E0000300C007DDE906B005D0012803D1049814
:1048F000ABEB000B13E001980E9988470D9A5E46CA
:104900008346384600219047099A044638460021DC
:104910009047049931445944214401EB000B9AF823
:1049200003000124C0F2060440077FF59FAE00BFDC
:10493000B9F1010906DBA868006850F829701FB9B1
:1049400006E000BF00271FB1109881457FF484AEB8
:1049500015B0BDE8F08F00000120704770B582B03F
:10496000044616F03FFD0546204616F037FD064684
:1049700028461CF08FFD0B2E044609D02E2E49D15F
:10498000E16A2046002202B0BDE8704022F054BF28
:1049900018F01AFC10B1007A01283BD0694628466D
:1049A0001CF012FE94F8300010F00C0F14D02846C2
:1049B0001CF0ACFC05462046002127221DF0BEFB62
:1049C000C0B2009905EBD572012808BF494201EB3E
:1049D000620090FBF5F009E028461CF061FC0199AB
:1049E00000EBD07201EB620191FBF0F0E66A20EA85
:1049F000E07518F0E9FB024600282046294618BF5A
:104A0000012222F019FFB54204D020461E210022C7
:104A10001FF004FE02B070BD41F20401C4F20201B5
:104A20000A6800F00F0022F0F00242EA001008606D
:104A30007047000041F20401C4F202010A6800F06C
:104A4000070022F4E06242EA00200860704700009C
:104A500041F20401C4F202010A6800F0070022F4E6
:104A6000605242EAC02008607047000041F25401E1
:104A7000C4F202010A68012822F0300208BF303275
:104A80000A607047042888BF7047DFE800F0030C15
:104A900019262F0041F20000C4F20200026861F3FF
:104AA00000020260704741F20000C4F20200026896
:104AB00001F0010122F4803242EA014101607047B5
:104AC00041F20000C4F20200026801F0010122F08C
:104AD000807242EA01610160704741F20000C4F255
:104AE0000200026A61F300020262704741F20000B4
:104AF000C4F20200426A61F30002426270470000A1
:104B0000B0B541F20401C4F202010A68C2F38103A4
:104B100041F20022022BC0F27A020BD0A3BB0B6D34
:104B20009B0531D5CB6A9B0144BF46F60042C0F2DB
:104B3000DC2229E0D1F800C0D1F800E00C68CEF307
:104B4000834EC4F3417423010133BEF10F0F1D46A0
:104B500018BF0225002C18BF1D465FEACC3305EBB9
:104B60000E0305D440F60012C0F23D025A430BE09A
:104B70000D68AD0301D45A4306E00D6DC5F3013550
:104B80000235B2FBF5F25A4302600A6813A3C2F37E
:104B900003129A5C036842F2D87523FA02F242606B
:104BA0000B68C0F60305C3F30223EB5C22FA03F3A0
:104BB000C3600B68C3F3C223EB5C0425DA40826058
:104BC0000B68096805EA9363C1F38131194407A3AF
:104BD000595CB2FBF1F10161B0BD00BF0000000003
:104BE0000000000001020304060708090204060889
:104BF000020C081041F20002010CC4F202028958B2
:104C000000F01F0021FA00F000F0010070470000E2
:104C100041F25401C4F202010A6800F0030022F4D8
:104C2000405242EA003008607047000041F2000143
:104C30000020C4F2020100BF0A68920304D4B0F558
:104C4000405F00F10100F7D30868C0F340407047AF
:104C500041F2000200F01F034FF0010CC4F2020207
:104C600001290CFA03F14FEA1040835814BF23EADC
:104C7000010119438150704780B541F2040EC4F21E
:104C8000020EDEF800C060B14CF48033CEF8003084
:104C9000DEF800C0012814BF4CF400302CF40030C2
:104CA00001E02CF48030CEF80000DEF8000061F363
:104CB0009540CEF80000DEF80000090961F35E704F
:104CC000CEF80000DEF8000020F0004040EAC2709C
:104CD000CEF8000080BD000041F20000C4F20200E6
:104CE000016841F00101016001688907FCD5416854
:104CF00021F00301416000BF416811F00C0FFBD1AE
:104D00000021416002684FF6FF73CFF6F2631A404C
:104D1000026001634FF41F018160704741F204019A
:104D2000C4F202010A6860F301020A6070470000E1
:104D300041F20400C4F202000068C0F38100704731
:104D400010B584B090F8642002F001038B421AD0B1
:104D5000002918BF012102F0FE02114480F86410FE
:104D6000C16A00F1500E9EE80C50D1E90541224481
:104D70000092CA187144019204EB0C020391694637
:104D800002921DF05FFE04B010BD000080B521F05E
:104D90007F40114608F022FE20F07F4080BD0000D9
:104DA0002DE9F04F83B08346C56B407D08F030FE9F
:104DB000BBF81C408246E000B0FBFAF7BBF81A6073
:104DC000BBF8180031460E223B4609F00DFE20B319
:104DD000BBF81610D0F81090090706FB04F40190F8
:104DE0001FD49BF81000F0B1012824D1D5F8008021
:104DF0000020029040460C21002216F0DFFF28B967
:104E000002AB40464946224616F0FCFE10B9029815
:104E1000A04210D0019809F067FE002003B0BDE861
:104E2000F08F286A01E0DBF80C001030016848467A
:104E300022461AF0E1F89BF8150000950E2840D0A4
:104E400007FB06FEBEF1000F3BD04FF0FF3000FA2B
:104E50000AF009EB040209EB0E01013A6FEA0009BE
:104E60004FF0000C0026002010E000BF074604EBC6
:104E70000A00013910F0F80306F101060F701CBF9B
:104E8000012360467645A2EB03021AD01578C4B21E
:104E900025FA04F010EA0900E8D0BAF1070FE5D8C6
:104EA00055460746EBB2C3F10803554400FA03F335
:104EB0005FFA85F8DBB2B8F1080F47EA0307F1D3D0
:104EC000D5E7DDE90001C161CBF82010012003B076
:104ED000BDE8F08F2DE9F04381B0C66B457DD6F873
:104EE00000800446072D02D14FF0080910E0082D7C
:104EF00004D0092D05D14FF0400909E04FF0100909
:104F000006E0A5F10A00B0FA80F040094FEA8029D6
:104F1000E08A00071DD4207CE8B1012838D148463A
:104F200019F0EAFFA0B107460020009040460C218E
:104F3000002216F043FF28B96B46404639464A46E0
:104F400016F060FE08BB009848451ED1776004E06B
:104F5000FEE7306A00E0E0680769072D676201D16B
:104F600002200DE0082D03D0092D03D1102007E009
:104F7000042005E0A5F10A00B0FA80F04009000223
:104F8000A062012001B0BDE8F083384616F06AFD4A
:104F9000002001B0BDE8F08380B504202BF06AF951
:104FA00040F27000C2F2000000684DF68361C4F266
:104FB0001B31A0FB0101880C40F2E401C2F20001A8
:104FC000086008684FF47A71484340F2E001C2F289
:104FD0000001086080BD000080B5002808BF80BDCA
:104FE0004EF2100140F2E00ECEF20001C2F2000ECD
:104FF0004FF0320C002300BF82B2332A06D3DEF812
:105000000020323802FB0CF24A6004E0DEF80000B7
:105010005043486000208B600A6842F001020A6039
:105020000A6802F00112012AFAD00A6822F001028D
:105030000A6002048B60DFD180BD000010B10268FD
:10504000D2691047FEE70000B0B5044616F0C6F975
:105050000546204616F0FAF9332D18BFB0BDD0F83A
:10506000F00218B1BDE8B04024F002BBB0BD0000B2
:10507000F0B585B040F20000C2F2000000780028D0
:1050800048D0144691E84D00B11A1D1A4F1C80B249
:1050900091B29AB2B3B2FBF791FA40F60040C4F273
:1050A0000100042102F058FF022000EB450000FB44
:1050B00007F620463146FBF751FA4FF4A0100121C4
:1050C000FFF7C6FD3025C4F20205284600F0FCF8C3
:1050D0001020ADF8080043F20C00C4F2010000906B
:1050E0004FF480700390ADF8100069462846ADF883
:1050F0000A60019400F0A2F828460221012200F083
:10510000DBF80D200021002224F066FF2846012153
:1051100000F074F805B0F0BD70B504468069002851
:105120001CBF002070BD0E460846002101220AF077
:1051300069F8E0B1054630460AF0D8FCB8B1022063
:10514000A86405F13800A060287966600928A56187
:105150004AD8DFE800F0050F161D242B32373E43F6
:10516000E96C05F10802204613F02AFA3CE04FF002
:10517000FF3070BDE96C05F10802204612F0B4F969
:1051800032E0E96C05F10802204612F059FC2BE0F0
:10519000E96C05F10802204613F018FC24E0E96CE4
:1051A00005F10802204613F0EDFB1DE0E96C05F166
:1051B0000802204613F016FC16E0E96C204613F0B6
:1051C00031FC11E0E96C05F1080220460BF04EFDC0
:1051D0000AE0E96C204615F013FB05E0E96C05F1E7
:1051E0000802204614F0F6FAA06903218164002029
:1051F000A06109F07FFF012070BD0000026861F32B
:1052000000020260704700000421B0F1805FC4F228
:10521000020192BF086020F07040C1F8000470479E
:105220000021C4F20201B0F1805F88BF01F5806106
:105230000968084018BF01207047000002684BF65B
:10524000EF731A4002600A8903681A4302604A7CBD
:10525000036802F0030223F4405343EA023202607F
:10526000CA7B036802F0030223F4406343EA82220C
:1052700002608A7B036802F0030223F4407343EA6E
:10528000022202604A7B036802F0010223F08003DD
:1052900043EAC21202600A7B036862F3861303606A
:1052A0000A7C036862F3451303604A8942600A6816
:1052B00082604968C1607047002A02680CBF22EA18
:1052C0000101114301607047016821F00101016093
:1052D0000021016041608160C16040F2FF4100EA4D
:1052E00001020421B2F5816FC4F2020105D3D20894
:1052F000902A88BF704701F5806100F0FC004CF6F1
:10530000CD420838CCF6CC42A0FB02026FF003007D
:1053100000EA92000F220B6802FA00F018430860BE
:10532000704700002DE9F047A0B088464FF6FF71A6
:105330008A4248D0C46A1746B4F828900646994570
:1053400004D0608D238540F00800608520464FF42E
:1053500080215A221CF0F2FE054620464FF480219F
:105360005C221CF0EBFEF16AD5F80CA0054608465D
:1053700000211BF0ABFE0AEB0501806901FB07F27F
:1053800005EBD573A2EB630210441D900844F16A4B
:1053900001381F904869C9696D461C9028461E91C6
:1053A0000BF02CFC20464FF480212A461DF084F996
:1053B0001CAA404629460BF09DF9608DA4F8289060
:1053C00020F00800608520B0BDE8F0872DE9F043AB
:1053D000A1B088464FF6FF718A4224D0C46A1646AF
:1053E000B4F828900746994504D0608D238540F095
:1053F000080060850CAD28460AF018F820464FF4E6
:1054000080212A461DF090F820464FF480215C222E
:105410001CF094FEF96A1A9041B1084600211BF075
:1054200055FE07462FB921B0BDE8F0830027002FB5
:10543000F9D014981A99C068BA69084401EBD1717F
:10544000A2EB610100FB061108F1180608440138BF
:1054500009910B906069E16908900A9104A808AA73
:105460003146FCF78FF9B8B196E80B00F2688DE889
:105470000B0004AB03920FCB07F1140586E80F0075
:10548000384618F029FD13900CA940462A4609F029
:105490009DFF9DE80F000FC6608DA4F8289020F0B6
:1054A0000800608521B0BDE8F08300002DE9F043DD
:1054B0008FB01C4615460029814650D008790F460A
:1054C00008284CD80121814011F48B7F31D0B86875
:1054D000D0E90061D0E90220CDE90061CDE90220E8
:1054E000901B01300E2109F00BFD304401380DF105
:1054F00010080290404600212C2219F04FFEB87D82
:10550000B98A8DF82700F87DADF8251039688DF837
:10551000240008690A9068460C900889B9680D90C3
:10552000022004918DF82C00484641460BF078FE8D
:1055300015E0A0B90DF11008404609F045F8F87DD6
:10554000B97D8DF83800B88AFA68ADF830000120CE
:105550008DF832100D904846414611F0C5FF002DE0
:1055600018BF002C02D10FB0BDE8F0834846294691
:10557000224613F025F80FB0BDE8F0832DE9F04F77
:10558000F7B0054615F02EFF0446806B002800F0AA
:105590006D81284615F044FF618D824641F0080078
:1055A000608573A920461BF0E7FE608D22AE40F0B7
:1055B0000800258D4FF0000B60853046A4F828B018
:1055C0000BF01CFB0DAF384609F030FF20464FF4BE
:1055D000A02132461DF070F820464FF4A0213A4633
:1055E0001CF0A2FF608D002120F00800608520469D
:1055F0001022099525851CF0A1FD07902046002169
:1056000011221CF09BFD06902046002112221CF066
:1056100095FD05902046002113221CF08FFDA16B03
:105620000490002900F01E814DF6D626C0F6030630
:105630004FF00009CDF820A016E09DF84401CDF808
:1056400014A1DDF820A040F040008DF84401504640
:105650003EA96FAACDF800B109F0B8FEA06B0BF11E
:10566000010B834580F0FE80E06A314650F8290046
:1056700021F034FB002809F10109F5D0606B50F8E6
:105680002B00C106EAD4410608D4216C4FF0000873
:105690008B45099908BF01F02E0801E04FF0800802
:1056A000216BC0F300204FEA0B1350EA080C01EB0A
:1056B0000B12C958DDE97370D2E90135D26839445B
:1056C0006F9100EB0301709107EB0501104471919C
:1056D000729020D0608D53AD40F008006085284660
:1056E000A4F828C00BF08AFA3EAF384609F09EFEB7
:1056F00020464FF4A0212A461CF0DEFF20464FF43E
:10570000A0213A461CF010FF608D099920F0080096
:105710002185608509E053A822A9702219F06CFC4C
:105720003EA80DA9542219F067FC9DF89501CDF80B
:1057300054B1C10633D500F0E00000F10F018DF83F
:1057400095116169059B6F9A19448A4204BF40F024
:105750000B008DF89501E069049A7199801A8142D5
:1057600005D19DF8950100F0F7008DF89501A0692D
:10577000079A70991044814205D19DF8950100F077
:10578000FD008DF89501206A069A7299801A81426F
:1057900005D19DF8950100F0FE008DF895017098F7
:1057A000729918F02008A1EB000101F1010207D065
:1057B000616B01EB8B014978490744BF801A7090F7
:1057C0000A92504653A96FAA0AF094FFE06A759DA9
:1057D00000EB890050F804AC73984C99281A469A4B
:1057E0004D9B9DF843510130CDE900100BA8514667
:1057F000029522F0F5FA0DF5DE7C9CE80710DDE954
:105800000B57B8F1000F00EB0503A2EB030202F106
:10581000010202EBD27200EB620201EB0700ACEB7B
:10582000000000F1010000EBD07001EB600002EB22
:105830000501719100EB07016F92709072913FF436
:10584000FCAE626B02EB8B02527852077FF5F5AE2D
:105850000A9A02EBD272A0EB62007090A1EB620098
:105860007290EAE6608D20F00800608577B0BDE8B0
:10587000F08F00002DE9F04FDDB0044615F0B2FDC9
:105880000546204615F0CCFD8046284600213022F2
:105890001CF054FC07462846002112221CF04EFC46
:1058A00081462846002113221CF048FC82462846E7
:1058B000002110221CF042FC48AE0446304609F09C
:1058C000B5FD28464FF4003132461CF02DFED5F8C8
:1058D00030B0BBF1000F32D1A86B88B121F02CFAA7
:1058E000A0B16A6C00210023934210D0AE6B765CAD
:1058F00001310A2E08BF01338842F5D1014606E086
:1059000000208DF8A0000DF1A00B18E000214FF051
:10591000000C88424FF000030DD9401A002328AE36
:10592000AA6B0A44D25C0A2A05D07E2B03D8F25413
:1059300001339842F4D10DF1A00B0BF803C009EB31
:105940000700069095F84C00E61900F00F000138AA
:10595000B0FA80F04409284600212722BA441CF0FE
:10596000EDFB4FF0FF3151FA80F0B0FA80F1686B37
:105970004909002841EA040107917ED0CDE9046875
:1059800017F014FC0446022811D19DF86B01696BD5
:10599000509ADDE956C36FF06046CDE901600AA870
:1059A000CDF800C022F01CFADDE90A980DE0686B22
:1059B0000AA916F0A5FDBDF82C90BDF82E804FF079
:1059C000FF3101281CBF89468846079830B16869B5
:1059D0000699574608442490484406E0E86957462B
:1059E000A0EB0A00A0EB09012491D5F818A001381A
:1059F000022C269010D1049E696B0AEB06002590BC
:105A00004044DDF81480013827904F9148A924AA1A
:105A1000404609F0DBFC2FE028461BF001FDA0EB1F
:105A2000080000EBD0700AEB60002590404401387C
:105A30000AAC2790204609F0A7FC28464FF4003115
:105A400022461CF015FD09EBD97008EBD871401007
:105A50004910CDE91A0128464FF400316E221CF09E
:105A60006DFB696BDDF814801590119124AA4046F6
:105A7000214609F03BFC049EBA460AAC204609F0D8
:105A8000D5FC2846002122461CF04EFD9DF87300EF
:105A9000129ADDE918736FF06041CDE9011008A892
:105AA0005946009722F09CF9A869696B099A30441D
:105AB00025901044279041B1079898B10898E9695A
:105AC0000AEB0002891A249111E06C6928461CF047
:105AD000FDFB0899401A00EBD07004EB60002490A5
